{"abi":[{"type":"constructor","inputs":[{"name":"_initialOwner","type":"address","internalType":"address"}],"stateMutability":"nonpayable"},{"type":"function","name":"createSession","inputs":[{"name":"params","type":"tuple","internalType":"struct StakingOneTransfer.CreateSessionParams","components":[{"name":"stakingToken","type":"address","internalType":"address"},{"name":"rewardToken","type":"address","internalType":"address"},{"name":"checkInRewardToken","type":"address","internalType":"address"},{"name":"totalReward","type":"uint256","internalType":"uint256"},{"name":"checkInRewardPool","type":"uint256","internalType":"uint256"},{"name":"startTime","type":"uint256","internalType":"uint256"},{"name":"endTime","type":"uint256","internalType":"uint256"}]}],"outputs":[],"stateMutability":"nonpayable"},{"type":"function","name":"currentSessionId","inputs":[],"outputs":[{"name":"","type":"uint256","internalType":"uint256"}],"stateMutability":"view"},{"type":"function","name":"owner","inputs":[],"outputs":[{"name":"","type":"address","internalType":"address"}],"stateMutability":"view"},{"type":"function","name":"renounceOwnership","inputs":[],"outputs":[],"stateMutability":"nonpayable"},{"type":"function","name":"sessions","inputs":[{"name":"","type":"uint256","internalType":"uint256"}],"outputs":[{"name":"stakingToken","type":"address","internalType":"address"},{"name":"rewardToken","type":"address","internalType":"address"},{"name":"checkInRewardToken","type":"address","internalType":"address"},{"name":"totalReward","type":"uint256","internalType":"uint256"},{"name":"checkInRewardPool","type":"uint256","internalType":"uint256"},{"name":"startTime","type":"uint256","internalType":"uint256"},{"name":"endTime","type":"uint256","internalType":"uint256"},{"name":"totalStaked","type":"uint256","internalType":"uint256"},{"name":"rewardPerSecond","type":"uint256","internalType":"uint256"},{"name":"accRewardPerShare","type":"uint256","internalType":"uint256"},{"name":"lastRewardTime","type":"uint256","internalType":"uint256"},{"name":"totalWeightedStake","type":"uint256","internalType":"uint256"},{"name":"active","type":"bool","internalType":"bool"}],"stateMutability":"view"},{"type":"function","name":"transferOwnership","inputs":[{"name":"newOwner","type":"address","internalType":"address"}],"outputs":[],"stateMutability":"nonpayable"},{"type":"event","name":"OwnershipTransferred","inputs":[{"name":"previousOwner","type":"address","indexed":true,"internalType":"address"},{"name":"newOwner","type":"address","indexed":true,"internalType":"address"}],"anonymous":false},{"type":"event","name":"SessionCreated","inputs":[{"name":"sessionId","type":"uint256","indexed":true,"internalType":"uint256"}],"anonymous":false},{"type":"error","name":"AddressEmptyCode","inputs":[{"name":"target","type":"address","internalType":"address"}]},{"type":"error","name":"AddressInsufficientBalance","inputs":[{"name":"account","type":"address","internalType":"address"}]},{"type":"error","name":"FailedInnerCall","inputs":[]},{"type":"error","name":"OwnableInvalidOwner","inputs":[{"name":"owner","type":"address","internalType":"address"}]},{"type":"error","name":"OwnableUnauthorizedAccount","inputs":[{"name":"account","type":"address","internalType":"address"}]},{"type":"error","name":"SafeERC20FailedOperation","inputs":[{"name":"token","type":"address","internalType":"address"}]}],"bytecode":{"object":"0x608060405234801561000f575f80fd5b506040516108f73803806108f783398101604081905261002e916100bb565b806001600160a01b03811661005c57604051631e4fbdf760e01b81525f600482015260240160405180910390fd5b6100658161006c565b50506100e8565b5f80546001600160a01b038381166001600160a01b0319831681178455604051919092169283917f8be0079c531659141344cd1fd0a4f28419497f9722a3daafe3b4186f6b6457e09190a35050565b5f602082840312156100cb575f80fd5b81516001600160a01b03811681146100e1575f80fd5b9392505050565b610802806100f55f395ff3fe608060405234801561000f575f80fd5b5060043610610060575f3560e01c80636597a13014610064578063715018a61461008057806383c4b7a31461008a5780638da5cb5b14610183578063ba604a271461019d578063f2fde38b146101b0575b5f80fd5b61006d60015481565b6040519081526020015b60405180910390f35b6100886101c3565b005b6101106100983660046106d0565b600260208190525f918252604090912080546001820154928201546003830154600484015460058501546006860154600787015460088801546009890154600a8a0154600b8b0154600c909b01546001600160a01b039a8b169c8b169b99909a16999798969795969495939492939192909160ff168d565b604080516001600160a01b039e8f1681529c8e1660208e01529a909c16998b019990995260608a0197909752608089019590955260a088019390935260c087019190915260e08601526101008501526101208401526101408301526101608201529015156101808201526101a001610077565b5f546040516001600160a01b039091168152602001610077565b6100886101ab3660046106e7565b6101d6565b6100886101be3660046106fd565b61041c565b6101cb610459565b6101d45f610485565b565b6101de610459565b428160a00135116102365760405162461bcd60e51b815260206004820152601c60248201527f53746172742074696d65206d75737420626520696e206675747572650000000060448201526064015b60405180910390fd5b8060a001358160c00135116102975760405162461bcd60e51b815260206004820152602160248201527f456e642074696d65206d7573742062652061667465722073746172742074696d6044820152606560f81b606482015260840161022d565b6102c2333060608401356102b160408601602087016106fd565b6001600160a01b03169291906104d4565b60018054905f6102d183610737565b90915550506001545f908152600260209081526040909120906102f6908301836106fd565b81546001600160a01b0319166001600160a01b039190911617815561032160408301602084016106fd565b6001820180546001600160a01b0319166001600160a01b039290921691909117905561035360608301604084016106fd565b6002820180546001600160a01b0319166001600160a01b0392909216919091179055606082013560038201556080820135600482015560a08201356005820181905560c0830135600683018190555f60078401556103b1919061074f565b6103bf906060840135610762565b60088201555f6009820181905560a0830135600a830155600b8201819055600c8201805460ff191660019081179091555460405190917fba5b9081592c446fc890c90b94eb1cb2e823c52d85adafb0a116860c7549705a91a25050565b610424610459565b6001600160a01b03811661044d57604051631e4fbdf760e01b81525f600482015260240161022d565b61045681610485565b50565b5f546001600160a01b031633146101d45760405163118cdaa760e01b815233600482015260240161022d565b5f80546001600160a01b038381166001600160a01b0319831681178455604051919092169283917f8be0079c531659141344cd1fd0a4f28419497f9722a3daafe3b4186f6b6457e09190a35050565b604080516001600160a01b0385811660248301528416604482015260648082018490528251808303909101815260849091019091526020810180516001600160e01b03166323b872dd60e01b17905261052e908590610534565b50505050565b5f6105486001600160a01b0384168361059a565b905080515f1415801561056c57508080602001905181019061056a9190610781565b155b1561059557604051635274afe760e01b81526001600160a01b038416600482015260240161022d565b505050565b60606105a783835f6105b0565b90505b92915050565b6060814710156105d55760405163cd78605960e01b815230600482015260240161022d565b5f80856001600160a01b031684866040516105f091906107a0565b5f6040518083038185875af1925050503d805f811461062a576040519150601f19603f3d011682016040523d82523d5f602084013e61062f565b606091505b509150915061063f86838361064b565b925050505b9392505050565b6060826106605761065b826106a7565b610644565b815115801561067757506001600160a01b0384163b155b156106a057604051639996b31560e01b81526001600160a01b038516600482015260240161022d565b5080610644565b8051156106b75780518082602001fd5b604051630a12f52160e11b815260040160405180910390fd5b5f602082840312156106e0575f80fd5b5035919050565b5f60e082840312156106f7575f80fd5b50919050565b5f6020828403121561070d575f80fd5b81356001600160a01b0381168114610644575f80fd5b634e487b7160e01b5f52601160045260245ffd5b5f6001820161074857610748610723565b5060010190565b818103818111156105aa576105aa610723565b5f8261077c57634e487b7160e01b5f52601260045260245ffd5b500490565b5f60208284031215610791575f80fd5b81518015158114610644575f80fd5b5f82515f5b818110156107bf57602081860181015185830152016107a5565b505f92019182525091905056fea2646970667358221220d2684723fc9689c432b1a3ce9f81438b5829ee31e5aecf8b5d7d1f054ebaa03464736f6c63430008140033","linkReferences":{}},"methodIdentifiers":{"createSession((address,address,address,uint256,uint256,uint256,uint256))":"ba604a27","currentSessionId()":"6597a130","owner()":"8da5cb5b","renounceOwnership()":"715018a6","sessions(uint256)":"83c4b7a3","transferOwnership(address)":"f2fde38b"},"id":31}