{"abi":[{"type":"constructor","inputs":[{"name":"_initialOwner","type":"address","internalType":"address"}],"stateMutability":"nonpayable"},{"type":"function","name":"checkIn","inputs":[{"name":"_sessionId","type":"uint256","internalType":"uint256"}],"outputs":[],"stateMutability":"nonpayable"},{"type":"function","name":"createSession","inputs":[{"name":"params","type":"tuple","internalType":"struct StakingNoBNB.CreateSessionParams","components":[{"name":"stakingToken","type":"address","internalType":"address"},{"name":"rewardToken","type":"address","internalType":"address"},{"name":"checkInRewardToken","type":"address","internalType":"address"},{"name":"totalReward","type":"uint256","internalType":"uint256"},{"name":"checkInRewardPool","type":"uint256","internalType":"uint256"},{"name":"startTime","type":"uint256","internalType":"uint256"},{"name":"endTime","type":"uint256","internalType":"uint256"}]}],"outputs":[],"stateMutability":"nonpayable"},{"type":"function","name":"currentSessionId","inputs":[],"outputs":[{"name":"","type":"uint256","internalType":"uint256"}],"stateMutability":"view"},{"type":"function","name":"deposit","inputs":[{"name":"_sessionId","type":"uint256","internalType":"uint256"},{"name":"_amount","type":"uint256","internalType":"uint256"}],"outputs":[],"stateMutability":"nonpayable"},{"type":"function","name":"getSessionInfo","inputs":[{"name":"_sessionId","type":"uint256","internalType":"uint256"}],"outputs":[{"name":"","type":"tuple","internalType":"struct StakingNoBNB.Session","components":[{"name":"stakingToken","type":"address","internalType":"address"},{"name":"rewardToken","type":"address","internalType":"address"},{"name":"checkInRewardToken","type":"address","internalType":"address"},{"name":"totalReward","type":"uint256","internalType":"uint256"},{"name":"checkInRewardPool","type":"uint256","internalType":"uint256"},{"name":"startTime","type":"uint256","internalType":"uint256"},{"name":"endTime","type":"uint256","internalType":"uint256"},{"name":"totalStaked","type":"uint256","internalType":"uint256"},{"name":"rewardPerSecond","type":"uint256","internalType":"uint256"},{"name":"accRewardPerShare","type":"uint256","internalType":"uint256"},{"name":"lastRewardTime","type":"uint256","internalType":"uint256"},{"name":"totalWeightedStake","type":"uint256","internalType":"uint256"},{"name":"active","type":"bool","internalType":"bool"}]}],"stateMutability":"view"},{"type":"function","name":"getUserInfo","inputs":[{"name":"_sessionId","type":"uint256","internalType":"uint256"},{"name":"_user","type":"address","internalType":"address"}],"outputs":[{"name":"","type":"tuple","internalType":"struct StakingNoBNB.UserInfo","components":[{"name":"amount","type":"uint256","internalType":"uint256"},{"name":"rewardDebt","type":"uint256","internalType":"uint256"},{"name":"boost","type":"uint256","internalType":"uint256"},{"name":"lastCheckInTime","type":"uint40","internalType":"uint40"},{"name":"hasWithdrawn","type":"bool","internalType":"bool"}]}],"stateMutability":"view"},{"type":"function","name":"owner","inputs":[],"outputs":[{"name":"","type":"address","internalType":"address"}],"stateMutability":"view"},{"type":"function","name":"pause","inputs":[],"outputs":[],"stateMutability":"nonpayable"},{"type":"function","name":"paused","inputs":[],"outputs":[{"name":"","type":"bool","internalType":"bool"}],"stateMutability":"view"},{"type":"function","name":"pendingCheckInReward","inputs":[{"name":"_sessionId","type":"uint256","internalType":"uint256"},{"name":"_user","type":"address","internalType":"address"}],"outputs":[{"name":"","type":"uint256","internalType":"uint256"}],"stateMutability":"view"},{"type":"function","name":"pendingReward","inputs":[{"name":"_sessionId","type":"uint256","internalType":"uint256"},{"name":"_user","type":"address","internalType":"address"}],"outputs":[{"name":"","type":"uint256","internalType":"uint256"}],"stateMutability":"view"},{"type":"function","name":"renounceOwnership","inputs":[],"outputs":[],"stateMutability":"nonpayable"},{"type":"function","name":"sessions","inputs":[{"name":"","type":"uint256","internalType":"uint256"}],"outputs":[{"name":"stakingToken","type":"address","internalType":"address"},{"name":"rewardToken","type":"address","internalType":"address"},{"name":"checkInRewardToken","type":"address","internalType":"address"},{"name":"totalReward","type":"uint256","internalType":"uint256"},{"name":"checkInRewardPool","type":"uint256","internalType":"uint256"},{"name":"startTime","type":"uint256","internalType":"uint256"},{"name":"endTime","type":"uint256","internalType":"uint256"},{"name":"totalStaked","type":"uint256","internalType":"uint256"},{"name":"rewardPerSecond","type":"uint256","internalType":"uint256"},{"name":"accRewardPerShare","type":"uint256","internalType":"uint256"},{"name":"lastRewardTime","type":"uint256","internalType":"uint256"},{"name":"totalWeightedStake","type":"uint256","internalType":"uint256"},{"name":"active","type":"bool","internalType":"bool"}],"stateMutability":"view"},{"type":"function","name":"transferOwnership","inputs":[{"name":"newOwner","type":"address","internalType":"address"}],"outputs":[],"stateMutability":"nonpayable"},{"type":"function","name":"unpause","inputs":[],"outputs":[],"stateMutability":"nonpayable"},{"type":"function","name":"userInfo","inputs":[{"name":"","type":"uint256","internalType":"uint256"},{"name":"","type":"address","internalType":"address"}],"outputs":[{"name":"amount","type":"uint256","internalType":"uint256"},{"name":"rewardDebt","type":"uint256","internalType":"uint256"},{"name":"boost","type":"uint256","internalType":"uint256"},{"name":"lastCheckInTime","type":"uint40","internalType":"uint40"},{"name":"hasWithdrawn","type":"bool","internalType":"bool"}],"stateMutability":"view"},{"type":"function","name":"withdraw","inputs":[{"name":"_sessionId","type":"uint256","internalType":"uint256"}],"outputs":[],"stateMutability":"nonpayable"},{"type":"event","name":"CheckedIn","inputs":[{"name":"sessionId","type":"uint256","indexed":true,"internalType":"uint256"},{"name":"user","type":"address","indexed":true,"internalType":"address"},{"name":"timestamp","type":"uint256","indexed":false,"internalType":"uint256"}],"anonymous":false},{"type":"event","name":"Deposited","inputs":[{"name":"sessionId","type":"uint256","indexed":true,"internalType":"uint256"},{"name":"user","type":"address","indexed":true,"internalType":"address"},{"name":"amount","type":"uint256","indexed":false,"internalType":"uint256"},{"name":"timestamp","type":"uint256","indexed":false,"internalType":"uint256"},{"name":"totalStaked","type":"uint256","indexed":false,"internalType":"uint256"}],"anonymous":false},{"type":"event","name":"OwnershipTransferred","inputs":[{"name":"previousOwner","type":"address","indexed":true,"internalType":"address"},{"name":"newOwner","type":"address","indexed":true,"internalType":"address"}],"anonymous":false},{"type":"event","name":"Paused","inputs":[{"name":"account","type":"address","indexed":false,"internalType":"address"}],"anonymous":false},{"type":"event","name":"SessionCreated","inputs":[{"name":"sessionId","type":"uint256","indexed":true,"internalType":"uint256"},{"name":"stakingToken","type":"address","indexed":true,"internalType":"address"},{"name":"rewardToken","type":"address","indexed":true,"internalType":"address"},{"name":"checkInRewardToken","type":"address","indexed":false,"internalType":"address"},{"name":"totalReward","type":"uint256","indexed":false,"internalType":"uint256"},{"name":"checkInRewardPool","type":"uint256","indexed":false,"internalType":"uint256"},{"name":"startTime","type":"uint256","indexed":false,"internalType":"uint256"},{"name":"endTime","type":"uint256","indexed":false,"internalType":"uint256"}],"anonymous":false},{"type":"event","name":"Unpaused","inputs":[{"name":"account","type":"address","indexed":false,"internalType":"address"}],"anonymous":false},{"type":"event","name":"Withdrawn","inputs":[{"name":"sessionId","type":"uint256","indexed":true,"internalType":"uint256"},{"name":"user","type":"address","indexed":true,"internalType":"address"},{"name":"stakedAmount","type":"uint256","indexed":false,"internalType":"uint256"},{"name":"rewardAmount","type":"uint256","indexed":false,"internalType":"uint256"},{"name":"checkInReward","type":"uint256","indexed":false,"internalType":"uint256"},{"name":"timestamp","type":"uint256","indexed":false,"internalType":"uint256"}],"anonymous":false},{"type":"error","name":"AddressEmptyCode","inputs":[{"name":"target","type":"address","internalType":"address"}]},{"type":"error","name":"AddressInsufficientBalance","inputs":[{"name":"account","type":"address","internalType":"address"}]},{"type":"error","name":"EnforcedPause","inputs":[]},{"type":"error","name":"ExpectedPause","inputs":[]},{"type":"error","name":"FailedInnerCall","inputs":[]},{"type":"error","name":"OwnableInvalidOwner","inputs":[{"name":"owner","type":"address","internalType":"address"}]},{"type":"error","name":"OwnableUnauthorizedAccount","inputs":[{"name":"account","type":"address","internalType":"address"}]},{"type":"error","name":"ReentrancyGuardReentrantCall","inputs":[]},{"type":"error","name":"SafeERC20FailedOperation","inputs":[{"name":"token","type":"address","internalType":"address"}]}],"bytecode":{"object":"0x608060405234801562000010575f80fd5b506040516200207e3803806200207e8339810160408190526200003391620000d6565b806001600160a01b0381166200006257604051631e4fbdf760e01b81525f600482015260240160405180910390fd5b6200006d8162000087565b5050600180556002805460ff191690555f60035562000105565b5f80546001600160a01b038381166001600160a01b0319831681178455604051919092169283917f8be0079c531659141344cd1fd0a4f28419497f9722a3daafe3b4186f6b6457e09190a35050565b5f60208284031215620000e7575f80fd5b81516001600160a01b0381168114620000fe575f80fd5b9392505050565b611f6b80620001135f395ff3fe608060405234801561000f575f80fd5b5060043610610106575f3560e01c80638456cb591161009e5780639e10acf01161006e5780639e10acf014610385578063ba604a27146103a5578063e2bbb158146103b8578063e95a644f146103cb578063f2fde38b146103de575f80fd5b80638456cb59146102cd5780638da5cb5b146102d557806393f1a40b146102ef57806398969e8214610372575f80fd5b80636597a130116100d95780636597a130146101a3578063715018a6146101ba5780637763b0df146101c257806383c4b7a3146101d5575f80fd5b80631069f3b51461010a5780632e1a7d4d146101705780633f4ba83a146101855780635c975abb1461018d575b5f80fd5b61011d610118366004611caa565b6103f1565b60405161016791905f60a08201905082518252602083015160208301526040830151604083015264ffffffffff606084015116606083015260808301511515608083015292915050565b60405180910390f35b61018361017e366004611cd4565b6104d2565b005b610183610637565b60025460ff166040519015158152602001610167565b6101ac60035481565b604051908152602001610167565b610183610649565b6101ac6101d0366004611caa565b61065a565b61025a6101e3366004611cd4565b600460208190525f918252604090912080546001820154600283015460038401549484015460058501546006860154600787015460088801546009890154600a8a0154600b8b0154600c909b01546001600160a01b039a8b169c998b169b9a90981699969795969495939492939192909160ff168d565b604080516001600160a01b039e8f1681529c8e1660208e01529a909c16998b019990995260608a0197909752608089019590955260a088019390935260c087019190915260e08601526101008501526101208401526101408301526101608201529015156101808201526101a001610167565b610183610712565b5f546040516001600160a01b039091168152602001610167565b6103416102fd366004611caa565b600560209081525f928352604080842090915290825290208054600182015460028301546003909301549192909164ffffffffff811690600160281b900460ff1685565b6040805195865260208601949094529284019190915264ffffffffff1660608301521515608082015260a001610167565b6101ac610380366004611caa565b610722565b610398610393366004611cd4565b610834565b6040516101679190611ceb565b6101836103b3366004611db1565b610996565b6101836103c6366004611dc7565b610df6565b6101836103d9366004611cd4565b610f44565b6101836103ec366004611de7565b6111c5565b6104276040518060a001604052805f81526020015f81526020015f81526020015f64ffffffffff1681526020015f151581525090565b825f8111801561043957506003548111155b61045e5760405162461bcd60e51b815260040161045590611e00565b60405180910390fd5b5f8481526005602090815260408083206001600160a01b0387168452825291829020825160a0810184528154815260018201549281019290925260028101549282019290925260039091015464ffffffffff81166060830152600160281b900460ff161515608082015291505b5092915050565b6104da6111ff565b6104e2611229565b805f811180156104f457506003548111155b6105105760405162461bcd60e51b815260040161045590611e00565b5f8281526004602052604090206006810154839190421161056b5760405162461bcd60e51b815260206004820152601560248201527414d95cdcda5bdb881b9bdd08195b991959081e595d605a1b6044820152606401610455565b5f848152600560209081526040808320338452909152902080546105c45760405162461bcd60e51b815260206004820152601060248201526f139bc81cdd185ad95908185b5bdd5b9d60821b6044820152606401610455565b6003810154600160281b900460ff16156106145760405162461bcd60e51b815260206004820152601160248201527020b63932b0b23c903bb4ba34323930bbb760791b6044820152606401610455565b61061d8561124d565b610627858261131e565b5050505061063460018055565b50565b61063f611481565b6106476114ad565b565b610651611481565b6106475f6114ff565b5f825f8111801561066d57506003548111155b6106895760405162461bcd60e51b815260040161045590611e00565b5f848152600460209081526040808320600583528184206001600160a01b0388168552909252909120600281015415806106c55750600b820154155b156106d4575f935050506104cb565b600281015481545f916106e691611e44565b905082600b01548184600401546106fd9190611e44565b6107079190611e5b565b979650505050505050565b61071a611481565b61064761154e565b5f825f8111801561073557506003548111155b6107515760405162461bcd60e51b815260040161045590611e00565b5f848152600460209081526040808320600583528184206001600160a01b03881685529092528220805491929091900361078f575f935050506104cb565b6009820154600a830154421180156107aa57505f8360070154115b15610804575f6107be8885600a015461158b565b90505f8460080154826107d19190611e44565b60078601549091506107eb670de0b6b3a764000083611e44565b6107f59190611e5b565b6107ff9084611e7a565b925050505b60018201548254670de0b6b3a764000090610820908490611e44565b61082a9190611e5b565b6107079190611e8d565b6108af604051806101a001604052805f6001600160a01b031681526020015f6001600160a01b031681526020015f6001600160a01b031681526020015f81526020015f81526020015f81526020015f81526020015f81526020015f81526020015f81526020015f81526020015f81526020015f151581525090565b815f811180156108c157506003548111155b6108dd5760405162461bcd60e51b815260040161045590611e00565b50505f9081526004602081815260409283902083516101a08101855281546001600160a01b039081168252600183015481169382019390935260028201549092169382019390935260038301546060820152908201546080820152600582015460a0820152600682015460c0820152600782015460e082015260088201546101008201526009820154610120820152600a820154610140820152600b820154610160820152600c9091015460ff16151561018082015290565b61099e611481565b6109a6611229565b428160a00135116109f95760405162461bcd60e51b815260206004820152601c60248201527f53746172742074696d65206d75737420626520696e20667574757265000000006044820152606401610455565b8060a001358160c0013511610a5a5760405162461bcd60e51b815260206004820152602160248201527f456e642074696d65206d7573742062652061667465722073746172742074696d6044820152606560f81b6064820152608401610455565b5f816060013511610ab95760405162461bcd60e51b815260206004820152602360248201527f546f74616c20726577617264206d75737420626520677265617465722074686160448201526206e20360ec1b6064820152608401610455565b5f816080013511610b1f5760405162461bcd60e51b815260206004820152602a60248201527f436865636b496e2072657761726420706f6f6c206d75737420626520677265616044820152690746572207468616e20360b41b6064820152608401610455565b610b318160a001358260c001356115d9565b60035415610b9b576003545f908152600460205260409020600601544211610b9b5760405162461bcd60e51b815260206004820152601a60248201527f50726576696f75732073657373696f6e206e6f7420656e6465640000000000006044820152606401610455565b610bab6040820160208301611de7565b6040516323b872dd60e01b8152336004820152306024820152606083013560448201526001600160a01b0391909116906323b872dd906064016020604051808303815f875af1158015610c00573d5f803e3d5ffd5b505050506040513d601f19601f82011682018060405250810190610c249190611ea0565b610c695760405162461bcd60e51b815260206004820152601660248201527514995dd85c99081d1c985b9cd9995c8819985a5b195960521b6044820152606401610455565b610c796060820160408301611de7565b6040516323b872dd60e01b8152336004820152306024820152608083013560448201526001600160a01b0391909116906323b872dd906064016020604051808303815f875af1158015610cce573d5f803e3d5ffd5b505050506040513d601f19601f82011682018060405250810190610cf29190611ea0565b610d3e5760405162461bcd60e51b815260206004820152601760248201527f436865636b496e207472616e73666572206661696c65640000000000000000006044820152606401610455565b610d47816116af565b610d576040820160208301611de7565b6001600160a01b0316610d6d6020830183611de7565b6001600160a01b03166003547ff0bf75f9e537ccf1d0c0fa20533c3c4afad7f030f84c6bdd91c30c7da3dbc089846040016020810190610dad9190611de7565b604080516001600160a01b0392909216825260608781013560208401526080808901358484015260a0808a01359285019290925260c0890135908401529051918290030190a450565b610dfe6111ff565b610e06611229565b815f81118015610e1857506003548111155b610e345760405162461bcd60e51b815260040161045590611e00565b5f8381526004602052604090206005810154849190421015610e8e5760405162461bcd60e51b815260206004820152601360248201527214d95cdcda5bdb881b9bdd081cdd185c9d1959606a1b6044820152606401610455565b8060060154421115610ed25760405162461bcd60e51b815260206004820152600d60248201526c14d95cdcda5bdb88195b991959609a1b6044820152606401610455565b5f8411610f215760405162461bcd60e51b815260206004820152601d60248201527f416d6f756e74206d7573742062652067726561746572207468616e20300000006044820152606401610455565b610f2a8561124d565b610f3485856118f2565b505050610f4060018055565b5050565b610f4c6111ff565b610f54611229565b805f81118015610f6657506003548111155b610f825760405162461bcd60e51b815260040161045590611e00565b5f8281526004602052604090206005810154839190421015610fdc5760405162461bcd60e51b815260206004820152601360248201527214d95cdcda5bdb881b9bdd081cdd185c9d1959606a1b6044820152606401610455565b80600601544211156110205760405162461bcd60e51b815260206004820152600d60248201526c14d95cdcda5bdb88195b991959609a1b6044820152606401610455565b5f8481526005602090815260408083203384528252808320878452600490925290912081546110915760405162461bcd60e51b815260206004820152601a60248201527f4d757374207374616b65206265666f726520636865636b2d696e0000000000006044820152606401610455565b60038201546110a99064ffffffffff1661012c611ebf565b64ffffffffff164210156110ff5760405162461bcd60e51b815260206004820152601d60248201527f436865636b2d696e20636f6f6c646f776e206e6f7420657870697265640000006044820152606401610455565b600282015482545f9161111191611e44565b90506001836002015f8282546111279190611e7a565b9091555050600283015483545f9161113e91611e44565b9050808284600b01546111519190611e8d565b61115b9190611e7a565b600b84015560038401805464ffffffffff19164264ffffffffff811691909117909155604051908152339089907f6b2e4e52ba8b5cff4a90d18b1efd0f88c74ed562b5dd3b13f01a1759699b2db29060200160405180910390a35050505050505061063460018055565b6111cd611481565b6001600160a01b0381166111f657604051631e4fbdf760e01b81525f6004820152602401610455565b610634816114ff565b60026001540361122257604051633ee5aeb560e01b815260040160405180910390fd5b6002600155565b60025460ff16156106475760405163d93c066560e01b815260040160405180910390fd5b5f818152600460205260409020600a8101544290811161126c57505050565b81600701545f0361129b5781600601548111611288578061128e565b81600601545b82600a0181905550505050565b5f6112aa8484600a015461158b565b90505f8360080154826112bd9190611e44565b60078501549091506112d7670de0b6b3a764000083611e44565b6112e19190611e5b565b846009015f8282546112f39190611e7a565b909155505060068401548311611309578261130f565b83600601545b84600a01819055505050505050565b5f828152600460205260408120600183015460098201548454929392670de0b6b3a76400009161134d91611e44565b6113579190611e5b565b6113619190611e8d565b90505f61136e85856119d3565b845460038601805465ff00000000001916600160281b17905560078501805492935090918291905f906113a2908490611e8d565b90915550506002850154156113da57600285015485546113c29190611e44565b84600b015f8282546113d49190611e8d565b90915550505b83546113f0906001600160a01b03163383611a3b565b821561140f57600184015461140f906001600160a01b03163385611a3b565b811561142e57600284015461142e906001600160a01b03163384611a3b565b6040805182815260208101859052908101839052426060820152339087907f34b356a06378218b842d641adfef56661747ff542e604819d2522801273541239060800160405180910390a3505050505050565b5f546001600160a01b031633146106475760405163118cdaa760e01b8152336004820152602401610455565b6114b5611a9a565b6002805460ff191690557f5db9ee0a495bf2e6ff9c91a7834c1ba4fdd244a5e8aa4e537bd38aeae4b073aa335b6040516001600160a01b03909116815260200160405180910390a1565b5f80546001600160a01b038381166001600160a01b0319831681178455604051919092169283917f8be0079c531659141344cd1fd0a4f28419497f9722a3daafe3b4186f6b6457e09190a35050565b611556611229565b6002805460ff191660011790557f62e78cea01bee320cd4e420270b5ea74000d11b0c9f74754ebdbfc544b05a2586114e23390565b5f8281526004602052604081206006810154829042116115ab57426115b1565b81600601545b90508381116115c4575f925050506115d3565b6115ce8482611e8d565b925050505b92915050565b5f5b6006548110156116aa575f600682815481106115f9576115f9611edd565b5f9182526020808320604080518082019091526002909302018054835260010154908201819052909250851080156116315750815184115b905080156116955760405162461bcd60e51b815260206004820152602b60248201527f53657373696f6e2074696d65206f7665726c617073207769746820657869737460448201526a34b7339039b2b9b9b4b7b760a91b6064820152608401610455565b505080806116a290611ef1565b9150506115db565b505050565b60038054905f6116be83611ef1565b9091555050604080516101a08101909152806116dd6020840184611de7565b6001600160a01b031681526020018260200160208101906116fe9190611de7565b6001600160a01b0316815260200161171c6060840160408501611de7565b6001600160a01b0316815260200182606001358152602001826080013581526020018260a0013581526020018260c0013581526020015f81526020018260a001358360c0013561176c9190611e8d565b61177a906060850135611e5b565b81525f602080830182905260a085810135604080860182905260608087018690526001608097880181905260038054885260048088528489208b5181546001600160a01b03199081166001600160a01b039283161783558d8b0151838701805483169184169190911790558d8801516002808501805490931691909316179055948c015192810192909255988a01519881019890985593880151600588015560c0808901516006808a019190915560e08a015160078a01556101008a015160088a01556101208a015160098a01556101408a0151600a8a01556101608a0151600b8a015561018090990151600c909801805460ff19169815159890981790975581518083019092529181529490960135918401918252845490810185559390915290517ff652222313e28459528d920b65115c16c04f3efc82aaedc97be59f3f377c0d3f929093029182019290925590517ff652222313e28459528d920b65115c16c04f3efc82aaedc97be59f3f377c0d4090910155565b5f8281526004602090815260408083206005835281842033808652935292208254909161192a916001600160a01b0316903086611abd565b82815f015f82825461193c9190611e7a565b909155505060098201548154670de0b6b3a76400009161195b91611e44565b6119659190611e5b565b816001018190555082826007015f8282546119809190611e7a565b90915550506007820154604080518581524260208201528082019290925251339186917f893e8a14c42d0303c66e296f4c3e4ed772edf8097f8d41ab8d08099654172ec09181900360600190a350505050565b5f81600201545f036119e657505f6115d3565b5f838152600460205260408120600b810154909103611a08575f9150506115d3565b600283015483545f91611a1a91611e44565b905081600b0154818360040154611a319190611e44565b6115ce9190611e5b565b6040516001600160a01b038381166024830152604482018390526116aa91859182169063a9059cbb906064015b604051602081830303815290604052915060e01b6020820180516001600160e01b038381831617835250505050611afc565b60025460ff1661064757604051638dfc202b60e01b815260040160405180910390fd5b6040516001600160a01b038481166024830152838116604483015260648201839052611af69186918216906323b872dd90608401611a68565b50505050565b5f611b106001600160a01b03841683611b5d565b905080515f14158015611b34575080806020019051810190611b329190611ea0565b155b156116aa57604051635274afe760e01b81526001600160a01b0384166004820152602401610455565b6060611b6a83835f611b71565b9392505050565b606081471015611b965760405163cd78605960e01b8152306004820152602401610455565b5f80856001600160a01b03168486604051611bb19190611f09565b5f6040518083038185875af1925050503d805f8114611beb576040519150601f19603f3d011682016040523d82523d5f602084013e611bf0565b606091505b5091509150611c00868383611c0a565b9695505050505050565b606082611c1f57611c1a82611c66565b611b6a565b8151158015611c3657506001600160a01b0384163b155b15611c5f57604051639996b31560e01b81526001600160a01b0385166004820152602401610455565b5080611b6a565b805115611c765780518082602001fd5b604051630a12f52160e11b815260040160405180910390fd5b80356001600160a01b0381168114611ca5575f80fd5b919050565b5f8060408385031215611cbb575f80fd5b82359150611ccb60208401611c8f565b90509250929050565b5f60208284031215611ce4575f80fd5b5035919050565b81516001600160a01b031681526101a081016020830151611d1760208401826001600160a01b03169052565b506040830151611d3260408401826001600160a01b03169052565b50606083015160608301526080830151608083015260a083015160a083015260c083015160c083015260e083015160e083015261010080840151818401525061012080840151818401525061014080840151818401525061016080840151818401525061018080840151611da98285018215159052565b505092915050565b5f60e08284031215611dc1575f80fd5b50919050565b5f8060408385031215611dd8575f80fd5b50508035926020909101359150565b5f60208284031215611df7575f80fd5b611b6a82611c8f565b60208082526016908201527514d95cdcda5bdb88191bd95cc81b9bdd08195e1a5cdd60521b604082015260600190565b634e487b7160e01b5f52601160045260245ffd5b80820281158282048414176115d3576115d3611e30565b5f82611e7557634e487b7160e01b5f52601260045260245ffd5b500490565b808201808211156115d3576115d3611e30565b818103818111156115d3576115d3611e30565b5f60208284031215611eb0575f80fd5b81518015158114611b6a575f80fd5b64ffffffffff8181168382160190808211156104cb576104cb611e30565b634e487b7160e01b5f52603260045260245ffd5b5f60018201611f0257611f02611e30565b5060010190565b5f82515f5b81811015611f285760208186018101518583015201611f0e565b505f92019182525091905056fea2646970667358221220291db6c7d1a4750f7fd657e55e772c5b49d66c2dd2666f09c7de981efd7fd94064736f6c63430008140033","linkReferences":{}},"methodIdentifiers":{"checkIn(uint256)":"e95a644f","createSession((address,address,address,uint256,uint256,uint256,uint256))":"ba604a27","currentSessionId()":"6597a130","deposit(uint256,uint256)":"e2bbb158","getSessionInfo(uint256)":"9e10acf0","getUserInfo(uint256,address)":"1069f3b5","owner()":"8da5cb5b","pause()":"8456cb59","paused()":"5c975abb","pendingCheckInReward(uint256,address)":"7763b0df","pendingReward(uint256,address)":"98969e82","renounceOwnership()":"715018a6","sessions(uint256)":"83c4b7a3","transferOwnership(address)":"f2fde38b","unpause()":"3f4ba83a","userInfo(uint256,address)":"93f1a40b","withdraw(uint256)":"2e1a7d4d"},"id":27}