{"abi":[{"type":"constructor","inputs":[{"name":"_initialOwner","type":"address","internalType":"address"}],"stateMutability":"nonpayable"},{"type":"function","name":"createSession","inputs":[{"name":"params","type":"tuple","internalType":"struct StakingSeparated.CreateSessionParams","components":[{"name":"stakingToken","type":"address","internalType":"address"},{"name":"rewardToken","type":"address","internalType":"address"},{"name":"checkInRewardToken","type":"address","internalType":"address"},{"name":"totalReward","type":"uint256","internalType":"uint256"},{"name":"checkInRewardPool","type":"uint256","internalType":"uint256"},{"name":"startTime","type":"uint256","internalType":"uint256"},{"name":"endTime","type":"uint256","internalType":"uint256"}]}],"outputs":[],"stateMutability":"nonpayable"},{"type":"function","name":"currentSessionId","inputs":[],"outputs":[{"name":"","type":"uint256","internalType":"uint256"}],"stateMutability":"view"},{"type":"function","name":"owner","inputs":[],"outputs":[{"name":"","type":"address","internalType":"address"}],"stateMutability":"view"},{"type":"function","name":"pause","inputs":[],"outputs":[],"stateMutability":"nonpayable"},{"type":"function","name":"paused","inputs":[],"outputs":[{"name":"","type":"bool","internalType":"bool"}],"stateMutability":"view"},{"type":"function","name":"renounceOwnership","inputs":[],"outputs":[],"stateMutability":"nonpayable"},{"type":"function","name":"sessions","inputs":[{"name":"","type":"uint256","internalType":"uint256"}],"outputs":[{"name":"stakingToken","type":"address","internalType":"address"},{"name":"rewardToken","type":"address","internalType":"address"},{"name":"checkInRewardToken","type":"address","internalType":"address"},{"name":"totalReward","type":"uint256","internalType":"uint256"},{"name":"checkInRewardPool","type":"uint256","internalType":"uint256"},{"name":"startTime","type":"uint256","internalType":"uint256"},{"name":"endTime","type":"uint256","internalType":"uint256"},{"name":"totalStaked","type":"uint256","internalType":"uint256"},{"name":"rewardPerSecond","type":"uint256","internalType":"uint256"},{"name":"accRewardPerShare","type":"uint256","internalType":"uint256"},{"name":"lastRewardTime","type":"uint256","internalType":"uint256"},{"name":"totalWeightedStake","type":"uint256","internalType":"uint256"},{"name":"active","type":"bool","internalType":"bool"}],"stateMutability":"view"},{"type":"function","name":"transferOwnership","inputs":[{"name":"newOwner","type":"address","internalType":"address"}],"outputs":[],"stateMutability":"nonpayable"},{"type":"function","name":"unpause","inputs":[],"outputs":[],"stateMutability":"nonpayable"},{"type":"event","name":"OwnershipTransferred","inputs":[{"name":"previousOwner","type":"address","indexed":true,"internalType":"address"},{"name":"newOwner","type":"address","indexed":true,"internalType":"address"}],"anonymous":false},{"type":"event","name":"Paused","inputs":[{"name":"account","type":"address","indexed":false,"internalType":"address"}],"anonymous":false},{"type":"event","name":"SessionCreated","inputs":[{"name":"sessionId","type":"uint256","indexed":true,"internalType":"uint256"},{"name":"stakingToken","type":"address","indexed":true,"internalType":"address"},{"name":"rewardToken","type":"address","indexed":true,"internalType":"address"},{"name":"checkInRewardToken","type":"address","indexed":false,"internalType":"address"},{"name":"totalReward","type":"uint256","indexed":false,"internalType":"uint256"},{"name":"checkInRewardPool","type":"uint256","indexed":false,"internalType":"uint256"},{"name":"startTime","type":"uint256","indexed":false,"internalType":"uint256"},{"name":"endTime","type":"uint256","indexed":false,"internalType":"uint256"}],"anonymous":false},{"type":"event","name":"Unpaused","inputs":[{"name":"account","type":"address","indexed":false,"internalType":"address"}],"anonymous":false},{"type":"error","name":"AddressEmptyCode","inputs":[{"name":"target","type":"address","internalType":"address"}]},{"type":"error","name":"AddressInsufficientBalance","inputs":[{"name":"account","type":"address","internalType":"address"}]},{"type":"error","name":"EnforcedPause","inputs":[]},{"type":"error","name":"ExpectedPause","inputs":[]},{"type":"error","name":"FailedInnerCall","inputs":[]},{"type":"error","name":"OwnableInvalidOwner","inputs":[{"name":"owner","type":"address","internalType":"address"}]},{"type":"error","name":"OwnableUnauthorizedAccount","inputs":[{"name":"account","type":"address","internalType":"address"}]},{"type":"error","name":"ReentrancyGuardReentrantCall","inputs":[]},{"type":"error","name":"SafeERC20FailedOperation","inputs":[{"name":"token","type":"address","internalType":"address"}]}],"bytecode":{"object":"0x608060405234801561000f575f80fd5b50604051610bcb380380610bcb83398101604081905261002e916100c9565b806001600160a01b03811661005c57604051631e4fbdf760e01b81525f600482015260240160405180910390fd5b6100658161007a565b5050600180556002805460ff191690556100f6565b5f80546001600160a01b038381166001600160a01b0319831681178455604051919092169283917f8be0079c531659141344cd1fd0a4f28419497f9722a3daafe3b4186f6b6457e09190a35050565b5f602082840312156100d9575f80fd5b81516001600160a01b03811681146100ef575f80fd5b9392505050565b610ac8806101035f395ff3fe608060405234801561000f575f80fd5b5060043610610090575f3560e01c806383c4b7a31161006357806383c4b7a3146100d85780638456cb59146101d05780638da5cb5b146101d8578063ba604a27146101f2578063f2fde38b14610205575f80fd5b80633f4ba83a146100945780635c975abb1461009e5780636597a130146100b9578063715018a6146100d0575b5f80fd5b61009c610218565b005b60025460ff1660405190151581526020015b60405180910390f35b6100c260035481565b6040519081526020016100b0565b61009c61022a565b61015d6100e6366004610996565b600460208190525f918252604090912080546001820154600283015460038401549484015460058501546006860154600787015460088801546009890154600a8a0154600b8b0154600c909b01546001600160a01b039a8b169c998b169b9a90981699969795969495939492939192909160ff168d565b604080516001600160a01b039e8f1681529c8e1660208e01529a909c16998b019990995260608a0197909752608089019590955260a088019390935260c087019190915260e08601526101008501526101208401526101408301526101608201529015156101808201526101a0016100b0565b61009c61023b565b5f546040516001600160a01b0390911681526020016100b0565b61009c6102003660046109ad565b61024b565b61009c6102133660046109c3565b61049a565b6102206104d7565b610228610503565b565b6102326104d7565b6102285f610555565b6102436104d7565b6102286105a4565b6102536104d7565b61025b6105e1565b428160a00135116102b35760405162461bcd60e51b815260206004820152601c60248201527f53746172742074696d65206d75737420626520696e206675747572650000000060448201526064015b60405180910390fd5b8060a001358160c00135116103145760405162461bcd60e51b815260206004820152602160248201527f456e642074696d65206d7573742062652061667465722073746172742074696d6044820152606560f81b60648201526084016102aa565b5f8160600135116103735760405162461bcd60e51b815260206004820152602360248201527f546f74616c20726577617264206d75737420626520677265617465722074686160448201526206e20360ec1b60648201526084016102aa565b5f8160800135116103d95760405162461bcd60e51b815260206004820152602a60248201527f436865636b496e2072657761726420706f6f6c206d75737420626520677265616044820152690746572207468616e20360b41b60648201526084016102aa565b6103e281610605565b6103eb8161064a565b6103fb60408201602083016109c3565b6001600160a01b031661041160208301836109c3565b6001600160a01b03166003547ff0bf75f9e537ccf1d0c0fa20533c3c4afad7f030f84c6bdd91c30c7da3dbc08984604001602081019061045191906109c3565b604080516001600160a01b0392909216825260608781013560208401526080808901358484015260a0808a01359285019290925260c0890135908401529051918290030190a450565b6104a26104d7565b6001600160a01b0381166104cb57604051631e4fbdf760e01b81525f60048201526024016102aa565b6104d481610555565b50565b5f546001600160a01b031633146102285760405163118cdaa760e01b81523360048201526024016102aa565b61050b610777565b6002805460ff191690557f5db9ee0a495bf2e6ff9c91a7834c1ba4fdd244a5e8aa4e537bd38aeae4b073aa335b6040516001600160a01b03909116815260200160405180910390a1565b5f80546001600160a01b038381166001600160a01b0319831681178455604051919092169283917f8be0079c531659141344cd1fd0a4f28419497f9722a3daafe3b4186f6b6457e09190a35050565b6105ac6105e1565b6002805460ff191660011790557f62e78cea01bee320cd4e420270b5ea74000d11b0c9f74754ebdbfc544b05a2586105383390565b60025460ff16156102285760405163d93c066560e01b815260040160405180910390fd5b6106303330606084013561061f60408601602087016109c3565b6001600160a01b031692919061079a565b6104d43330608084013561061f60608601604087016109c3565b60038054905f610659836109fd565b90915550506003545f9081526004602090815260409091209061067e908301836109c3565b81546001600160a01b0319166001600160a01b03919091161781556106a960408301602084016109c3565b6001820180546001600160a01b0319166001600160a01b03929092169190911790556106db60608301604084016109c3565b6002820180546001600160a01b0319166001600160a01b0392909216919091179055606082013560038201556080820135600482015560a08201356005820181905560c0830135600683018190555f60078401556107399190610a15565b610747906060840135610a28565b60088201555f6009820181905560a090920135600a820155600b810191909155600c01805460ff19166001179055565b60025460ff1661022857604051638dfc202b60e01b815260040160405180910390fd5b604080516001600160a01b0385811660248301528416604482015260648082018490528251808303909101815260849091019091526020810180516001600160e01b03166323b872dd60e01b1790526107f49085906107fa565b50505050565b5f61080e6001600160a01b03841683610860565b905080515f141580156108325750808060200190518101906108309190610a47565b155b1561085b57604051635274afe760e01b81526001600160a01b03841660048201526024016102aa565b505050565b606061086d83835f610876565b90505b92915050565b60608147101561089b5760405163cd78605960e01b81523060048201526024016102aa565b5f80856001600160a01b031684866040516108b69190610a66565b5f6040518083038185875af1925050503d805f81146108f0576040519150601f19603f3d011682016040523d82523d5f602084013e6108f5565b606091505b5091509150610905868383610911565b925050505b9392505050565b606082610926576109218261096d565b61090a565b815115801561093d57506001600160a01b0384163b155b1561096657604051639996b31560e01b81526001600160a01b03851660048201526024016102aa565b508061090a565b80511561097d5780518082602001fd5b604051630a12f52160e11b815260040160405180910390fd5b5f602082840312156109a6575f80fd5b5035919050565b5f60e082840312156109bd575f80fd5b50919050565b5f602082840312156109d3575f80fd5b81356001600160a01b038116811461090a575f80fd5b634e487b7160e01b5f52601160045260245ffd5b5f60018201610a0e57610a0e6109e9565b5060010190565b81810381811115610870576108706109e9565b5f82610a4257634e487b7160e01b5f52601260045260245ffd5b500490565b5f60208284031215610a57575f80fd5b8151801515811461090a575f80fd5b5f82515f5b81811015610a855760208186018101518583015201610a6b565b505f92019182525091905056fea2646970667358221220f586926b5f3010cec01b2475c29d7169d1d17733f4dd02d4e37c372b170586ed64736f6c63430008140033","linkReferences":{}},"methodIdentifiers":{"createSession((address,address,address,uint256,uint256,uint256,uint256))":"ba604a27","currentSessionId()":"6597a130","owner()":"8da5cb5b","pause()":"8456cb59","paused()":"5c975abb","renounceOwnership()":"715018a6","sessions(uint256)":"83c4b7a3","transferOwnership(address)":"f2fde38b","unpause()":"3f4ba83a"},"id":32}