{"abi":[{"type":"constructor","inputs":[{"name":"_initialOwner","type":"address","internalType":"address"}],"stateMutability":"nonpayable"},{"type":"function","name":"checkIn","inputs":[{"name":"_sessionId","type":"uint256","internalType":"uint256"}],"outputs":[],"stateMutability":"nonpayable"},{"type":"function","name":"createSession","inputs":[{"name":"params","type":"tuple","internalType":"struct Staking.CreateSessionParams","components":[{"name":"stakingToken","type":"address","internalType":"address"},{"name":"rewardToken","type":"address","internalType":"address"},{"name":"checkInRewardToken","type":"address","internalType":"address"},{"name":"totalReward","type":"uint256","internalType":"uint256"},{"name":"checkInRewardPool","type":"uint256","internalType":"uint256"},{"name":"startTime","type":"uint256","internalType":"uint256"},{"name":"endTime","type":"uint256","internalType":"uint256"}]}],"outputs":[],"stateMutability":"nonpayable"},{"type":"function","name":"currentSessionId","inputs":[],"outputs":[{"name":"","type":"uint256","internalType":"uint256"}],"stateMutability":"view"},{"type":"function","name":"deposit","inputs":[{"name":"_sessionId","type":"uint256","internalType":"uint256"},{"name":"_amount","type":"uint256","internalType":"uint256"}],"outputs":[],"stateMutability":"nonpayable"},{"type":"function","name":"getPendingRewards","inputs":[{"name":"_sessionId","type":"uint256","internalType":"uint256"},{"name":"_user","type":"address","internalType":"address"}],"outputs":[{"name":"stakingReward","type":"uint256","internalType":"uint256"},{"name":"boostReward","type":"uint256","internalType":"uint256"}],"stateMutability":"view"},{"type":"function","name":"getSessionInfo","inputs":[{"name":"_sessionId","type":"uint256","internalType":"uint256"}],"outputs":[{"name":"","type":"tuple","internalType":"struct Staking.Session","components":[{"name":"stakingToken","type":"address","internalType":"address"},{"name":"rewardToken","type":"address","internalType":"address"},{"name":"checkInRewardToken","type":"address","internalType":"address"},{"name":"totalReward","type":"uint256","internalType":"uint256"},{"name":"checkInRewardPool","type":"uint256","internalType":"uint256"},{"name":"startTime","type":"uint256","internalType":"uint256"},{"name":"endTime","type":"uint256","internalType":"uint256"},{"name":"totalStaked","type":"uint256","internalType":"uint256"},{"name":"rewardPerSecond","type":"uint256","internalType":"uint256"},{"name":"accRewardPerShare","type":"uint256","internalType":"uint256"},{"name":"lastRewardTime","type":"uint256","internalType":"uint256"},{"name":"totalBoostPoints","type":"uint256","internalType":"uint256"},{"name":"active","type":"bool","internalType":"bool"}]}],"stateMutability":"view"},{"type":"function","name":"getUserInfo","inputs":[{"name":"_sessionId","type":"uint256","internalType":"uint256"},{"name":"_user","type":"address","internalType":"address"}],"outputs":[{"name":"","type":"tuple","internalType":"struct Staking.UserInfo","components":[{"name":"amount","type":"uint256","internalType":"uint256"},{"name":"rewardDebt","type":"uint256","internalType":"uint256"},{"name":"accumulatedReward","type":"uint256","internalType":"uint256"},{"name":"boost","type":"uint256","internalType":"uint256"},{"name":"lastCheckInTime","type":"uint40","internalType":"uint40"},{"name":"hasWithdrawn","type":"bool","internalType":"bool"}]}],"stateMutability":"view"},{"type":"function","name":"owner","inputs":[],"outputs":[{"name":"","type":"address","internalType":"address"}],"stateMutability":"view"},{"type":"function","name":"pendingBoostReward","inputs":[{"name":"_sessionId","type":"uint256","internalType":"uint256"},{"name":"_user","type":"address","internalType":"address"}],"outputs":[{"name":"","type":"uint256","internalType":"uint256"}],"stateMutability":"view"},{"type":"function","name":"pendingReward","inputs":[{"name":"_sessionId","type":"uint256","internalType":"uint256"},{"name":"_user","type":"address","internalType":"address"}],"outputs":[{"name":"","type":"uint256","internalType":"uint256"}],"stateMutability":"view"},{"type":"function","name":"recoverUnusedBoostReward","inputs":[{"name":"_sessionId","type":"uint256","internalType":"uint256"}],"outputs":[],"stateMutability":"nonpayable"},{"type":"function","name":"renounceOwnership","inputs":[],"outputs":[],"stateMutability":"nonpayable"},{"type":"function","name":"sessions","inputs":[{"name":"","type":"uint256","internalType":"uint256"}],"outputs":[{"name":"stakingToken","type":"address","internalType":"address"},{"name":"rewardToken","type":"address","internalType":"address"},{"name":"checkInRewardToken","type":"address","internalType":"address"},{"name":"totalReward","type":"uint256","internalType":"uint256"},{"name":"checkInRewardPool","type":"uint256","internalType":"uint256"},{"name":"startTime","type":"uint256","internalType":"uint256"},{"name":"endTime","type":"uint256","internalType":"uint256"},{"name":"totalStaked","type":"uint256","internalType":"uint256"},{"name":"rewardPerSecond","type":"uint256","internalType":"uint256"},{"name":"accRewardPerShare","type":"uint256","internalType":"uint256"},{"name":"lastRewardTime","type":"uint256","internalType":"uint256"},{"name":"totalBoostPoints","type":"uint256","internalType":"uint256"},{"name":"active","type":"bool","internalType":"bool"}],"stateMutability":"view"},{"type":"function","name":"transferOwnership","inputs":[{"name":"newOwner","type":"address","internalType":"address"}],"outputs":[],"stateMutability":"nonpayable"},{"type":"function","name":"userInfo","inputs":[{"name":"","type":"uint256","internalType":"uint256"},{"name":"","type":"address","internalType":"address"}],"outputs":[{"name":"amount","type":"uint256","internalType":"uint256"},{"name":"rewardDebt","type":"uint256","internalType":"uint256"},{"name":"accumulatedReward","type":"uint256","internalType":"uint256"},{"name":"boost","type":"uint256","internalType":"uint256"},{"name":"lastCheckInTime","type":"uint40","internalType":"uint40"},{"name":"hasWithdrawn","type":"bool","internalType":"bool"}],"stateMutability":"view"},{"type":"function","name":"withdraw","inputs":[{"name":"_sessionId","type":"uint256","internalType":"uint256"}],"outputs":[],"stateMutability":"nonpayable"},{"type":"event","name":"CheckedIn","inputs":[{"name":"sessionId","type":"uint256","indexed":true,"internalType":"uint256"},{"name":"user","type":"address","indexed":true,"internalType":"address"},{"name":"timestamp","type":"uint256","indexed":false,"internalType":"uint256"}],"anonymous":false},{"type":"event","name":"Deposited","inputs":[{"name":"sessionId","type":"uint256","indexed":true,"internalType":"uint256"},{"name":"user","type":"address","indexed":true,"internalType":"address"},{"name":"amount","type":"uint256","indexed":false,"internalType":"uint256"},{"name":"timestamp","type":"uint256","indexed":false,"internalType":"uint256"},{"name":"totalStaked","type":"uint256","indexed":false,"internalType":"uint256"}],"anonymous":false},{"type":"event","name":"OwnershipTransferred","inputs":[{"name":"previousOwner","type":"address","indexed":true,"internalType":"address"},{"name":"newOwner","type":"address","indexed":true,"internalType":"address"}],"anonymous":false},{"type":"event","name":"SessionCreated","inputs":[{"name":"sessionId","type":"uint256","indexed":true,"internalType":"uint256"},{"name":"stakingToken","type":"address","indexed":true,"internalType":"address"},{"name":"rewardToken","type":"address","indexed":true,"internalType":"address"},{"name":"checkInRewardToken","type":"address","indexed":false,"internalType":"address"},{"name":"totalReward","type":"uint256","indexed":false,"internalType":"uint256"},{"name":"checkInRewardPool","type":"uint256","indexed":false,"internalType":"uint256"},{"name":"startTime","type":"uint256","indexed":false,"internalType":"uint256"},{"name":"endTime","type":"uint256","indexed":false,"internalType":"uint256"}],"anonymous":false},{"type":"event","name":"Withdrawn","inputs":[{"name":"sessionId","type":"uint256","indexed":true,"internalType":"uint256"},{"name":"user","type":"address","indexed":true,"internalType":"address"},{"name":"stakedAmount","type":"uint256","indexed":false,"internalType":"uint256"},{"name":"rewardAmount","type":"uint256","indexed":false,"internalType":"uint256"},{"name":"checkInReward","type":"uint256","indexed":false,"internalType":"uint256"},{"name":"timestamp","type":"uint256","indexed":false,"internalType":"uint256"}],"anonymous":false},{"type":"error","name":"AddressEmptyCode","inputs":[{"name":"target","type":"address","internalType":"address"}]},{"type":"error","name":"AddressInsufficientBalance","inputs":[{"name":"account","type":"address","internalType":"address"}]},{"type":"error","name":"FailedInnerCall","inputs":[]},{"type":"error","name":"OwnableInvalidOwner","inputs":[{"name":"owner","type":"address","internalType":"address"}]},{"type":"error","name":"OwnableUnauthorizedAccount","inputs":[{"name":"account","type":"address","internalType":"address"}]},{"type":"error","name":"ReentrancyGuardReentrantCall","inputs":[]},{"type":"error","name":"SafeERC20FailedOperation","inputs":[{"name":"token","type":"address","internalType":"address"}]}],"bytecode":{"object":"0x6080346100c157601f611cd538819003918201601f19168301916001600160401b038311848410176100c5578084926020946040528339810103126100c157516001600160a01b0390818116908190036100c15780156100a9575f80546001600160a01b03198116831782556040519316907f8be0079c531659141344cd1fd0a4f28419497f9722a3daafe3b4186f6b6457e09080a3600180555f600255611bfb90816100da8239f35b604051631e4fbdf760e01b81525f6004820152602490fd5b5f80fd5b634e487b7160e01b5f52604160045260245ffdfe6080806040526004361015610012575f80fd5b5f3560e01c9081631069f3b514611465575080632e1a7d4d146112745780635273cd89146111455780636597a13014611128578063715018a6146110d157806373cb07d81461106657806383c4b7a314610fa557806385dc0aaf14610e565780638da5cb5b14610e2f57806393f1a40b14610daa57806398969e8214610c5f5780639e10acf014610a80578063ba604a2714610518578063e2bbb15814610375578063e95a644f1461015c5763f2fde38b146100cc575f80fd5b34610158576020366003190112610158576004356001600160a01b0381811691829003610158576100fb611584565b8115610140575f54826bffffffffffffffffffffffff60a01b8216175f55167f8be0079c531659141344cd1fd0a4f28419497f9722a3daafe3b4186f6b6457e05f80a3005b604051631e4fbdf760e01b81525f6004820152602490fd5b5f80fd5b346101585760208060031936011261015857600435610179611904565b80151580610369575b61018b906117fd565b805f52600382526101b5600660405f206101ab6005820154421015611886565b01544211156118c8565b805f526004825260405f20335f52825260405f20815f526003835260405f2090805490674563918244f40000821061031857600481019264ffffffffff9261012c848654160184811161030457841642106102bf5761021390611af9565b91821561027c5761023a916003600b920161022f858254611927565b905501918254611927565b9055421664ffffffffff198254161790557f6b2e4e52ba8b5cff4a90d18b1efd0f88c74ed562b5dd3b13f01a1759699b2db2604051924284523393a360018055005b6064876040519062461bcd60e51b825280600483015260248201527f5374616b656420616d6f756e742062656c6f77206d696e696d756d20746965726044820152fd5b60405162461bcd60e51b815260048101889052601d60248201527f436865636b2d696e20636f6f6c646f776e206e6f7420657870697265640000006044820152606490fd5b634e487b7160e01b5f52601160045260245ffd5b60405162461bcd60e51b8152600481018690526024808201527f4d757374207374616b65206174206c656173742035204c5020746f20636865636044820152633596b4b760e11b6064820152608490fd5b50600254811115610182565b3461015857604036600319011261015857602435600435610394611904565b8015158061050c575b6103a6906117fd565b805f526020600381526103c8600660405f206101ab6005820154421015611886565b82156104c8576103d782611a07565b815f5260038152600760405f206004835260405f20335f52835260405f2061040c8660018060a01b0384541630903390611646565b6001670de0b6b3a764000061043861042a8985548061048857611927565b808555600986015490611934565b049101550190610449848354611927565b809255604051938452429084015260408301527f893e8a14c42d0303c66e296f4c3e4ed772edf8097f8d41ab8d08099654172ec060603393a360018055005b6104a58561049a60098b015484611934565b048789015490611965565b806104b1575b50611927565b6104c060028901918254611927565b90558c6104ab565b6064906040519062461bcd60e51b82526004820152601d60248201527f416d6f756e74206d7573742062652067726561746572207468616e20300000006044820152fd5b5060025481111561039d565b346101585760e036600319011261015857610531611584565b4260a4351115610a3b5760c43560a4358111156109ec57606435801561099b576084358015610943576005548015610928575f1981019081116103045761057790611972565b506001604051916105878361162a565b80548352015460208201525b602081015160a43510908161091d575b506108c45760025480610863575b506105d0826001600160a01b036105c66115af565b1630903390611646565b6105ec8130336001600160a01b036105e66115c5565b16611646565b6002545f198114610304576001810160025560016106086115db565b916106116115af565b6106196115c5565b61062e61062860a4358a611965565b88611947565b916040519561063c8761160d565b858060a01b03168652848060a01b03166020860152838060a01b0316604085015285606085015284608085015260a43560a08501528660c08501525f60e08501526101008401525f61012084015260a4356101408401525f61016084015281610180840152015f526003602052610180600c60405f2060018060a01b038451166bffffffffffffffffffffffff60a01b90818354161782556001820160018060a01b0360208701511682825416179055600282019060018060a01b0360408701511690825416179055606084015160038201556080840151600482015560a0840151600582015560c0840151600682015560e0840151600782015561010084015160088201556101208401516009820155610140840151600a820155610160840151600b82015501910151151560ff801983541691161790556040516107818161162a565b60a435815260208101908482526005546801000000000000000081101561084f578060016107b29201600555611972565b92909261083c57600191518355519101557ff0bf75f9e537ccf1d0c0fa20533c3c4afad7f030f84c6bdd91c30c7da3dbc08960a0600254926107f26115db565b956107fb6115af565b916108046115c5565b9660405197600180871b031688526020880152604087015260a43560608701526080860152600180831b031694600180831b031693a4005b634e487b7160e01b5f525f60045260245ffd5b634e487b7160e01b5f52604160045260245ffd5b5f526003602052600660405f20015442111561087f57836105b1565b60405162461bcd60e51b815260206004820152601a60248201527f50726576696f75732073657373696f6e206e6f7420656e6465640000000000006044820152606490fd5b60405162461bcd60e51b815260206004820152602b60248201527f53657373696f6e2074696d65206f7665726c617073207769746820657869737460448201526a34b7339039b2b9b9b4b7b760a91b6064820152608490fd5b9050518311846105a3565b506040516109358161162a565b5f81525f6020820152610593565b60405162461bcd60e51b815260206004820152602a60248201527f436865636b496e2072657761726420706f6f6c206d75737420626520677265616044820152690746572207468616e20360b41b6064820152608490fd5b60405162461bcd60e51b815260206004820152602360248201527f546f74616c20726577617264206d75737420626520677265617465722074686160448201526206e20360ec1b6064820152608490fd5b60405162461bcd60e51b815260206004820152602160248201527f456e642074696d65206d7573742062652061667465722073746172742074696d6044820152606560f81b6064820152608490fd5b60405162461bcd60e51b815260206004820152601c60248201527f53746172742074696d65206d75737420626520696e20667574757265000000006044820152606490fd5b34610158576020366003190112610158575f610180604051610aa18161160d565b8281528260208201528260408201528260608201528260808201528260a08201528260c08201528260e082015282610100820152826101208201528261014082015282610160820152015260043580151580610c53575b610b01906117fd565b5f5260036020526101a060405f20610180604051610b1e8161160d565b60ff600c60018060a01b038554169485845260018060a01b03600182015416602085015260018060a01b0360028201541660408501526003810154606085015260048101546080850152600581015460a0850152600681015460c0850152600781015460e085015260088101546101008501526009810154610120850152600a810154610140850152600b81015461016085015201541615158282015260405192835260018060a01b03602082015116602084015260018060a01b036040820151166040840152606081015160608401526080810151608084015260a081015160a084015260c081015160c084015260e081015160e084015261010081015161010084015261012081015161012084015261014081015161014084015261016081015161016084015201511515610180820152f35b50600254811115610af8565b3461015857604036600319011261015857600435610c7b61156e565b81151580610d9e575b610c8d906117fd565b815f52600360205260405f2090600460205260405f209060018060a01b03165f5260205260405f2060028101549181549081610ccf575b602084604051908152f35b600981015494600a8201549081421180610d91575b610d23575b505050610d1b92916001670de0b6b3a7640000610d0b602097610d1595611934565b0491015490611965565b90611927565b828080610cc4565b610d3f91610d349196959396611ac6565b600886015490611934565b670de0b6b3a76400009081810291818304149015171561030457670de0b6b3a7640000610d0b610d1594610d83602099610d156001966007610d1b9c015490611947565b985094505082949550610ce9565b5060078301541515610ce4565b50600254821115610c84565b3461015857604036600319011261015857610dc361156e565b6004355f52600460205260405f209060018060a01b03165f5260205260c060405f2060ff8154916001810154906002810154600460038301549201549260405195865260208601526040850152606084015264ffffffffff8116608084015260281c16151560a0820152f35b34610158575f366003190112610158575f546040516001600160a01b039091168152602090f35b3461015857604036600319011261015857600435610e7261156e565b81151580610f99575b610e84906117fd565b815f52600360205260405f2090600460205260405f209060018060a01b03165f5260205260405f20600281015491815480610ed3575b604084610ec785886119be565b82519182526020820152f35b600982959492015494600a81015480421180610f8c575b610f27575b5050610ec79291610d15670de0b6b3a7640000610f11604098610f1d95611934565b04600185015490611965565b9293819250610eba565b610d34610f38918796959396611ac6565b670de0b6b3a76400009081810291818304149015171561030457670de0b6b3a7640000610f11610f1d94610f7d60409a610d15610d15966007610ec79c015490611947565b99509450505081939450610eef565b5060078201541515610eea565b50600254821115610e7b565b34610158576020366003190112610158576004355f5260036020526101a060405f2060018060a01b03808254169181600182015416916002820154166003820154600483015460058401546006850154600786015491600887015493600988015495600a8901549760ff600c600b8c01549b0154169a6040519c8d5260208d015260408c015260608b015260808a015260a089015260c088015260e08701526101008601526101208501526101408401526101608301521515610180820152f35b346101585760403660031901126101585760206110bd60043561108761156e565b811515806110c5575b611099906117fd565b5f8281526004855260408082206001600160a01b03909316825291855220906119be565b604051908152f35b50600254821115611090565b34610158575f366003190112610158576110e9611584565b5f80546001600160a01b0319811682556001600160a01b03167f8be0079c531659141344cd1fd0a4f28419497f9722a3daafe3b4186f6b6457e08280a3005b34610158575f366003190112610158576020600254604051908152f35b3461015857602036600319011261015857600435611161611584565b80151580611268575b611173906117fd565b805f52600360205261118d600660405f2001544211611842565b5f52600360205260405f20600b810154611218576004810180549081156111d3575f9081905560029092015491546111d1926001600160a01b039182169116611b67565b005b60405162461bcd60e51b815260206004820152601a60248201527f4e6f20626f6f73742072657761726420746f207265636f7665720000000000006044820152606490fd5b60405162461bcd60e51b815260206004820152602260248201527f426f6f737420706f696e74732065786973742c2063616e6e6f74207265636f7660448201526132b960f11b6064820152608490fd5b5060025481111561116a565b346101585760208060031936011261015857600435611291611904565b80151580611459575b6112a3906117fd565b805f52600382526112bc600660405f2001544211611842565b805f526004825260405f20335f52825260405f2080541561142157600481019060ff825460281c166113e8576112f183611a07565b825f526003845260405f2093600282015494611339611332845497610d15670de0b6b3a764000061132660098701548c611934565b04600188015490611965565b93866119be565b845465ff00000000001916650100000000001790945580546001600160a01b0391859161136b90899033908616611b67565b846113d2575b816113ba575b50505060405194855284015260408301524260608301527f34b356a06378218b842d641adfef56661747ff542e604819d25228012735412360803393a360018055005b6113ca9260023392015416611b67565b858381611377565b6113e3853385600185015416611b67565b611371565b60405162461bcd60e51b815260048101859052601160248201527020b63932b0b23c903bb4ba34323930bbb760791b6044820152606490fd5b60405162461bcd60e51b815260048101849052601060248201526f139bc81cdd185ad95908185b5bdd5b9d60821b6044820152606490fd5b5060025481111561129a565b34610158576040366003190112610158576004355f60a061148461156e565b9361148e816115f1565b828152826020820152826040820152826060820152826080820152015280151580611562575b6114bd906117fd565b5f52600460205260405f209060018060a01b03165f5260205260c060405f20604051906114e9826115f1565b80549182815260018201546020820190815260028301549260408301938452600460038201549160608501928352015493608084019260ff60a064ffffffffff968789168752019660281c16151586526040519687525160208701525160408601525160608501525116608083015251151560a0820152f35b506002548111156114b4565b602435906001600160a01b038216820361015857565b5f546001600160a01b0316330361159757565b60405163118cdaa760e01b8152336004820152602490fd5b6024356001600160a01b03811681036101585790565b6044356001600160a01b03811681036101585790565b6004356001600160a01b03811681036101585790565b60c0810190811067ffffffffffffffff82111761084f57604052565b6101a0810190811067ffffffffffffffff82111761084f57604052565b6040810190811067ffffffffffffffff82111761084f57604052565b6040516323b872dd60e01b60208201526001600160a01b03928316602482015292909116604483015260648083019390935291815260a081019181831067ffffffffffffffff84111761084f5761169f926040526116a1565b565b60018060a01b0316905f80826020829451910182865af13d1561178e5767ffffffffffffffff903d82811161177a5760405192601f8201601f19908116603f011684019081118482101761176657604052825261170791903d84602084013e5b8461179a565b908151918215159283611737575b50505061171f5750565b60249060405190635274afe760e01b82526004820152fd5b81929350906020918101031261176257602001519081159182150361175f57505f8080611715565b80fd5b5080fd5b634e487b7160e01b85526041600452602485fd5b634e487b7160e01b84526041600452602484fd5b61170790606090611701565b906117c157508051156117af57805190602001fd5b604051630a12f52160e11b8152600490fd5b815115806117f4575b6117d2575090565b604051639996b31560e01b81526001600160a01b039091166004820152602490fd5b50803b156117ca565b1561180457565b60405162461bcd60e51b815260206004820152601660248201527514d95cdcda5bdb88191bd95cc81b9bdd08195e1a5cdd60521b6044820152606490fd5b1561184957565b60405162461bcd60e51b815260206004820152601560248201527414d95cdcda5bdb881b9bdd08195b991959081e595d605a1b6044820152606490fd5b1561188d57565b60405162461bcd60e51b815260206004820152601360248201527214d95cdcda5bdb881b9bdd081cdd185c9d1959606a1b6044820152606490fd5b156118cf57565b60405162461bcd60e51b815260206004820152600d60248201526c14d95cdcda5bdb88195b991959609a1b6044820152606490fd5b600260015414611915576002600155565b604051633ee5aeb560e01b8152600490fd5b9190820180921161030457565b8181029291811591840414171561030457565b8115611951570490565b634e487b7160e01b5f52601260045260245ffd5b9190820391821161030457565b6005548110156119aa5760055f5260011b7f036b6384b5eca791c62761152d0c79bb0604c104a5fb6f4eb0703f3154bb3db001905f90565b634e487b7160e01b5f52603260045260245ffd5b5f526003602052600360405f20910154908115611a0157600b8101549081156119fa576119f79260046119f2920154611934565b611947565b90565b5050505f90565b50505f90565b5f818152600360205260408120600a8101928354421115611ac0576007820154908115611aab57611a3d611a4891865490611ac6565b600884015490611934565b670de0b6b3a764000090818102918183041490151715611a975760069291611a6f91611947565b611a7e60098301918254611927565b9055015490508042115f14611a91579055565b50429055565b634e487b7160e01b84526011600452602484fd5b50506006015490508042115f14611a91579055565b50505050565b5f526003602052600660405f2001548042115f14611af157905b80821115611a01576119f791611965565b504290611ae0565b6802b5e3af16b18800008110611b0f5750600590565b6801a055690d9db800008110611b255750600490565b6801158e460913d000008110611b3b5750600390565b678ac7230489e800008110611b505750600290565b674563918244f4000011611b6357600190565b5f90565b91908115611bc05760405163a9059cbb60e01b60208201526001600160a01b039182166024820152604480820193909352918252608082019267ffffffffffffffff84118385101761084f5761169f93604052166116a1565b50505056fea26469706673582212209d34fa8e6ae9b8f845f4a5e6b3fc174d3e6b502c68a3568532fd86a5dea6f6f664736f6c63430008140033","linkReferences":{}},"methodIdentifiers":{"checkIn(uint256)":"e95a644f","createSession((address,address,address,uint256,uint256,uint256,uint256))":"ba604a27","currentSessionId()":"6597a130","deposit(uint256,uint256)":"e2bbb158","getPendingRewards(uint256,address)":"85dc0aaf","getSessionInfo(uint256)":"9e10acf0","getUserInfo(uint256,address)":"1069f3b5","owner()":"8da5cb5b","pendingBoostReward(uint256,address)":"73cb07d8","pendingReward(uint256,address)":"98969e82","recoverUnusedBoostReward(uint256)":"5273cd89","renounceOwnership()":"715018a6","sessions(uint256)":"83c4b7a3","transferOwnership(address)":"f2fde38b","userInfo(uint256,address)":"93f1a40b","withdraw(uint256)":"2e1a7d4d"},"id":29}