{"abi":[{"type":"constructor","inputs":[{"name":"_initialOwner","type":"address","internalType":"address"}],"stateMutability":"nonpayable"},{"type":"function","name":"checkIn","inputs":[{"name":"_sessionId","type":"uint256","internalType":"uint256"}],"outputs":[],"stateMutability":"nonpayable"},{"type":"function","name":"createSession","inputs":[{"name":"params","type":"tuple","internalType":"struct Staking.CreateSessionParams","components":[{"name":"stakingToken","type":"address","internalType":"address"},{"name":"rewardToken","type":"address","internalType":"address"},{"name":"checkInRewardToken","type":"address","internalType":"address"},{"name":"totalReward","type":"uint256","internalType":"uint256"},{"name":"checkInRewardPool","type":"uint256","internalType":"uint256"},{"name":"startTime","type":"uint256","internalType":"uint256"},{"name":"endTime","type":"uint256","internalType":"uint256"}]}],"outputs":[],"stateMutability":"nonpayable"},{"type":"function","name":"currentSessionId","inputs":[],"outputs":[{"name":"","type":"uint256","internalType":"uint256"}],"stateMutability":"view"},{"type":"function","name":"deposit","inputs":[{"name":"_sessionId","type":"uint256","internalType":"uint256"},{"name":"_amount","type":"uint256","internalType":"uint256"}],"outputs":[],"stateMutability":"nonpayable"},{"type":"function","name":"getBoostRewardBreakdown","inputs":[{"name":"_sessionId","type":"uint256","internalType":"uint256"},{"name":"_user","type":"address","internalType":"address"}],"outputs":[{"name":"stakeReward","type":"uint256","internalType":"uint256"},{"name":"hybridReward","type":"uint256","internalType":"uint256"}],"stateMutability":"view"},{"type":"function","name":"getPendingRewards","inputs":[{"name":"_sessionId","type":"uint256","internalType":"uint256"},{"name":"_user","type":"address","internalType":"address"}],"outputs":[{"name":"stakingReward","type":"uint256","internalType":"uint256"},{"name":"boostReward","type":"uint256","internalType":"uint256"}],"stateMutability":"view"},{"type":"function","name":"getSessionInfo","inputs":[{"name":"_sessionId","type":"uint256","internalType":"uint256"}],"outputs":[{"name":"","type":"tuple","internalType":"struct Staking.Session","components":[{"name":"stakingToken","type":"address","internalType":"address"},{"name":"rewardToken","type":"address","internalType":"address"},{"name":"checkInRewardToken","type":"address","internalType":"address"},{"name":"totalReward","type":"uint256","internalType":"uint256"},{"name":"checkInRewardPool","type":"uint256","internalType":"uint256"},{"name":"startTime","type":"uint256","internalType":"uint256"},{"name":"endTime","type":"uint256","internalType":"uint256"},{"name":"totalStaked","type":"uint256","internalType":"uint256"},{"name":"rewardPerSecond","type":"uint256","internalType":"uint256"},{"name":"accRewardPerShare","type":"uint256","internalType":"uint256"},{"name":"lastRewardTime","type":"uint256","internalType":"uint256"},{"name":"totalWeightedStake","type":"uint256","internalType":"uint256"},{"name":"totalBoostPoints","type":"uint256","internalType":"uint256"},{"name":"gamma","type":"uint256","internalType":"uint256"},{"name":"active","type":"bool","internalType":"bool"}]}],"stateMutability":"view"},{"type":"function","name":"getUserInfo","inputs":[{"name":"_sessionId","type":"uint256","internalType":"uint256"},{"name":"_user","type":"address","internalType":"address"}],"outputs":[{"name":"","type":"tuple","internalType":"struct Staking.UserInfo","components":[{"name":"amount","type":"uint256","internalType":"uint256"},{"name":"rewardDebt","type":"uint256","internalType":"uint256"},{"name":"accumulatedReward","type":"uint256","internalType":"uint256"},{"name":"boost","type":"uint256","internalType":"uint256"},{"name":"lastCheckInTime","type":"uint40","internalType":"uint40"},{"name":"hasWithdrawn","type":"bool","internalType":"bool"}]}],"stateMutability":"view"},{"type":"function","name":"owner","inputs":[],"outputs":[{"name":"","type":"address","internalType":"address"}],"stateMutability":"view"},{"type":"function","name":"pendingBoostReward","inputs":[{"name":"_sessionId","type":"uint256","internalType":"uint256"},{"name":"_user","type":"address","internalType":"address"}],"outputs":[{"name":"","type":"uint256","internalType":"uint256"}],"stateMutability":"view"},{"type":"function","name":"pendingReward","inputs":[{"name":"_sessionId","type":"uint256","internalType":"uint256"},{"name":"_user","type":"address","internalType":"address"}],"outputs":[{"name":"","type":"uint256","internalType":"uint256"}],"stateMutability":"view"},{"type":"function","name":"renounceOwnership","inputs":[],"outputs":[],"stateMutability":"nonpayable"},{"type":"function","name":"sessions","inputs":[{"name":"","type":"uint256","internalType":"uint256"}],"outputs":[{"name":"stakingToken","type":"address","internalType":"address"},{"name":"rewardToken","type":"address","internalType":"address"},{"name":"checkInRewardToken","type":"address","internalType":"address"},{"name":"totalReward","type":"uint256","internalType":"uint256"},{"name":"checkInRewardPool","type":"uint256","internalType":"uint256"},{"name":"startTime","type":"uint256","internalType":"uint256"},{"name":"endTime","type":"uint256","internalType":"uint256"},{"name":"totalStaked","type":"uint256","internalType":"uint256"},{"name":"rewardPerSecond","type":"uint256","internalType":"uint256"},{"name":"accRewardPerShare","type":"uint256","internalType":"uint256"},{"name":"lastRewardTime","type":"uint256","internalType":"uint256"},{"name":"totalWeightedStake","type":"uint256","internalType":"uint256"},{"name":"totalBoostPoints","type":"uint256","internalType":"uint256"},{"name":"gamma","type":"uint256","internalType":"uint256"},{"name":"active","type":"bool","internalType":"bool"}],"stateMutability":"view"},{"type":"function","name":"setGamma","inputs":[{"name":"_sessionId","type":"uint256","internalType":"uint256"},{"name":"_gamma","type":"uint256","internalType":"uint256"}],"outputs":[],"stateMutability":"nonpayable"},{"type":"function","name":"transferOwnership","inputs":[{"name":"newOwner","type":"address","internalType":"address"}],"outputs":[],"stateMutability":"nonpayable"},{"type":"function","name":"userInfo","inputs":[{"name":"","type":"uint256","internalType":"uint256"},{"name":"","type":"address","internalType":"address"}],"outputs":[{"name":"amount","type":"uint256","internalType":"uint256"},{"name":"rewardDebt","type":"uint256","internalType":"uint256"},{"name":"accumulatedReward","type":"uint256","internalType":"uint256"},{"name":"boost","type":"uint256","internalType":"uint256"},{"name":"lastCheckInTime","type":"uint40","internalType":"uint40"},{"name":"hasWithdrawn","type":"bool","internalType":"bool"}],"stateMutability":"view"},{"type":"function","name":"withdraw","inputs":[{"name":"_sessionId","type":"uint256","internalType":"uint256"}],"outputs":[],"stateMutability":"nonpayable"},{"type":"event","name":"CheckedIn","inputs":[{"name":"sessionId","type":"uint256","indexed":true,"internalType":"uint256"},{"name":"user","type":"address","indexed":true,"internalType":"address"},{"name":"timestamp","type":"uint256","indexed":false,"internalType":"uint256"}],"anonymous":false},{"type":"event","name":"Deposited","inputs":[{"name":"sessionId","type":"uint256","indexed":true,"internalType":"uint256"},{"name":"user","type":"address","indexed":true,"internalType":"address"},{"name":"amount","type":"uint256","indexed":false,"internalType":"uint256"},{"name":"timestamp","type":"uint256","indexed":false,"internalType":"uint256"},{"name":"totalStaked","type":"uint256","indexed":false,"internalType":"uint256"}],"anonymous":false},{"type":"event","name":"OwnershipTransferred","inputs":[{"name":"previousOwner","type":"address","indexed":true,"internalType":"address"},{"name":"newOwner","type":"address","indexed":true,"internalType":"address"}],"anonymous":false},{"type":"event","name":"SessionCreated","inputs":[{"name":"sessionId","type":"uint256","indexed":true,"internalType":"uint256"},{"name":"stakingToken","type":"address","indexed":true,"internalType":"address"},{"name":"rewardToken","type":"address","indexed":true,"internalType":"address"},{"name":"checkInRewardToken","type":"address","indexed":false,"internalType":"address"},{"name":"totalReward","type":"uint256","indexed":false,"internalType":"uint256"},{"name":"checkInRewardPool","type":"uint256","indexed":false,"internalType":"uint256"},{"name":"startTime","type":"uint256","indexed":false,"internalType":"uint256"},{"name":"endTime","type":"uint256","indexed":false,"internalType":"uint256"}],"anonymous":false},{"type":"event","name":"Withdrawn","inputs":[{"name":"sessionId","type":"uint256","indexed":true,"internalType":"uint256"},{"name":"user","type":"address","indexed":true,"internalType":"address"},{"name":"stakedAmount","type":"uint256","indexed":false,"internalType":"uint256"},{"name":"rewardAmount","type":"uint256","indexed":false,"internalType":"uint256"},{"name":"checkInReward","type":"uint256","indexed":false,"internalType":"uint256"},{"name":"timestamp","type":"uint256","indexed":false,"internalType":"uint256"}],"anonymous":false},{"type":"error","name":"AddressEmptyCode","inputs":[{"name":"target","type":"address","internalType":"address"}]},{"type":"error","name":"AddressInsufficientBalance","inputs":[{"name":"account","type":"address","internalType":"address"}]},{"type":"error","name":"FailedInnerCall","inputs":[]},{"type":"error","name":"OwnableInvalidOwner","inputs":[{"name":"owner","type":"address","internalType":"address"}]},{"type":"error","name":"OwnableUnauthorizedAccount","inputs":[{"name":"account","type":"address","internalType":"address"}]},{"type":"error","name":"ReentrancyGuardReentrantCall","inputs":[]},{"type":"error","name":"SafeERC20FailedOperation","inputs":[{"name":"token","type":"address","internalType":"address"}]}],"bytecode":{"object":"0x6080346100c157601f611f7438819003918201601f19168301916001600160401b038311848410176100c5578084926020946040528339810103126100c157516001600160a01b0390818116908190036100c15780156100a9575f80546001600160a01b03198116831782556040519316907f8be0079c531659141344cd1fd0a4f28419497f9722a3daafe3b4186f6b6457e09080a3600180555f600255611e9a90816100da8239f35b604051631e4fbdf760e01b81525f6004820152602490fd5b5f80fd5b634e487b7160e01b5f52604160045260245ffdfe6080806040526004361015610012575f80fd5b5f3560e01c9081631069f3b5146115245750806318eb29321461142f5780632e1a7d4d146112045780636597a130146111e7578063715018a61461119057806373cb07d81461112557806383c4b7a31461104857806385dc0aaf14610f055780638da5cb5b14610ede57806393f1a40b14610e5957806398969e8214610d0e5780639e10acf014610af3578063ba604a2714610586578063c5af161e14610535578063e2bbb15814610349578063e95a644f146101675763f2fde38b146100d7575f80fd5b34610163576020366003190112610163576004356001600160a01b038181169182900361016357610106611659565b811561014b575f54826bffffffffffffffffffffffff60a01b8216175f55167f8be0079c531659141344cd1fd0a4f28419497f9722a3daafe3b4186f6b6457e05f80a3005b604051631e4fbdf760e01b81525f6004820152602490fd5b5f80fd5b346101635760208060031936011261016357600435610184611995565b8015158061033d575b610196906118d2565b805f52600382526101c0600660405f206101b66005820154421015611917565b0154421115611959565b805f526004825260405f20335f52825260405f20815f526003835260405f2090805480156102f857600482019264ffffffffff9261012c848654160184811161029f57841642106102b35760030180549261021b84826119b8565b916001850180951161029f578461024d92600c9661023993556119b8565b610248600b85019384546119d8565b6119cb565b9055018054906001820180921161029f5755421664ffffffffff198254161790557f6b2e4e52ba8b5cff4a90d18b1efd0f88c74ed562b5dd3b13f01a1759699b2db2604051924284523393a360018055005b634e487b7160e01b5f52601160045260245ffd5b60405162461bcd60e51b815260048101889052601d60248201527f436865636b2d696e20636f6f6c646f776e206e6f7420657870697265640000006044820152606490fd5b60405162461bcd60e51b815260048101869052601a60248201527f4d757374207374616b65206265666f726520636865636b2d696e0000000000006044820152606490fd5b5060025481111561018d565b346101635761035736611643565b90610360611995565b80151580610529575b610372906118d2565b805f52602060038152610394600660405f206101b66005820154421015611917565b82156104e5576103a382611d14565b815f5260038152600760405f206004835260405f20335f52835260405f206103d88660018060a01b038454163090339061171b565b80548061049c575b600382015480610464575b50506001670de0b6b3a76400006104146104068985546119cb565b8085556009860154906119b8565b0491015501906104258483546119cb565b809255604051938452429084015260408301527f893e8a14c42d0303c66e296f4c3e4ed772edf8097f8d41ab8d08099654172ec060603393a360018055005b6104848161047f8a61047961049395876119b8565b956119cb565b6119b8565b610248600b86019384546119d8565b905586806103eb565b6104c2670de0b6b3a76400006104b66009860154846119b8565b046001840154906119d8565b806104ce575b506103e0565b6104dd600284019182546119cb565b9055876104c8565b6064906040519062461bcd60e51b82526004820152601d60248201527f416d6f756e74206d7573742062652067726561746572207468616e20300000006044820152fd5b50600254811115610369565b3461016357604036600319011261016357604061056e60043561055661162d565b908015158061057a575b610569906118d2565b611a03565b82519182526020820152f35b50600254811115610560565b346101635760e03660031901126101635761059f611659565b60a43542811115610aae5760c43581811115610a5f576064908135918215610a0f5760849081359182156109ba576005545f5b81811061091557505050600254806108b7575b506106069050836001600160a01b036105fc611684565b163090339061171b565b6106228130336001600160a01b0361061c61169a565b1661171b565b61062d600254611b84565b806002556106396116b0565b90610642611684565b61064a61169a565b61065d61065789886119d8565b886119e5565b916040519461066b866116e2565b60018060a01b0316855260018060a01b0316602085015260018060a01b031660408401528560608401528360808401528660a08401528460c08401525f60e08401526101008301525f610120830152856101408301525f6101608301525f610180830152670853a0d2313c00006101a083015260016101c08301525f5260036020526101c0600e60405f2060018060a01b038451166bffffffffffffffffffffffff60a01b90818354161782556001820160018060a01b0360208701511682825416179055600282019060018060a01b0360408701511690825416179055606084015160038201556080840151600482015560a0840151600582015560c0840151600682015560e0840151600782015561010084015160088201556101208401516009820155610140840151600a820155610160840151600b820155610180840151600c8201556101a0840151600d82015501910151151560ff80198354169116179055604051906107dc826116ff565b8482526020820190838252600554680100000000000000008110156108a35780600161080b9201600555611b92565b61089057600160a0937ff0bf75f9e537ccf1d0c0fa20533c3c4afad7f030f84c6bdd91c30c7da3dbc0899551835551910155600254936108496116b0565b96610852611684565b9261085b61169a565b9760405198600180881b031689526020890152604088015260608701526080860152600180831b031694600180831b031693a4005b634e487b7160e01b5f525f60045260245ffd5b634e487b7160e01b5f52604160045260245ffd5b5f526003602052600660405f2001544211156108d357806105e5565b60405162461bcd60e51b815260206004820152601a60248201527f50726576696f75732073657373696f6e206e6f7420656e6465640000000000006044820152fd5b61091e81611b92565b506040519061092c826116ff565b60018154918284520154806020809401528a1090816109b0575b5061095a575061095590611b84565b6105d2565b83906a34b7339039b2b9b9b4b7b760a91b866040519262461bcd60e51b84526004840152602b60248401527f53657373696f6e2074696d65206f7665726c61707320776974682065786973746044840152820152fd5b905087118a610946565b90690746572207468616e20360b41b6040519162461bcd60e51b835260206004840152602a60248401527f436865636b496e2072657761726420706f6f6c206d75737420626520677265616044840152820152fd5b6084906206e20360ec1b6040519162461bcd60e51b835260206004840152602360248401527f546f74616c20726577617264206d7573742062652067726561746572207468616044840152820152fd5b60405162461bcd60e51b815260206004820152602160248201527f456e642074696d65206d7573742062652061667465722073746172742074696d6044820152606560f81b6064820152608490fd5b60405162461bcd60e51b815260206004820152601c60248201527f53746172742074696d65206d75737420626520696e20667574757265000000006044820152606490fd5b34610163576020366003190112610163575f6101c0604051610b14816116e2565b8281528260208201528260408201528260608201528260808201528260a08201528260c08201528260e08201528261010082015282610120820152826101408201528261016082015282610180820152826101a0820152015260043580151580610d02575b610b82906118d2565b5f5260036020526101e060405f206101c0604051610b9f816116e2565b60ff600e60018060a01b038554169485845260018060a01b03600182015416602085015260018060a01b0360028201541660408501526003810154606085015260048101546080850152600581015460a0850152600681015460c0850152600781015460e085015260088101546101008501526009810154610120850152600a810154610140850152600b810154610160850152600c810154610180850152600d8101546101a085015201541615158282015260405192835260018060a01b03602082015116602084015260018060a01b036040820151166040840152606081015160608401526080810151608084015260a081015160a084015260c081015160c084015260e081015160e08401526101008101516101008401526101208101516101208401526101408101516101408401526101608101516101608401526101808101516101808401526101a08101516101a0840152015115156101c0820152f35b50600254811115610b79565b3461016357604036600319011261016357600435610d2a61162d565b81151580610e4d575b610d3c906118d2565b815f52600360205260405f2090600460205260405f209060018060a01b03165f5260205260405f2060028101549181549081610d7e575b602084604051908152f35b600981015494600a8201549081421180610e40575b610dd2575b505050610dca92916001670de0b6b3a7640000610dba602097610dc4956119b8565b04910154906119d8565b906119cb565b828080610d73565b610dee91610de39196959396611dcd565b6008860154906119b8565b670de0b6b3a76400009081810291818304149015171561029f57670de0b6b3a7640000610dba610dc494610e32602099610dc46001966007610dca9c0154906119e5565b985094505082949550610d98565b5060078301541515610d93565b50600254821115610d33565b3461016357604036600319011261016357610e7261162d565b6004355f52600460205260405f209060018060a01b03165f5260205260c060405f2060ff8154916001810154906002810154600460038301549201549260405195865260208601526040850152606084015264ffffffffff8116608084015260281c16151560a0820152f35b34610163575f366003190112610163575f546040516001600160a01b039091168152602090f35b3461016357604036600319011261016357600435610f2161162d565b8115158061103c575b610f33906118d2565b815f52600360205260405f2090600460205260405f209060018060a01b03165f5260205260405f20600281015491815480610f76575b60408461056e8588611bde565b600982959492015494600a8101548042118061102f575b610fca575b505061056e9291610dc4670de0b6b3a7640000610fb4604098610fc0956119b8565b046001850154906119d8565b9293819250610f69565b610de3610fdb918796959396611dcd565b670de0b6b3a76400009081810291818304149015171561029f57670de0b6b3a7640000610fb4610fc09461102060409a610dc4610dc496600761056e9c0154906119e5565b99509450505081939450610f92565b5060078201541515610f8d565b50600254821115610f2a565b34610163576020366003190112610163576004355f52600360205260405f20600160a01b60019003908181541690826001820154169260028201541660038201546004830154600584015460068501546007860154600887015491600988015493600a89015495600b8a015497600c8b015499600d8c01549b600e015460ff169c6040519e8f91825260208201526040015260608d015260808c015260a08b015260c08a015260e08901526101008801526101208701526101408601526101608501526101808401526101a083015215156101c08201526101e090f35b3461016357604036600319011261016357602061117c60043561114661162d565b81151580611184575b611158906118d2565b5f8281526004855260408082206001600160a01b0390931682529185522090611bde565b604051908152f35b5060025482111561114f565b34610163575f366003190112610163576111a8611659565b5f80546001600160a01b0319811682556001600160a01b03167f8be0079c531659141344cd1fd0a4f28419497f9722a3daafe3b4186f6b6457e08280a3005b34610163575f366003190112610163576020600254604051908152f35b346101635760208060031936011261016357600435611221611995565b80151580611423575b611233906118d2565b805f5260038252600660405f2001544211156113e657805f526004825260405f20335f52825260405f208054156113ae57600481019060ff825460281c166113755761127e83611d14565b825f526003845260405f20936002820154946112c66112bf845497610dc4670de0b6b3a76400006112b360098701548c6119b8565b046001880154906119d8565b9386611bde565b845465ff00000000001916650100000000001790945580546001600160a01b039185916112f890899033908616611e06565b8461135f575b81611347575b50505060405194855284015260408301524260608301527f34b356a06378218b842d641adfef56661747ff542e604819d25228012735412360803393a360018055005b6113579260023392015416611e06565b858381611304565b611370853385600185015416611e06565b6112fe565b60405162461bcd60e51b815260048101859052601160248201527020b63932b0b23c903bb4ba34323930bbb760791b6044820152606490fd5b60405162461bcd60e51b815260048101849052601060248201526f139bc81cdd185ad95908185b5bdd5b9d60821b6044820152606490fd5b60405162461bcd60e51b815260048101839052601560248201527414d95cdcda5bdb881b9bdd08195b991959081e595d605a1b6044820152606490fd5b5060025481111561122a565b346101635761143d36611643565b90611446611659565b80151580611518575b611458906118d2565b5f52600360205260405f2060058101544210156114c157670de0b6b3a7640000821161148457600d0155005b60405162461bcd60e51b815260206004820152601560248201527408ec2dadac240daeae6e840c4ca40787a4062ca627605b1b6044820152606490fd5b60405162461bcd60e51b815260206004820152602960248201527f43616e6e6f74206d6f646966792067616d6d612061667465722073657373696f6044820152681b881cdd185c9d195960ba1b6064820152608490fd5b5060025481111561144f565b34610163576040366003190112610163576004355f60a061154361162d565b9361154d816116c6565b828152826020820152826040820152826060820152826080820152015280151580611621575b61157c906118d2565b5f52600460205260405f209060018060a01b03165f5260205260c060405f20604051906115a8826116c6565b80549182815260018201546020820190815260028301549260408301938452600460038201549160608501928352015493608084019260ff60a064ffffffffff968789168752019660281c16151586526040519687525160208701525160408601525160608501525116608083015251151560a0820152f35b50600254811115611573565b602435906001600160a01b038216820361016357565b6040906003190112610163576004359060243590565b5f546001600160a01b0316330361166c57565b60405163118cdaa760e01b8152336004820152602490fd5b6024356001600160a01b03811681036101635790565b6044356001600160a01b03811681036101635790565b6004356001600160a01b03811681036101635790565b60c0810190811067ffffffffffffffff8211176108a357604052565b6101e0810190811067ffffffffffffffff8211176108a357604052565b6040810190811067ffffffffffffffff8211176108a357604052565b6040516323b872dd60e01b60208201526001600160a01b03928316602482015292909116604483015260648083019390935291815260a081019181831067ffffffffffffffff8411176108a35761177492604052611776565b565b60018060a01b0316905f80826020829451910182865af13d156118635767ffffffffffffffff903d82811161184f5760405192601f8201601f19908116603f011684019081118482101761183b5760405282526117dc91903d84602084013e5b8461186f565b90815191821515928361180c575b5050506117f45750565b60249060405190635274afe760e01b82526004820152fd5b81929350906020918101031261183757602001519081159182150361183457505f80806117ea565b80fd5b5080fd5b634e487b7160e01b85526041600452602485fd5b634e487b7160e01b84526041600452602484fd5b6117dc906060906117d6565b90611896575080511561188457805190602001fd5b604051630a12f52160e11b8152600490fd5b815115806118c9575b6118a7575090565b604051639996b31560e01b81526001600160a01b039091166004820152602490fd5b50803b1561189f565b156118d957565b60405162461bcd60e51b815260206004820152601660248201527514d95cdcda5bdb88191bd95cc81b9bdd08195e1a5cdd60521b6044820152606490fd5b1561191e57565b60405162461bcd60e51b815260206004820152601360248201527214d95cdcda5bdb881b9bdd081cdd185c9d1959606a1b6044820152606490fd5b1561196057565b60405162461bcd60e51b815260206004820152600d60248201526c14d95cdcda5bdb88195b991959609a1b6044820152606490fd5b6002600154146119a6576002600155565b604051633ee5aeb560e01b8152600490fd5b8181029291811591840414171561029f57565b9190820180921161029f57565b9190820391821161029f57565b81156119ef570490565b634e487b7160e01b5f52601260045260245ffd5b91905f928352600360205260408320906004602052604084209060018060a01b031684526020526040832090815490811591828015611b78575b8015611b6c575b611b6457600482015495670de0b6b3a76400009182611a67600d8601548a6119b8565b049483820291820484141715611b50576003611a9e611a8b600787015480946119e5565b9685611a9789836119b8565b049a6119d8565b9601549083820291808304851490151715611b3c57600b84611ace611ac8600c89015480966119e5565b896119b8565b049501549284840293808504861490151715611b285750611af99291611af3916119b8565b906119e5565b928315611b17575050611b0f90611b14936119b8565b6119e5565b90565b915092611b2492506119b8565b0490565b634e487b7160e01b81526011600452602490fd5b634e487b7160e01b83526011600452602483fd5b634e487b7160e01b82526011600452602482fd5b505050508190565b50600384015415611a44565b50600782015415611a3d565b5f19811461029f5760010190565b600554811015611bca5760055f5260011b7f036b6384b5eca791c62761152d0c79bb0604c104a5fb6f4eb0703f3154bb3db001905f90565b634e487b7160e01b5f52603260045260245ffd5b91905f92835260036020526040832090805490811590818015611d08575b611d025760030154928315611d0257600481015493670de0b6b3a76400009081611c2a600d850154886119b8565b049382860295860483141715611cee57611c5f611c4c600785015480976119e5565b9483611c5887836119b8565b04976119d8565b948282029182048303611cda57600b83611c87611c81600c88015480966119e5565b886119b8565b0494015498838a0299808b04851490151715611b28575097611af3611cb092611b14999a6119b8565b928315611cc6575050611b0f90610dc4936119b8565b915092611cd392506119b8565b04906119cb565b634e487b7160e01b89526011600452602489fd5b634e487b7160e01b88526011600452602488fd5b50505050565b50600784015415611bfc565b5f818152600360205260408120600a8101928354421115611d02576007820154908115611db857611d4a611d5591865490611dcd565b6008840154906119b8565b670de0b6b3a764000090818102918183041490151715611da45760069291611d7c916119e5565b611d8b600983019182546119cb565b9055015490508042115f14611d9e579055565b50429055565b634e487b7160e01b84526011600452602484fd5b50506006015490508042115f14611d9e579055565b5f526003602052600660405f2001548042115f14611dfe57905b80821115611df857611b14916119d8565b50505f90565b504290611de7565b91908115611e5f5760405163a9059cbb60e01b60208201526001600160a01b039182166024820152604480820193909352918252608082019267ffffffffffffffff8411838510176108a3576117749360405216611776565b50505056fea264697066735822122094274c8e71edfebc3a537106ba089584d4c067fc53fae343b56670864c185c7364736f6c63430008140033","linkReferences":{}},"methodIdentifiers":{"checkIn(uint256)":"e95a644f","createSession((address,address,address,uint256,uint256,uint256,uint256))":"ba604a27","currentSessionId()":"6597a130","deposit(uint256,uint256)":"e2bbb158","getBoostRewardBreakdown(uint256,address)":"c5af161e","getPendingRewards(uint256,address)":"85dc0aaf","getSessionInfo(uint256)":"9e10acf0","getUserInfo(uint256,address)":"1069f3b5","owner()":"8da5cb5b","pendingBoostReward(uint256,address)":"73cb07d8","pendingReward(uint256,address)":"98969e82","renounceOwnership()":"715018a6","sessions(uint256)":"83c4b7a3","setGamma(uint256,uint256)":"18eb2932","transferOwnership(address)":"f2fde38b","userInfo(uint256,address)":"93f1a40b","withdraw(uint256)":"2e1a7d4d"},"id":30}