{"abi":[{"type":"constructor","inputs":[{"name":"_initialOwner","type":"address","internalType":"address"}],"stateMutability":"nonpayable"},{"type":"function","name":"checkIn","inputs":[{"name":"_sessionId","type":"uint256","internalType":"uint256"}],"outputs":[],"stateMutability":"nonpayable"},{"type":"function","name":"createSession","inputs":[{"name":"params","type":"tuple","internalType":"struct Staking.CreateSessionParams","components":[{"name":"stakingToken","type":"address","internalType":"address"},{"name":"rewardToken","type":"address","internalType":"address"},{"name":"checkInRewardToken","type":"address","internalType":"address"},{"name":"totalReward","type":"uint256","internalType":"uint256"},{"name":"checkInRewardPool","type":"uint256","internalType":"uint256"},{"name":"startTime","type":"uint256","internalType":"uint256"},{"name":"endTime","type":"uint256","internalType":"uint256"}]}],"outputs":[],"stateMutability":"nonpayable"},{"type":"function","name":"currentSessionId","inputs":[],"outputs":[{"name":"","type":"uint256","internalType":"uint256"}],"stateMutability":"view"},{"type":"function","name":"deposit","inputs":[{"name":"_sessionId","type":"uint256","internalType":"uint256"},{"name":"_amount","type":"uint256","internalType":"uint256"}],"outputs":[],"stateMutability":"nonpayable"},{"type":"function","name":"getPendingRewards","inputs":[{"name":"_sessionId","type":"uint256","internalType":"uint256"},{"name":"_user","type":"address","internalType":"address"}],"outputs":[{"name":"stakingReward","type":"uint256","internalType":"uint256"},{"name":"boostReward","type":"uint256","internalType":"uint256"}],"stateMutability":"view"},{"type":"function","name":"getSessionInfo","inputs":[{"name":"_sessionId","type":"uint256","internalType":"uint256"}],"outputs":[{"name":"","type":"tuple","internalType":"struct Staking.Session","components":[{"name":"stakingToken","type":"address","internalType":"address"},{"name":"rewardToken","type":"address","internalType":"address"},{"name":"checkInRewardToken","type":"address","internalType":"address"},{"name":"totalReward","type":"uint256","internalType":"uint256"},{"name":"checkInRewardPool","type":"uint256","internalType":"uint256"},{"name":"startTime","type":"uint256","internalType":"uint256"},{"name":"endTime","type":"uint256","internalType":"uint256"},{"name":"totalStaked","type":"uint256","internalType":"uint256"},{"name":"rewardPerSecond","type":"uint256","internalType":"uint256"},{"name":"accRewardPerShare","type":"uint256","internalType":"uint256"},{"name":"lastRewardTime","type":"uint256","internalType":"uint256"},{"name":"totalWeightedStake","type":"uint256","internalType":"uint256"},{"name":"totalBoostPoints","type":"uint256","internalType":"uint256"},{"name":"gamma","type":"uint256","internalType":"uint256"},{"name":"active","type":"bool","internalType":"bool"}]}],"stateMutability":"view"},{"type":"function","name":"getUserInfo","inputs":[{"name":"_sessionId","type":"uint256","internalType":"uint256"},{"name":"_user","type":"address","internalType":"address"}],"outputs":[{"name":"","type":"tuple","internalType":"struct Staking.UserInfo","components":[{"name":"amount","type":"uint256","internalType":"uint256"},{"name":"rewardDebt","type":"uint256","internalType":"uint256"},{"name":"boost","type":"uint256","internalType":"uint256"},{"name":"lastCheckInTime","type":"uint40","internalType":"uint40"},{"name":"hasWithdrawn","type":"bool","internalType":"bool"}]}],"stateMutability":"view"},{"type":"function","name":"owner","inputs":[],"outputs":[{"name":"","type":"address","internalType":"address"}],"stateMutability":"view"},{"type":"function","name":"pendingBoostReward","inputs":[{"name":"_sessionId","type":"uint256","internalType":"uint256"},{"name":"_user","type":"address","internalType":"address"}],"outputs":[{"name":"","type":"uint256","internalType":"uint256"}],"stateMutability":"view"},{"type":"function","name":"pendingReward","inputs":[{"name":"_sessionId","type":"uint256","internalType":"uint256"},{"name":"_user","type":"address","internalType":"address"}],"outputs":[{"name":"","type":"uint256","internalType":"uint256"}],"stateMutability":"view"},{"type":"function","name":"renounceOwnership","inputs":[],"outputs":[],"stateMutability":"nonpayable"},{"type":"function","name":"sessions","inputs":[{"name":"","type":"uint256","internalType":"uint256"}],"outputs":[{"name":"stakingToken","type":"address","internalType":"address"},{"name":"rewardToken","type":"address","internalType":"address"},{"name":"checkInRewardToken","type":"address","internalType":"address"},{"name":"totalReward","type":"uint256","internalType":"uint256"},{"name":"checkInRewardPool","type":"uint256","internalType":"uint256"},{"name":"startTime","type":"uint256","internalType":"uint256"},{"name":"endTime","type":"uint256","internalType":"uint256"},{"name":"totalStaked","type":"uint256","internalType":"uint256"},{"name":"rewardPerSecond","type":"uint256","internalType":"uint256"},{"name":"accRewardPerShare","type":"uint256","internalType":"uint256"},{"name":"lastRewardTime","type":"uint256","internalType":"uint256"},{"name":"totalWeightedStake","type":"uint256","internalType":"uint256"},{"name":"totalBoostPoints","type":"uint256","internalType":"uint256"},{"name":"gamma","type":"uint256","internalType":"uint256"},{"name":"active","type":"bool","internalType":"bool"}],"stateMutability":"view"},{"type":"function","name":"setGamma","inputs":[{"name":"_sessionId","type":"uint256","internalType":"uint256"},{"name":"_gamma","type":"uint256","internalType":"uint256"}],"outputs":[],"stateMutability":"nonpayable"},{"type":"function","name":"transferOwnership","inputs":[{"name":"newOwner","type":"address","internalType":"address"}],"outputs":[],"stateMutability":"nonpayable"},{"type":"function","name":"userInfo","inputs":[{"name":"","type":"uint256","internalType":"uint256"},{"name":"","type":"address","internalType":"address"}],"outputs":[{"name":"amount","type":"uint256","internalType":"uint256"},{"name":"rewardDebt","type":"uint256","internalType":"uint256"},{"name":"boost","type":"uint256","internalType":"uint256"},{"name":"lastCheckInTime","type":"uint40","internalType":"uint40"},{"name":"hasWithdrawn","type":"bool","internalType":"bool"}],"stateMutability":"view"},{"type":"function","name":"withdraw","inputs":[{"name":"_sessionId","type":"uint256","internalType":"uint256"}],"outputs":[],"stateMutability":"nonpayable"},{"type":"event","name":"CheckedIn","inputs":[{"name":"sessionId","type":"uint256","indexed":true,"internalType":"uint256"},{"name":"user","type":"address","indexed":true,"internalType":"address"},{"name":"timestamp","type":"uint256","indexed":false,"internalType":"uint256"}],"anonymous":false},{"type":"event","name":"Deposited","inputs":[{"name":"sessionId","type":"uint256","indexed":true,"internalType":"uint256"},{"name":"user","type":"address","indexed":true,"internalType":"address"},{"name":"amount","type":"uint256","indexed":false,"internalType":"uint256"},{"name":"timestamp","type":"uint256","indexed":false,"internalType":"uint256"},{"name":"totalStaked","type":"uint256","indexed":false,"internalType":"uint256"}],"anonymous":false},{"type":"event","name":"OwnershipTransferred","inputs":[{"name":"previousOwner","type":"address","indexed":true,"internalType":"address"},{"name":"newOwner","type":"address","indexed":true,"internalType":"address"}],"anonymous":false},{"type":"event","name":"SessionCreated","inputs":[{"name":"sessionId","type":"uint256","indexed":true,"internalType":"uint256"},{"name":"stakingToken","type":"address","indexed":true,"internalType":"address"},{"name":"rewardToken","type":"address","indexed":true,"internalType":"address"},{"name":"checkInRewardToken","type":"address","indexed":false,"internalType":"address"},{"name":"totalReward","type":"uint256","indexed":false,"internalType":"uint256"},{"name":"checkInRewardPool","type":"uint256","indexed":false,"internalType":"uint256"},{"name":"startTime","type":"uint256","indexed":false,"internalType":"uint256"},{"name":"endTime","type":"uint256","indexed":false,"internalType":"uint256"}],"anonymous":false},{"type":"event","name":"Withdrawn","inputs":[{"name":"sessionId","type":"uint256","indexed":true,"internalType":"uint256"},{"name":"user","type":"address","indexed":true,"internalType":"address"},{"name":"stakedAmount","type":"uint256","indexed":false,"internalType":"uint256"},{"name":"rewardAmount","type":"uint256","indexed":false,"internalType":"uint256"},{"name":"checkInReward","type":"uint256","indexed":false,"internalType":"uint256"},{"name":"timestamp","type":"uint256","indexed":false,"internalType":"uint256"}],"anonymous":false},{"type":"error","name":"AddressEmptyCode","inputs":[{"name":"target","type":"address","internalType":"address"}]},{"type":"error","name":"AddressInsufficientBalance","inputs":[{"name":"account","type":"address","internalType":"address"}]},{"type":"error","name":"FailedInnerCall","inputs":[]},{"type":"error","name":"OwnableInvalidOwner","inputs":[{"name":"owner","type":"address","internalType":"address"}]},{"type":"error","name":"OwnableUnauthorizedAccount","inputs":[{"name":"account","type":"address","internalType":"address"}]},{"type":"error","name":"ReentrancyGuardReentrantCall","inputs":[]},{"type":"error","name":"SafeERC20FailedOperation","inputs":[{"name":"token","type":"address","internalType":"address"}]}],"bytecode":{"object":"0x6080346100c157601f611d8838819003918201601f19168301916001600160401b038311848410176100c5578084926020946040528339810103126100c157516001600160a01b0390818116908190036100c15780156100a9575f80546001600160a01b03198116831782556040519316907f8be0079c531659141344cd1fd0a4f28419497f9722a3daafe3b4186f6b6457e09080a3600180555f600255611cae90816100da8239f35b604051631e4fbdf760e01b81525f6004820152602490fd5b5f80fd5b634e487b7160e01b5f52604160045260245ffdfe6080806040526004361015610012575f80fd5b5f3560e01c9081631069f3b5146113ad5750806318eb2932146112b85780632e1a7d4d1461105a5780636597a1301461103d578063715018a614610fe657806373cb07d814610f8357806383c4b7a314610ea657806385dc0aaf14610d505780638da5cb5b14610d2957806393f1a40b14610cae57806398969e8214610c615780639e10acf014610a46578063ba604a27146104d9578063e2bbb1581461033e578063e95a644f1461015c5763f2fde38b146100cc575f80fd5b34610158576020366003190112610158576004356001600160a01b0381811691829003610158576100fb6114c9565b8115610140575f54826bffffffffffffffffffffffff60a01b8216175f55167f8be0079c531659141344cd1fd0a4f28419497f9722a3daafe3b4186f6b6457e05f80a3005b604051631e4fbdf760e01b81525f6004820152602490fd5b5f80fd5b3461015857602080600319360112610158576004356101796117f3565b80151580610332575b61018b90611730565b805f52600382526101b5600660405f206101ab6005820154421015611775565b01544211156117b7565b805f526004825260405f20335f52825260405f20815f526003835260405f2090805480156102ed57600382019264ffffffffff9261012c848654160184811161029457841642106102a8576002018054926102108482611816565b9160018501809511610294578461024292600c9661022e9355611816565b61023d600b8501938454611836565b611829565b905501805490600182018092116102945755421664ffffffffff198254161790557f6b2e4e52ba8b5cff4a90d18b1efd0f88c74ed562b5dd3b13f01a1759699b2db2604051924284523393a360018055005b634e487b7160e01b5f52601160045260245ffd5b60405162461bcd60e51b815260048101889052601d60248201527f436865636b2d696e20636f6f6c646f776e206e6f7420657870697265640000006044820152606490fd5b60405162461bcd60e51b815260048101869052601a60248201527f4d757374207374616b65206265666f726520636865636b2d696e0000000000006044820152606490fd5b50600254811115610182565b346101585761034c366114b3565b906103556117f3565b801515806104cd575b61036790611730565b805f52602060038152610389600660405f206101ab6005820154421015611775565b82156104895761039882611b22565b815f5260038152600760405f206004835260405f20335f52835260405f206103cd8660018060a01b038454163090339061158b565b600281015480610450575b506001670de0b6b3a76400006104006103f2898554611829565b808555600986015490611816565b049101550190610411848354611829565b809255604051938452429084015260408301527f893e8a14c42d0303c66e296f4c3e4ed772edf8097f8d41ab8d08099654172ec060603393a360018055005b61048161047283549261046d8a6104678387611816565b95611829565b611816565b61023d600b8601938454611836565b9055866103d8565b6064906040519062461bcd60e51b82526004820152601d60248201527f416d6f756e74206d7573742062652067726561746572207468616e20300000006044820152fd5b5060025481111561035e565b346101585760e0366003190112610158576104f26114c9565b60a43542811115610a015760c435818111156109b257606490813591821561096257608490813591821561090d576005545f5b818110610868575050506002548061080a575b506105599050836001600160a01b0361054f6114f4565b163090339061158b565b6105758130336001600160a01b0361056f61150a565b1661158b565b610580600254611967565b8060025561058c611520565b906105956114f4565b61059d61150a565b6105b06105aa8988611836565b88611843565b91604051946105be86611552565b60018060a01b0316855260018060a01b0316602085015260018060a01b031660408401528560608401528360808401528660a08401528460c08401525f60e08401526101008301525f610120830152856101408301525f6101608301525f610180830152670853a0d2313c00006101a083015260016101c08301525f5260036020526101c0600e60405f2060018060a01b038451166bffffffffffffffffffffffff60a01b90818354161782556001820160018060a01b0360208701511682825416179055600282019060018060a01b0360408701511690825416179055606084015160038201556080840151600482015560a0840151600582015560c0840151600682015560e0840151600782015561010084015160088201556101208401516009820155610140840151600a820155610160840151600b820155610180840151600c8201556101a0840151600d82015501910151151560ff801983541691161790556040519061072f8261156f565b8482526020820190838252600554680100000000000000008110156107f65780600161075e9201600555611975565b6107e357600160a0937ff0bf75f9e537ccf1d0c0fa20533c3c4afad7f030f84c6bdd91c30c7da3dbc08995518355519101556002549361079c611520565b966107a56114f4565b926107ae61150a565b9760405198600180881b031689526020890152604088015260608701526080860152600180831b031694600180831b031693a4005b634e487b7160e01b5f525f60045260245ffd5b634e487b7160e01b5f52604160045260245ffd5b5f526003602052600660405f2001544211156108265780610538565b60405162461bcd60e51b815260206004820152601a60248201527f50726576696f75732073657373696f6e206e6f7420656e6465640000000000006044820152fd5b61087181611975565b506040519061087f8261156f565b60018154918284520154806020809401528a109081610903575b506108ad57506108a890611967565b610525565b83906a34b7339039b2b9b9b4b7b760a91b866040519262461bcd60e51b84526004840152602b60248401527f53657373696f6e2074696d65206f7665726c61707320776974682065786973746044840152820152fd5b905087118a610899565b90690746572207468616e20360b41b6040519162461bcd60e51b835260206004840152602a60248401527f436865636b496e2072657761726420706f6f6c206d75737420626520677265616044840152820152fd5b6084906206e20360ec1b6040519162461bcd60e51b835260206004840152602360248401527f546f74616c20726577617264206d7573742062652067726561746572207468616044840152820152fd5b60405162461bcd60e51b815260206004820152602160248201527f456e642074696d65206d7573742062652061667465722073746172742074696d6044820152606560f81b6064820152608490fd5b60405162461bcd60e51b815260206004820152601c60248201527f53746172742074696d65206d75737420626520696e20667574757265000000006044820152606490fd5b34610158576020366003190112610158575f6101c0604051610a6781611552565b8281528260208201528260408201528260608201528260808201528260a08201528260c08201528260e08201528261010082015282610120820152826101408201528261016082015282610180820152826101a0820152015260043580151580610c55575b610ad590611730565b5f5260036020526101e060405f206101c0604051610af281611552565b60ff600e60018060a01b038554169485845260018060a01b03600182015416602085015260018060a01b0360028201541660408501526003810154606085015260048101546080850152600581015460a0850152600681015460c0850152600781015460e085015260088101546101008501526009810154610120850152600a810154610140850152600b810154610160850152600c810154610180850152600d8101546101a085015201541615158282015260405192835260018060a01b03602082015116602084015260018060a01b036040820151166040840152606081015160608401526080810151608084015260a081015160a084015260c081015160c084015260e081015160e08401526101008101516101008401526101208101516101208401526101408101516101408401526101608101516101608401526101808101516101808401526101a08101516101a0840152015115156101c0820152f35b50600254811115610acc565b34610158576040366003190112610158576020610c9a600435610c8261149d565b9080151580610ca2575b610c9590611730565b611861565b604051908152f35b50600254811115610c8c565b3461015857604036600319011261015857610cc761149d565b6004355f52600460205260405f209060018060a01b03165f5260205260a060405f2060ff81549160018101549060036002820154910154916040519485526020850152604084015264ffffffffff8116606084015260281c1615156080820152f35b34610158575f366003190112610158575f546040516001600160a01b039091168152602090f35b3461015857604036600319011261015857600435610d6c61149d565b9080151580610e9a575b610d7f90611730565b5f90805f52600360205260405f2092600460205260405f209060018060a01b03165f5260205260405f2092835480610dcb575b604084610dbf87866119c1565b82519182526020820152f35b90919250600982015491600a81015480421180610e8d575b610e1c575b505092610e12670de0b6b3a7640000610e06610dbf94604097611816565b04600183015490611836565b9291819450610db2565b610e2e610e3991869794959397611be1565b600887015490611816565b90670de0b6b3a76400009182810292818404149015171561029457610e06610dbf94610e82670de0b6b3a764000093610e7c610e1296600760409c015490611843565b90611829565b955093965050610de8565b5060078201541515610de3565b50600254811115610d76565b34610158576020366003190112610158576004355f52600360205260405f20600160a01b60019003908181541690826001820154169260028201541660038201546004830154600584015460068501546007860154600887015491600988015493600a89015495600b8a015497600c8b015499600d8c01549b600e015460ff169c6040519e8f91825260208201526040015260608d015260808c015260a08b015260c08a015260e08901526101008801526101208701526101408601526101608501526101808401526101a083015215156101c08201526101e090f35b34610158576040366003190112610158576020610c9a600435610fa461149d565b81151580610fda575b610fb690611730565b5f8281526004855260408082206001600160a01b03909316825291855220906119c1565b50600254821115610fad565b34610158575f36600319011261015857610ffe6114c9565b5f80546001600160a01b0319811682556001600160a01b03167f8be0079c531659141344cd1fd0a4f28419497f9722a3daafe3b4186f6b6457e08280a3005b34610158575f366003190112610158576020600254604051908152f35b3461015857602080600319360112610158576004356110776117f3565b801515806112ac575b61108990611730565b805f5260038252600660405f20015442111561126f57805f526004825260405f20335f52825260405f2080541561123757600381019060ff825460281c166111fe576110d483611b22565b825f526003845260405f2093815494611109670de0b6b3a76400006110fd600984015489611816565b04600185015490611836565b9261111481876119c1565b946501000000000065ff00000000001982541617905560078201611139888254611836565b90556002810154806111dc575b50508360018060a01b039161115f883385845416611c1a565b846111c6575b816111ae575b50505060405194855284015260408301524260608301527f34b356a06378218b842d641adfef56661747ff542e604819d25228012735412360803393a360018055005b6111be9260023392015416611c1a565b85838161116b565b6111d7853385600185015416611c1a565b611165565b6111e69154611816565b6111f5600b8301918254611836565b90558680611146565b60405162461bcd60e51b815260048101859052601160248201527020b63932b0b23c903bb4ba34323930bbb760791b6044820152606490fd5b60405162461bcd60e51b815260048101849052601060248201526f139bc81cdd185ad95908185b5bdd5b9d60821b6044820152606490fd5b60405162461bcd60e51b815260048101839052601560248201527414d95cdcda5bdb881b9bdd08195b991959081e595d605a1b6044820152606490fd5b50600254811115611080565b34610158576112c6366114b3565b906112cf6114c9565b801515806113a1575b6112e190611730565b5f52600360205260405f20600581015442101561134a57670de0b6b3a7640000821161130d57600d0155005b60405162461bcd60e51b815260206004820152601560248201527408ec2dadac240daeae6e840c4ca40787a4062ca627605b1b6044820152606490fd5b60405162461bcd60e51b815260206004820152602960248201527f43616e6e6f74206d6f646966792067616d6d612061667465722073657373696f6044820152681b881cdd185c9d195960ba1b6064820152608490fd5b506002548111156112d8565b34610158576040366003190112610158576004355f60806113cc61149d565b936113d681611536565b828152826020820152826040820152826060820152015280151580611491575b6113ff90611730565b5f52600460205260405f209060018060a01b03165f5260205260a060405f206040519061142b82611536565b805491828152600182015460208201908152600360028401549360408401948552015492606083019160ff608064ffffffffff958688168652019560281c1615158552604051958652516020860152516040850152511660608301525115156080820152f35b506002548111156113f6565b602435906001600160a01b038216820361015857565b6040906003190112610158576004359060243590565b5f546001600160a01b031633036114dc57565b60405163118cdaa760e01b8152336004820152602490fd5b6024356001600160a01b03811681036101585790565b6044356001600160a01b03811681036101585790565b6004356001600160a01b03811681036101585790565b60a0810190811067ffffffffffffffff8211176107f657604052565b6101e0810190811067ffffffffffffffff8211176107f657604052565b6040810190811067ffffffffffffffff8211176107f657604052565b6040516323b872dd60e01b60208201526001600160a01b0392831660248201529290911660448301526064808301939093529181526115d2916115cd82611536565b6115d4565b565b60018060a01b0316905f80826020829451910182865af13d156116c15767ffffffffffffffff903d8281116116ad5760405192601f8201601f19908116603f011684019081118482101761169957604052825261163a91903d84602084013e5b846116cd565b90815191821515928361166a575b5050506116525750565b60249060405190635274afe760e01b82526004820152fd5b81929350906020918101031261169557602001519081159182150361169257505f8080611648565b80fd5b5080fd5b634e487b7160e01b85526041600452602485fd5b634e487b7160e01b84526041600452602484fd5b61163a90606090611634565b906116f457508051156116e257805190602001fd5b604051630a12f52160e11b8152600490fd5b81511580611727575b611705575090565b604051639996b31560e01b81526001600160a01b039091166004820152602490fd5b50803b156116fd565b1561173757565b60405162461bcd60e51b815260206004820152601660248201527514d95cdcda5bdb88191bd95cc81b9bdd08195e1a5cdd60521b6044820152606490fd5b1561177c57565b60405162461bcd60e51b815260206004820152601360248201527214d95cdcda5bdb881b9bdd081cdd185c9d1959606a1b6044820152606490fd5b156117be57565b60405162461bcd60e51b815260206004820152600d60248201526c14d95cdcda5bdb88195b991959609a1b6044820152606490fd5b600260015414611804576002600155565b604051633ee5aeb560e01b8152600490fd5b8181029291811591840414171561029457565b9190820180921161029457565b9190820391821161029457565b811561184d570490565b634e487b7160e01b5f52601260045260245ffd5b5f90808252600360205260408220926004602052604083209060018060a01b031683526020526040822091825493841561195f57600981015492600a8201549081421180611952575b6118d8575b50505050670de0b6b3a76400006118cb6001926118d595611816565b0491015490611836565b90565b6118f3916118e891979697611be1565b600883015490611816565b91670de0b6b3a76400009283810293818504149015171561193e57506118d59493611935600194610e7c670de0b6b3a76400009560076118cb96015490611843565b938196506118af565b634e487b7160e01b81526011600452602490fd5b50600783015415156118aa565b509250505090565b5f1981146102945760010190565b6005548110156119ad5760055f5260011b7f036b6384b5eca791c62761152d0c79bb0604c104a5fb6f4eb0703f3154bb3db001905f90565b634e487b7160e01b5f52603260045260245ffd5b91905f92835260036020526040832090805493841590818015611b16575b611b0f57600484015493670de0b6b3a76400009384611a02600d84015488611816565b049385890298890486141715611afb57611a37611a246007840154809a611843565b9486611a308783611816565b0497611836565b97600c8301549182155f14611a60575050505050611a59906118d59495611816565b0490611829565b60020154939895929380840290801590820485141715611ae75783611a90611a8a85600b94611843565b88611816565b0494015498838a0299808b0485149015171561193e575097611ab9611abf926118d5999a611816565b90611843565b928315611ada575050611ad590610e7c93611816565b611843565b915092611a599250611816565b634e487b7160e01b8a52601160045260248afd5b634e487b7160e01b83526011600452602483fd5b9450505050565b506007840154156119df565b5f818152600360205260408120600a8101928354421115611bdb576007820154908115611bc657611b58611b6391865490611be1565b600884015490611816565b670de0b6b3a764000090818102918183041490151715611bb25760069291611b8a91611843565b611b9960098301918254611829565b9055015490508042115f14611bac579055565b50429055565b634e487b7160e01b84526011600452602484fd5b50506006015490508042115f14611bac579055565b50505050565b5f526003602052600660405f2001548042115f14611c1257905b80821115611c0c576118d591611836565b50505f90565b504290611bfb565b91908115611c735760405163a9059cbb60e01b60208201526001600160a01b039182166024820152604480820193909352918252608082019267ffffffffffffffff8411838510176107f6576115d293604052166115d4565b50505056fea2646970667358221220981c9c8056bd12ad2d7b87544ad5be1ace908498062d50bccab2f273e7e6457864736f6c63430008140033","linkReferences":{}},"methodIdentifiers":{"checkIn(uint256)":"e95a644f","createSession((address,address,address,uint256,uint256,uint256,uint256))":"ba604a27","currentSessionId()":"6597a130","deposit(uint256,uint256)":"e2bbb158","getPendingRewards(uint256,address)":"85dc0aaf","getSessionInfo(uint256)":"9e10acf0","getUserInfo(uint256,address)":"1069f3b5","owner()":"8da5cb5b","pendingBoostReward(uint256,address)":"73cb07d8","pendingReward(uint256,address)":"98969e82","renounceOwnership()":"715018a6","sessions(uint256)":"83c4b7a3","setGamma(uint256,uint256)":"18eb2932","transferOwnership(address)":"f2fde38b","userInfo(uint256,address)":"93f1a40b","withdraw(uint256)":"2e1a7d4d"},"id":29}