{"abi":[{"type":"constructor","inputs":[{"name":"_initialOwner","type":"address","internalType":"address"}],"stateMutability":"nonpayable"},{"type":"function","name":"checkIn","inputs":[{"name":"_sessionId","type":"uint256","internalType":"uint256"}],"outputs":[],"stateMutability":"nonpayable"},{"type":"function","name":"createSession","inputs":[{"name":"params","type":"tuple","internalType":"struct Staking.CreateSessionParams","components":[{"name":"stakingToken","type":"address","internalType":"address"},{"name":"rewardToken","type":"address","internalType":"address"},{"name":"checkInRewardToken","type":"address","internalType":"address"},{"name":"totalReward","type":"uint256","internalType":"uint256"},{"name":"checkInRewardPool","type":"uint256","internalType":"uint256"},{"name":"startTime","type":"uint256","internalType":"uint256"},{"name":"endTime","type":"uint256","internalType":"uint256"}]}],"outputs":[],"stateMutability":"nonpayable"},{"type":"function","name":"currentSessionId","inputs":[],"outputs":[{"name":"","type":"uint256","internalType":"uint256"}],"stateMutability":"view"},{"type":"function","name":"deposit","inputs":[{"name":"_sessionId","type":"uint256","internalType":"uint256"},{"name":"_amount","type":"uint256","internalType":"uint256"}],"outputs":[],"stateMutability":"nonpayable"},{"type":"function","name":"getSessionInfo","inputs":[{"name":"_sessionId","type":"uint256","internalType":"uint256"}],"outputs":[{"name":"","type":"tuple","internalType":"struct Staking.Session","components":[{"name":"stakingToken","type":"address","internalType":"address"},{"name":"rewardToken","type":"address","internalType":"address"},{"name":"checkInRewardToken","type":"address","internalType":"address"},{"name":"totalReward","type":"uint256","internalType":"uint256"},{"name":"checkInRewardPool","type":"uint256","internalType":"uint256"},{"name":"startTime","type":"uint256","internalType":"uint256"},{"name":"endTime","type":"uint256","internalType":"uint256"},{"name":"totalStaked","type":"uint256","internalType":"uint256"},{"name":"rewardPerSecond","type":"uint256","internalType":"uint256"},{"name":"accRewardPerShare","type":"uint256","internalType":"uint256"},{"name":"lastRewardTime","type":"uint256","internalType":"uint256"},{"name":"totalWeightedStake","type":"uint256","internalType":"uint256"},{"name":"active","type":"bool","internalType":"bool"}]}],"stateMutability":"view"},{"type":"function","name":"getUserInfo","inputs":[{"name":"_sessionId","type":"uint256","internalType":"uint256"},{"name":"_user","type":"address","internalType":"address"}],"outputs":[{"name":"","type":"tuple","internalType":"struct Staking.UserInfo","components":[{"name":"amount","type":"uint256","internalType":"uint256"},{"name":"rewardDebt","type":"uint256","internalType":"uint256"},{"name":"boost","type":"uint256","internalType":"uint256"},{"name":"lastCheckInTime","type":"uint40","internalType":"uint40"},{"name":"hasWithdrawn","type":"bool","internalType":"bool"}]}],"stateMutability":"view"},{"type":"function","name":"owner","inputs":[],"outputs":[{"name":"","type":"address","internalType":"address"}],"stateMutability":"view"},{"type":"function","name":"pendingCheckInReward","inputs":[{"name":"_sessionId","type":"uint256","internalType":"uint256"},{"name":"_user","type":"address","internalType":"address"}],"outputs":[{"name":"","type":"uint256","internalType":"uint256"}],"stateMutability":"view"},{"type":"function","name":"pendingReward","inputs":[{"name":"_sessionId","type":"uint256","internalType":"uint256"},{"name":"_user","type":"address","internalType":"address"}],"outputs":[{"name":"","type":"uint256","internalType":"uint256"}],"stateMutability":"view"},{"type":"function","name":"renounceOwnership","inputs":[],"outputs":[],"stateMutability":"nonpayable"},{"type":"function","name":"sessions","inputs":[{"name":"","type":"uint256","internalType":"uint256"}],"outputs":[{"name":"stakingToken","type":"address","internalType":"address"},{"name":"rewardToken","type":"address","internalType":"address"},{"name":"checkInRewardToken","type":"address","internalType":"address"},{"name":"totalReward","type":"uint256","internalType":"uint256"},{"name":"checkInRewardPool","type":"uint256","internalType":"uint256"},{"name":"startTime","type":"uint256","internalType":"uint256"},{"name":"endTime","type":"uint256","internalType":"uint256"},{"name":"totalStaked","type":"uint256","internalType":"uint256"},{"name":"rewardPerSecond","type":"uint256","internalType":"uint256"},{"name":"accRewardPerShare","type":"uint256","internalType":"uint256"},{"name":"lastRewardTime","type":"uint256","internalType":"uint256"},{"name":"totalWeightedStake","type":"uint256","internalType":"uint256"},{"name":"active","type":"bool","internalType":"bool"}],"stateMutability":"view"},{"type":"function","name":"transferOwnership","inputs":[{"name":"newOwner","type":"address","internalType":"address"}],"outputs":[],"stateMutability":"nonpayable"},{"type":"function","name":"userInfo","inputs":[{"name":"","type":"uint256","internalType":"uint256"},{"name":"","type":"address","internalType":"address"}],"outputs":[{"name":"amount","type":"uint256","internalType":"uint256"},{"name":"rewardDebt","type":"uint256","internalType":"uint256"},{"name":"boost","type":"uint256","internalType":"uint256"},{"name":"lastCheckInTime","type":"uint40","internalType":"uint40"},{"name":"hasWithdrawn","type":"bool","internalType":"bool"}],"stateMutability":"view"},{"type":"function","name":"withdraw","inputs":[{"name":"_sessionId","type":"uint256","internalType":"uint256"}],"outputs":[],"stateMutability":"nonpayable"},{"type":"event","name":"CheckedIn","inputs":[{"name":"sessionId","type":"uint256","indexed":true,"internalType":"uint256"},{"name":"user","type":"address","indexed":true,"internalType":"address"},{"name":"timestamp","type":"uint256","indexed":false,"internalType":"uint256"}],"anonymous":false},{"type":"event","name":"Deposited","inputs":[{"name":"sessionId","type":"uint256","indexed":true,"internalType":"uint256"},{"name":"user","type":"address","indexed":true,"internalType":"address"},{"name":"amount","type":"uint256","indexed":false,"internalType":"uint256"},{"name":"timestamp","type":"uint256","indexed":false,"internalType":"uint256"},{"name":"totalStaked","type":"uint256","indexed":false,"internalType":"uint256"}],"anonymous":false},{"type":"event","name":"OwnershipTransferred","inputs":[{"name":"previousOwner","type":"address","indexed":true,"internalType":"address"},{"name":"newOwner","type":"address","indexed":true,"internalType":"address"}],"anonymous":false},{"type":"event","name":"SessionCreated","inputs":[{"name":"sessionId","type":"uint256","indexed":true,"internalType":"uint256"},{"name":"stakingToken","type":"address","indexed":true,"internalType":"address"},{"name":"rewardToken","type":"address","indexed":true,"internalType":"address"},{"name":"checkInRewardToken","type":"address","indexed":false,"internalType":"address"},{"name":"totalReward","type":"uint256","indexed":false,"internalType":"uint256"},{"name":"checkInRewardPool","type":"uint256","indexed":false,"internalType":"uint256"},{"name":"startTime","type":"uint256","indexed":false,"internalType":"uint256"},{"name":"endTime","type":"uint256","indexed":false,"internalType":"uint256"}],"anonymous":false},{"type":"event","name":"Withdrawn","inputs":[{"name":"sessionId","type":"uint256","indexed":true,"internalType":"uint256"},{"name":"user","type":"address","indexed":true,"internalType":"address"},{"name":"stakedAmount","type":"uint256","indexed":false,"internalType":"uint256"},{"name":"rewardAmount","type":"uint256","indexed":false,"internalType":"uint256"},{"name":"checkInReward","type":"uint256","indexed":false,"internalType":"uint256"},{"name":"timestamp","type":"uint256","indexed":false,"internalType":"uint256"}],"anonymous":false},{"type":"error","name":"AddressEmptyCode","inputs":[{"name":"target","type":"address","internalType":"address"}]},{"type":"error","name":"AddressInsufficientBalance","inputs":[{"name":"account","type":"address","internalType":"address"}]},{"type":"error","name":"FailedInnerCall","inputs":[]},{"type":"error","name":"OwnableInvalidOwner","inputs":[{"name":"owner","type":"address","internalType":"address"}]},{"type":"error","name":"OwnableUnauthorizedAccount","inputs":[{"name":"account","type":"address","internalType":"address"}]},{"type":"error","name":"ReentrancyGuardReentrantCall","inputs":[]},{"type":"error","name":"SafeERC20FailedOperation","inputs":[{"name":"token","type":"address","internalType":"address"}]}],"bytecode":{"object":"0x608060405234801562000010575f80fd5b5060405162001ddd38038062001ddd8339810160408190526200003391620000cc565b806001600160a01b0381166200006257604051631e4fbdf760e01b81525f600482015260240160405180910390fd5b6200006d816200007d565b5050600180555f600255620000fb565b5f80546001600160a01b038381166001600160a01b0319831681178455604051919092169283917f8be0079c531659141344cd1fd0a4f28419497f9722a3daafe3b4186f6b6457e09190a35050565b5f60208284031215620000dd575f80fd5b81516001600160a01b0381168114620000f4575f80fd5b9392505050565b611cd480620001095f395ff3fe608060405234801561000f575f80fd5b50600436106100e5575f3560e01c806393f1a40b11610088578063ba604a2711610063578063ba604a2714610360578063e2bbb15814610373578063e95a644f14610386578063f2fde38b14610399575f80fd5b806393f1a40b146102aa57806398969e821461032d5780639e10acf014610340575f80fd5b8063715018a6116100c3578063715018a61461017b5780637763b0df1461018357806383c4b7a3146101965780638da5cb5b14610290575f80fd5b80631069f3b5146100e95780632e1a7d4d1461014f5780636597a13014610164575b5f80fd5b6100fc6100f7366004611a13565b6103ac565b60405161014691905f60a08201905082518252602083015160208301526040830151604083015264ffffffffff606084015116606083015260808301511515608083015292915050565b60405180910390f35b61016261015d366004611a3d565b61048d565b005b61016d60025481565b604051908152602001610146565b6101626105ea565b61016d610191366004611a13565b6105fd565b61021d6101a4366004611a3d565b600360208190525f918252604090912080546001820154600283015493830154600484015460058501546006860154600787015460088801546009890154600a8a0154600b8b0154600c909b01546001600160a01b039a8b169c998b169b99909a16999798969795969495939492939192909160ff168d565b604080516001600160a01b039e8f1681529c8e1660208e01529a909c16998b019990995260608a0197909752608089019590955260a088019390935260c087019190915260e08601526101008501526101208401526101408301526101608201529015156101808201526101a001610146565b5f546040516001600160a01b039091168152602001610146565b6102fc6102b8366004611a13565b600460209081525f928352604080842090915290825290208054600182015460028301546003909301549192909164ffffffffff811690600160281b900460ff1685565b6040805195865260208601949094529284019190915264ffffffffff1660608301521515608082015260a001610146565b61016d61033b366004611a13565b6106b5565b61035361034e366004611a3d565b6107c7565b6040516101469190611a54565b61016261036e366004611b1a565b610929565b610162610381366004611b30565b610c23565b610162610394366004611a3d565b610d69565b6101626103a7366004611b50565b610fe2565b6103e26040518060a001604052805f81526020015f81526020015f81526020015f64ffffffffff1681526020015f151581525090565b825f811180156103f457506002548111155b6104195760405162461bcd60e51b815260040161041090611b69565b60405180910390fd5b5f8481526004602090815260408083206001600160a01b0387168452825291829020825160a0810184528154815260018201549281019290925260028101549282019290925260039091015464ffffffffff81166060830152600160281b900460ff161515608082015291505b5092915050565b61049561101c565b805f811180156104a757506002548111155b6104c35760405162461bcd60e51b815260040161041090611b69565b5f8281526003602052604090206006810154839190421161051e5760405162461bcd60e51b815260206004820152601560248201527414d95cdcda5bdb881b9bdd08195b991959081e595d605a1b6044820152606401610410565b5f848152600460209081526040808320338452909152902080546105775760405162461bcd60e51b815260206004820152601060248201526f139bc81cdd185ad95908185b5bdd5b9d60821b6044820152606401610410565b6003810154600160281b900460ff16156105c75760405162461bcd60e51b815260206004820152601160248201527020b63932b0b23c903bb4ba34323930bbb760791b6044820152606401610410565b6105d085611046565b6105da8582611117565b505050506105e760018055565b50565b6105f2611232565b6105fb5f61125e565b565b5f825f8111801561061057506002548111155b61062c5760405162461bcd60e51b815260040161041090611b69565b5f848152600360209081526040808320600483528184206001600160a01b0388168552909252909120600281015415806106685750600b820154155b15610677575f93505050610486565b600281015481545f9161068991611bad565b905082600b01548184600401546106a09190611bad565b6106aa9190611bc4565b979650505050505050565b5f825f811180156106c857506002548111155b6106e45760405162461bcd60e51b815260040161041090611b69565b5f848152600360209081526040808320600483528184206001600160a01b038816855290925282208054919290919003610722575f93505050610486565b6009820154600a8301544211801561073d57505f8360070154115b15610797575f6107518885600a01546112ad565b90505f8460080154826107649190611bad565b600786015490915061077e670de0b6b3a764000083611bad565b6107889190611bc4565b6107929084611be3565b925050505b60018201548254670de0b6b3a7640000906107b3908490611bad565b6107bd9190611bc4565b6106aa9190611bf6565b610842604051806101a001604052805f6001600160a01b031681526020015f6001600160a01b031681526020015f6001600160a01b031681526020015f81526020015f81526020015f81526020015f81526020015f81526020015f81526020015f81526020015f81526020015f81526020015f151581525090565b815f8111801561085457506002548111155b6108705760405162461bcd60e51b815260040161041090611b69565b50505f9081526003602081815260409283902083516101a08101855281546001600160a01b039081168252600183015481169382019390935260028201549092169382019390935290820154606082015260048201546080820152600582015460a0820152600682015460c0820152600782015460e082015260088201546101008201526009820154610120820152600a820154610140820152600b820154610160820152600c9091015460ff16151561018082015290565b610931611232565b428160a00135116109845760405162461bcd60e51b815260206004820152601c60248201527f53746172742074696d65206d75737420626520696e20667574757265000000006044820152606401610410565b8060a001358160c00135116109e55760405162461bcd60e51b815260206004820152602160248201527f456e642074696d65206d7573742062652061667465722073746172742074696d6044820152606560f81b6064820152608401610410565b5f816060013511610a445760405162461bcd60e51b815260206004820152602360248201527f546f74616c20726577617264206d75737420626520677265617465722074686160448201526206e20360ec1b6064820152608401610410565b5f816080013511610aaa5760405162461bcd60e51b815260206004820152602a60248201527f436865636b496e2072657761726420706f6f6c206d75737420626520677265616044820152690746572207468616e20360b41b6064820152608401610410565b610abc8160a001358260c001356112fb565b60025415610b26576002545f908152600360205260409020600601544211610b265760405162461bcd60e51b815260206004820152601a60248201527f50726576696f75732073657373696f6e206e6f7420656e6465640000000000006044820152606401610410565b610b5133306060840135610b406040860160208701611b50565b6001600160a01b03169291906113d1565b610b6b33306080840135610b406060860160408701611b50565b610b748161143e565b610b846040820160208301611b50565b6001600160a01b0316610b9a6020830183611b50565b6001600160a01b03166002547ff0bf75f9e537ccf1d0c0fa20533c3c4afad7f030f84c6bdd91c30c7da3dbc089846040016020810190610bda9190611b50565b604080516001600160a01b0392909216825260608781013560208401526080808901358484015260a0808a01359285019290925260c0890135908401529051918290030190a450565b610c2b61101c565b815f81118015610c3d57506002548111155b610c595760405162461bcd60e51b815260040161041090611b69565b5f8381526003602052604090206005810154849190421015610cb35760405162461bcd60e51b815260206004820152601360248201527214d95cdcda5bdb881b9bdd081cdd185c9d1959606a1b6044820152606401610410565b8060060154421115610cf75760405162461bcd60e51b815260206004820152600d60248201526c14d95cdcda5bdb88195b991959609a1b6044820152606401610410565b5f8411610d465760405162461bcd60e51b815260206004820152601d60248201527f416d6f756e74206d7573742062652067726561746572207468616e20300000006044820152606401610410565b610d4f85611046565b610d598585611677565b505050610d6560018055565b5050565b610d7161101c565b805f81118015610d8357506002548111155b610d9f5760405162461bcd60e51b815260040161041090611b69565b5f8281526003602052604090206005810154839190421015610df95760405162461bcd60e51b815260206004820152601360248201527214d95cdcda5bdb881b9bdd081cdd185c9d1959606a1b6044820152606401610410565b8060060154421115610e3d5760405162461bcd60e51b815260206004820152600d60248201526c14d95cdcda5bdb88195b991959609a1b6044820152606401610410565b5f848152600460209081526040808320338452825280832087845260039092529091208154610eae5760405162461bcd60e51b815260206004820152601a60248201527f4d757374207374616b65206265666f726520636865636b2d696e0000000000006044820152606401610410565b6003820154610ec69064ffffffffff1661012c611c09565b64ffffffffff16421015610f1c5760405162461bcd60e51b815260206004820152601d60248201527f436865636b2d696e20636f6f6c646f776e206e6f7420657870697265640000006044820152606401610410565b600282015482545f91610f2e91611bad565b90506001836002015f828254610f449190611be3565b9091555050600283015483545f91610f5b91611bad565b9050808284600b0154610f6e9190611bf6565b610f789190611be3565b600b84015560038401805464ffffffffff19164264ffffffffff811691909117909155604051908152339089907f6b2e4e52ba8b5cff4a90d18b1efd0f88c74ed562b5dd3b13f01a1759699b2db29060200160405180910390a3505050505050506105e760018055565b610fea611232565b6001600160a01b03811661101357604051631e4fbdf760e01b81525f6004820152602401610410565b6105e78161125e565b60026001540361103f57604051633ee5aeb560e01b815260040160405180910390fd5b6002600155565b5f818152600360205260409020600a8101544290811161106557505050565b81600701545f0361109457816006015481116110815780611087565b81600601545b82600a0181905550505050565b5f6110a38484600a01546112ad565b90505f8360080154826110b69190611bad565b60078501549091506110d0670de0b6b3a764000083611bad565b6110da9190611bc4565b846009015f8282546110ec9190611be3565b9091555050600684015483116111025782611108565b83600601545b84600a01819055505050505050565b5f828152600360205260408120600183015460098201548454929392670de0b6b3a76400009161114691611bad565b6111509190611bc4565b61115a9190611bf6565b90505f6111678585611758565b845460038601805465ff00000000001916600160281b17905560078501805492935090918291905f9061119b908490611bf6565b90915550506002850154156111d357600285015485546111bb9190611bad565b84600b015f8282546111cd9190611bf6565b90915550505b6111df848285856117c0565b6040805182815260208101859052908101839052426060820152339087907f34b356a06378218b842d641adfef56661747ff542e604819d2522801273541239060800160405180910390a3505050505050565b5f546001600160a01b031633146105fb5760405163118cdaa760e01b8152336004820152602401610410565b5f80546001600160a01b038381166001600160a01b0319831681178455604051919092169283917f8be0079c531659141344cd1fd0a4f28419497f9722a3daafe3b4186f6b6457e09190a35050565b5f8281526003602052604081206006810154829042116112cd57426112d3565b81600601545b90508381116112e6575f925050506112f5565b6112f08482611bf6565b925050505b92915050565b5f5b6005548110156113cc575f6005828154811061131b5761131b611c27565b5f9182526020808320604080518082019091526002909302018054835260010154908201819052909250851080156113535750815184115b905080156113b75760405162461bcd60e51b815260206004820152602b60248201527f53657373696f6e2074696d65206f7665726c617073207769746820657869737460448201526a34b7339039b2b9b9b4b7b760a91b6064820152608401610410565b505080806113c490611c3b565b9150506112fd565b505050565b6040516001600160a01b0384811660248301528381166044830152606482018390526114389186918216906323b872dd906084015b604051602081830303815290604052915060e01b6020820180516001600160e01b038381831617835250505050611814565b50505050565b60028054905f61144d83611c3b565b9091555050604080516101a081019091528061146c6020840184611b50565b6001600160a01b0316815260200182602001602081019061148d9190611b50565b6001600160a01b031681526020016114ab6060840160408501611b50565b6001600160a01b0316815260200182606001358152602001826080013581526020018260a0013581526020018260c0013581526020015f81526020018260a001358360c001356114fb9190611bf6565b611509906060850135611bc4565b81525f602080830182905260a085810135604080860182905260608087018690526001608097880181905260028054885260038088528489208b5181546001600160a01b03199081166001600160a01b039283161783558d8b0151838701805483169184169190911790558d88015183860180549092169216919091179055938b0151908401559789015160048301559388015160058083019190915560c0808a0151600684015560e08a015160078401556101008a015160088401556101208a015160098401556101408a0151600a8401556101608a0151600b84015561018090990151600c909201805460ff19169215159290921790915581518083019092529181529590960135918501918252855490810186559490915291517f036b6384b5eca791c62761152d0c79bb0604c104a5fb6f4eb0703f3154bb3db09390910292830155517f036b6384b5eca791c62761152d0c79bb0604c104a5fb6f4eb0703f3154bb3db190910155565b5f828152600360209081526040808320600483528184203380865293529220825490916116af916001600160a01b03169030866113d1565b82815f015f8282546116c19190611be3565b909155505060098201548154670de0b6b3a7640000916116e091611bad565b6116ea9190611bc4565b816001018190555082826007015f8282546117059190611be3565b90915550506007820154604080518581524260208201528082019290925251339186917f893e8a14c42d0303c66e296f4c3e4ed772edf8097f8d41ab8d08099654172ec09181900360600190a350505050565b5f81600201545f0361176b57505f6112f5565b5f838152600360205260408120600b81015490910361178d575f9150506112f5565b600283015483545f9161179f91611bad565b905081600b01548183600401546117b69190611bad565b6112f09190611bc4565b83546117d6906001600160a01b03163385611875565b81156117f55760018401546117f5906001600160a01b03163384611875565b8015611438576002840154611438906001600160a01b03163383611875565b5f6118286001600160a01b03841683611895565b905080515f1415801561184c57508080602001905181019061184a9190611c53565b155b156113cc57604051635274afe760e01b81526001600160a01b0384166004820152602401610410565b805f0361188157505050565b6113cc6001600160a01b03841683836118a9565b60606118a283835f6118da565b9392505050565b6040516001600160a01b038381166024830152604482018390526113cc91859182169063a9059cbb90606401611406565b6060814710156118ff5760405163cd78605960e01b8152306004820152602401610410565b5f80856001600160a01b0316848660405161191a9190611c72565b5f6040518083038185875af1925050503d805f8114611954576040519150601f19603f3d011682016040523d82523d5f602084013e611959565b606091505b5091509150611969868383611973565b9695505050505050565b60608261198857611983826119cf565b6118a2565b815115801561199f57506001600160a01b0384163b155b156119c857604051639996b31560e01b81526001600160a01b0385166004820152602401610410565b50806118a2565b8051156119df5780518082602001fd5b604051630a12f52160e11b815260040160405180910390fd5b80356001600160a01b0381168114611a0e575f80fd5b919050565b5f8060408385031215611a24575f80fd5b82359150611a34602084016119f8565b90509250929050565b5f60208284031215611a4d575f80fd5b5035919050565b81516001600160a01b031681526101a081016020830151611a8060208401826001600160a01b03169052565b506040830151611a9b60408401826001600160a01b03169052565b50606083015160608301526080830151608083015260a083015160a083015260c083015160c083015260e083015160e083015261010080840151818401525061012080840151818401525061014080840151818401525061016080840151818401525061018080840151611b128285018215159052565b505092915050565b5f60e08284031215611b2a575f80fd5b50919050565b5f8060408385031215611b41575f80fd5b50508035926020909101359150565b5f60208284031215611b60575f80fd5b6118a2826119f8565b60208082526016908201527514d95cdcda5bdb88191bd95cc81b9bdd08195e1a5cdd60521b604082015260600190565b634e487b7160e01b5f52601160045260245ffd5b80820281158282048414176112f5576112f5611b99565b5f82611bde57634e487b7160e01b5f52601260045260245ffd5b500490565b808201808211156112f5576112f5611b99565b818103818111156112f5576112f5611b99565b64ffffffffff81811683821601908082111561048657610486611b99565b634e487b7160e01b5f52603260045260245ffd5b5f60018201611c4c57611c4c611b99565b5060010190565b5f60208284031215611c63575f80fd5b815180151581146118a2575f80fd5b5f82515f5b81811015611c915760208186018101518583015201611c77565b505f92019182525091905056fea26469706673582212203024786170d97766f520f47df7a8fbd04df255c83b92ce49c013026effa87f9a64736f6c63430008140033","linkReferences":{}},"methodIdentifiers":{"checkIn(uint256)":"e95a644f","createSession((address,address,address,uint256,uint256,uint256,uint256))":"ba604a27","currentSessionId()":"6597a130","deposit(uint256,uint256)":"e2bbb158","getSessionInfo(uint256)":"9e10acf0","getUserInfo(uint256,address)":"1069f3b5","owner()":"8da5cb5b","pendingCheckInReward(uint256,address)":"7763b0df","pendingReward(uint256,address)":"98969e82","renounceOwnership()":"715018a6","sessions(uint256)":"83c4b7a3","transferOwnership(address)":"f2fde38b","userInfo(uint256,address)":"93f1a40b","withdraw(uint256)":"2e1a7d4d"},"id":25}