{"abi":[{"type":"constructor","inputs":[{"name":"_initialOwner","type":"address","internalType":"address"}],"stateMutability":"nonpayable"},{"type":"function","name":"checkIn","inputs":[{"name":"_sessionId","type":"uint256","internalType":"uint256"}],"outputs":[],"stateMutability":"nonpayable"},{"type":"function","name":"createSession","inputs":[{"name":"params","type":"tuple","internalType":"struct Staking.CreateSessionParams","components":[{"name":"stakingToken","type":"address","internalType":"address"},{"name":"rewardToken","type":"address","internalType":"address"},{"name":"checkInRewardToken","type":"address","internalType":"address"},{"name":"totalReward","type":"uint256","internalType":"uint256"},{"name":"checkInRewardPool","type":"uint256","internalType":"uint256"},{"name":"startTime","type":"uint256","internalType":"uint256"},{"name":"endTime","type":"uint256","internalType":"uint256"}]}],"outputs":[],"stateMutability":"nonpayable"},{"type":"function","name":"currentSessionId","inputs":[],"outputs":[{"name":"","type":"uint256","internalType":"uint256"}],"stateMutability":"view"},{"type":"function","name":"deposit","inputs":[{"name":"_sessionId","type":"uint256","internalType":"uint256"},{"name":"_amount","type":"uint256","internalType":"uint256"}],"outputs":[],"stateMutability":"nonpayable"},{"type":"function","name":"getBoostRewardBreakdown","inputs":[{"name":"_sessionId","type":"uint256","internalType":"uint256"},{"name":"_user","type":"address","internalType":"address"}],"outputs":[{"name":"stakeReward","type":"uint256","internalType":"uint256"},{"name":"hybridReward","type":"uint256","internalType":"uint256"}],"stateMutability":"view"},{"type":"function","name":"getPendingRewards","inputs":[{"name":"_sessionId","type":"uint256","internalType":"uint256"},{"name":"_user","type":"address","internalType":"address"}],"outputs":[{"name":"stakingReward","type":"uint256","internalType":"uint256"},{"name":"boostReward","type":"uint256","internalType":"uint256"}],"stateMutability":"view"},{"type":"function","name":"getSessionInfo","inputs":[{"name":"_sessionId","type":"uint256","internalType":"uint256"}],"outputs":[{"name":"","type":"tuple","internalType":"struct Staking.Session","components":[{"name":"stakingToken","type":"address","internalType":"address"},{"name":"rewardToken","type":"address","internalType":"address"},{"name":"checkInRewardToken","type":"address","internalType":"address"},{"name":"totalReward","type":"uint256","internalType":"uint256"},{"name":"checkInRewardPool","type":"uint256","internalType":"uint256"},{"name":"startTime","type":"uint256","internalType":"uint256"},{"name":"endTime","type":"uint256","internalType":"uint256"},{"name":"totalStaked","type":"uint256","internalType":"uint256"},{"name":"rewardPerSecond","type":"uint256","internalType":"uint256"},{"name":"accRewardPerShare","type":"uint256","internalType":"uint256"},{"name":"lastRewardTime","type":"uint256","internalType":"uint256"},{"name":"totalWeightedStake","type":"uint256","internalType":"uint256"},{"name":"totalBoostPoints","type":"uint256","internalType":"uint256"},{"name":"gamma","type":"uint256","internalType":"uint256"},{"name":"active","type":"bool","internalType":"bool"}]}],"stateMutability":"view"},{"type":"function","name":"getUserInfo","inputs":[{"name":"_sessionId","type":"uint256","internalType":"uint256"},{"name":"_user","type":"address","internalType":"address"}],"outputs":[{"name":"","type":"tuple","internalType":"struct Staking.UserInfo","components":[{"name":"amount","type":"uint256","internalType":"uint256"},{"name":"rewardDebt","type":"uint256","internalType":"uint256"},{"name":"accumulatedReward","type":"uint256","internalType":"uint256"},{"name":"boost","type":"uint256","internalType":"uint256"},{"name":"lastCheckInTime","type":"uint40","internalType":"uint40"},{"name":"hasWithdrawn","type":"bool","internalType":"bool"}]}],"stateMutability":"view"},{"type":"function","name":"owner","inputs":[],"outputs":[{"name":"","type":"address","internalType":"address"}],"stateMutability":"view"},{"type":"function","name":"pendingBoostReward","inputs":[{"name":"_sessionId","type":"uint256","internalType":"uint256"},{"name":"_user","type":"address","internalType":"address"}],"outputs":[{"name":"","type":"uint256","internalType":"uint256"}],"stateMutability":"view"},{"type":"function","name":"pendingReward","inputs":[{"name":"_sessionId","type":"uint256","internalType":"uint256"},{"name":"_user","type":"address","internalType":"address"}],"outputs":[{"name":"","type":"uint256","internalType":"uint256"}],"stateMutability":"view"},{"type":"function","name":"renounceOwnership","inputs":[],"outputs":[],"stateMutability":"nonpayable"},{"type":"function","name":"sessions","inputs":[{"name":"","type":"uint256","internalType":"uint256"}],"outputs":[{"name":"stakingToken","type":"address","internalType":"address"},{"name":"rewardToken","type":"address","internalType":"address"},{"name":"checkInRewardToken","type":"address","internalType":"address"},{"name":"totalReward","type":"uint256","internalType":"uint256"},{"name":"checkInRewardPool","type":"uint256","internalType":"uint256"},{"name":"startTime","type":"uint256","internalType":"uint256"},{"name":"endTime","type":"uint256","internalType":"uint256"},{"name":"totalStaked","type":"uint256","internalType":"uint256"},{"name":"rewardPerSecond","type":"uint256","internalType":"uint256"},{"name":"accRewardPerShare","type":"uint256","internalType":"uint256"},{"name":"lastRewardTime","type":"uint256","internalType":"uint256"},{"name":"totalWeightedStake","type":"uint256","internalType":"uint256"},{"name":"totalBoostPoints","type":"uint256","internalType":"uint256"},{"name":"gamma","type":"uint256","internalType":"uint256"},{"name":"active","type":"bool","internalType":"bool"}],"stateMutability":"view"},{"type":"function","name":"setGamma","inputs":[{"name":"_sessionId","type":"uint256","internalType":"uint256"},{"name":"_gamma","type":"uint256","internalType":"uint256"}],"outputs":[],"stateMutability":"nonpayable"},{"type":"function","name":"transferOwnership","inputs":[{"name":"newOwner","type":"address","internalType":"address"}],"outputs":[],"stateMutability":"nonpayable"},{"type":"function","name":"userInfo","inputs":[{"name":"","type":"uint256","internalType":"uint256"},{"name":"","type":"address","internalType":"address"}],"outputs":[{"name":"amount","type":"uint256","internalType":"uint256"},{"name":"rewardDebt","type":"uint256","internalType":"uint256"},{"name":"accumulatedReward","type":"uint256","internalType":"uint256"},{"name":"boost","type":"uint256","internalType":"uint256"},{"name":"lastCheckInTime","type":"uint40","internalType":"uint40"},{"name":"hasWithdrawn","type":"bool","internalType":"bool"}],"stateMutability":"view"},{"type":"function","name":"withdraw","inputs":[{"name":"_sessionId","type":"uint256","internalType":"uint256"}],"outputs":[],"stateMutability":"nonpayable"},{"type":"event","name":"CheckedIn","inputs":[{"name":"sessionId","type":"uint256","indexed":true,"internalType":"uint256"},{"name":"user","type":"address","indexed":true,"internalType":"address"},{"name":"timestamp","type":"uint256","indexed":false,"internalType":"uint256"}],"anonymous":false},{"type":"event","name":"Deposited","inputs":[{"name":"sessionId","type":"uint256","indexed":true,"internalType":"uint256"},{"name":"user","type":"address","indexed":true,"internalType":"address"},{"name":"amount","type":"uint256","indexed":false,"internalType":"uint256"},{"name":"timestamp","type":"uint256","indexed":false,"internalType":"uint256"},{"name":"totalStaked","type":"uint256","indexed":false,"internalType":"uint256"}],"anonymous":false},{"type":"event","name":"OwnershipTransferred","inputs":[{"name":"previousOwner","type":"address","indexed":true,"internalType":"address"},{"name":"newOwner","type":"address","indexed":true,"internalType":"address"}],"anonymous":false},{"type":"event","name":"SessionCreated","inputs":[{"name":"sessionId","type":"uint256","indexed":true,"internalType":"uint256"},{"name":"stakingToken","type":"address","indexed":true,"internalType":"address"},{"name":"rewardToken","type":"address","indexed":true,"internalType":"address"},{"name":"checkInRewardToken","type":"address","indexed":false,"internalType":"address"},{"name":"totalReward","type":"uint256","indexed":false,"internalType":"uint256"},{"name":"checkInRewardPool","type":"uint256","indexed":false,"internalType":"uint256"},{"name":"startTime","type":"uint256","indexed":false,"internalType":"uint256"},{"name":"endTime","type":"uint256","indexed":false,"internalType":"uint256"}],"anonymous":false},{"type":"event","name":"Withdrawn","inputs":[{"name":"sessionId","type":"uint256","indexed":true,"internalType":"uint256"},{"name":"user","type":"address","indexed":true,"internalType":"address"},{"name":"stakedAmount","type":"uint256","indexed":false,"internalType":"uint256"},{"name":"rewardAmount","type":"uint256","indexed":false,"internalType":"uint256"},{"name":"checkInReward","type":"uint256","indexed":false,"internalType":"uint256"},{"name":"timestamp","type":"uint256","indexed":false,"internalType":"uint256"}],"anonymous":false},{"type":"error","name":"AddressEmptyCode","inputs":[{"name":"target","type":"address","internalType":"address"}]},{"type":"error","name":"AddressInsufficientBalance","inputs":[{"name":"account","type":"address","internalType":"address"}]},{"type":"error","name":"FailedInnerCall","inputs":[]},{"type":"error","name":"OwnableInvalidOwner","inputs":[{"name":"owner","type":"address","internalType":"address"}]},{"type":"error","name":"OwnableUnauthorizedAccount","inputs":[{"name":"account","type":"address","internalType":"address"}]},{"type":"error","name":"ReentrancyGuardReentrantCall","inputs":[]},{"type":"error","name":"SafeERC20FailedOperation","inputs":[{"name":"token","type":"address","internalType":"address"}]}],"bytecode":{"object":"0x6080346100c157601f611f7f38819003918201601f19168301916001600160401b038311848410176100c5578084926020946040528339810103126100c157516001600160a01b0390818116908190036100c15780156100a9575f80546001600160a01b03198116831782556040519316907f8be0079c531659141344cd1fd0a4f28419497f9722a3daafe3b4186f6b6457e09080a3600180555f600255611ea590816100da8239f35b604051631e4fbdf760e01b81525f6004820152602490fd5b5f80fd5b634e487b7160e01b5f52604160045260245ffdfe6080806040526004361015610012575f80fd5b5f3560e01c9081631069f3b51461153d5750806318eb2932146114485780632e1a7d4d1461121d5780636597a13014611200578063715018a6146111a957806373cb07d81461113e57806383c4b7a31461106157806385dc0aaf14610f1e5780638da5cb5b14610ef757806393f1a40b14610e7257806398969e8214610d275780639e10acf014610b0c578063ba604a2714610586578063c5af161e14610535578063e2bbb15814610349578063e95a644f146101675763f2fde38b146100d7575f80fd5b34610163576020366003190112610163576004356001600160a01b038181169182900361016357610106611672565b811561014b575f54826bffffffffffffffffffffffff60a01b8216175f55167f8be0079c531659141344cd1fd0a4f28419497f9722a3daafe3b4186f6b6457e05f80a3005b604051631e4fbdf760e01b81525f6004820152602490fd5b5f80fd5b3461016357602080600319360112610163576004356101846119ae565b8015158061033d575b610196906118eb565b805f52600382526101c0600660405f206101b66005820154421015611930565b0154421115611972565b805f526004825260405f20335f52825260405f20815f526003835260405f2090805480156102f857600482019264ffffffffff9261012c848654160184811161029f57841642106102b35760030180549261021b84826119d1565b916001850180951161029f578461024d92600c9661023993556119d1565b610248600b85019384546119f1565b6119e4565b9055018054906001820180921161029f5755421664ffffffffff198254161790557f6b2e4e52ba8b5cff4a90d18b1efd0f88c74ed562b5dd3b13f01a1759699b2db2604051924284523393a360018055005b634e487b7160e01b5f52601160045260245ffd5b60405162461bcd60e51b815260048101889052601d60248201527f436865636b2d696e20636f6f6c646f776e206e6f7420657870697265640000006044820152606490fd5b60405162461bcd60e51b815260048101869052601a60248201527f4d757374207374616b65206265666f726520636865636b2d696e0000000000006044820152606490fd5b5060025481111561018d565b34610163576103573661165c565b906103606119ae565b80151580610529575b610372906118eb565b805f52602060038152610394600660405f206101b66005820154421015611930565b82156104e5576103a382611d1f565b815f5260038152600760405f206004835260405f20335f52835260405f206103d88660018060a01b0384541630903390611734565b80548061049c575b600382015480610464575b50506001670de0b6b3a76400006104146104068985546119e4565b8085556009860154906119d1565b0491015501906104258483546119e4565b809255604051938452429084015260408301527f893e8a14c42d0303c66e296f4c3e4ed772edf8097f8d41ab8d08099654172ec060603393a360018055005b6104848161047f8a61047961049395876119d1565b956119e4565b6119d1565b610248600b86019384546119f1565b905586806103eb565b6104c2670de0b6b3a76400006104b66009860154846119d1565b046001840154906119f1565b806104ce575b506103e0565b6104dd600284019182546119e4565b9055876104c8565b6064906040519062461bcd60e51b82526004820152601d60248201527f416d6f756e74206d7573742062652067726561746572207468616e20300000006044820152fd5b50600254811115610369565b3461016357604036600319011261016357604061056e600435610556611646565b908015158061057a575b610569906118eb565b611a1c565b82519182526020820152f35b50600254811115610560565b346101635760e03660031901126101635761059f611672565b60a43542811115610ac75760c43581811115610a7857606435908115610a275760843580156109cf5760055480156109b4575f19810190811161029f576105e590611b9d565b506001604051916105f583611718565b80548352015460208201525b6020810151851090816109a9575b5061095057600254806108ef575b5061063c836001600160a01b0361063261169d565b1630903390611734565b6106588130336001600160a01b036106526116b3565b16611734565b6002545f19811461029f576001810160025560016106746116c9565b9161067d61169d565b6106856116b3565b6106986106928a896119f1565b896119fe565b91604051956106a6876116fb565b858060a01b03168652848060a01b03166020860152838060a01b031660408501528660608501528460808501528760a08501528560c08501525f60e08501526101008401525f610120840152866101408401525f6101608401525f610180840152670853a0d2313c00006101a0840152816101c0840152015f5260036020526101c0600e60405f2060018060a01b038451166bffffffffffffffffffffffff60a01b90818354161782556001820160018060a01b0360208701511682825416179055600282019060018060a01b0360408701511690825416179055606084015160038201556080840151600482015560a0840151600582015560c0840151600682015560e0840151600782015561010084015160088201556101208401516009820155610140840151600a820155610160840151600b820155610180840151600c8201556101a0840151600d82015501910151151560ff801983541691161790556040519061081482611718565b8482526020820190838252600554680100000000000000008110156108db578060016108439201600555611b9d565b6108c857600160a0937ff0bf75f9e537ccf1d0c0fa20533c3c4afad7f030f84c6bdd91c30c7da3dbc0899551835551910155600254936108816116c9565b9661088a61169d565b926108936116b3565b9760405198600180881b031689526020890152604088015260608701526080860152600180831b031694600180831b031693a4005b634e487b7160e01b5f525f60045260245ffd5b634e487b7160e01b5f52604160045260245ffd5b5f526003602052600660405f20015442111561090b578461061d565b60405162461bcd60e51b815260206004820152601a60248201527f50726576696f75732073657373696f6e206e6f7420656e6465640000000000006044820152606490fd5b60405162461bcd60e51b815260206004820152602b60248201527f53657373696f6e2074696d65206f7665726c617073207769746820657869737460448201526a34b7339039b2b9b9b4b7b760a91b6064820152608490fd5b90505182118561060f565b506040516109c181611718565b5f81525f6020820152610601565b60405162461bcd60e51b815260206004820152602a60248201527f436865636b496e2072657761726420706f6f6c206d75737420626520677265616044820152690746572207468616e20360b41b6064820152608490fd5b60405162461bcd60e51b815260206004820152602360248201527f546f74616c20726577617264206d75737420626520677265617465722074686160448201526206e20360ec1b6064820152608490fd5b60405162461bcd60e51b815260206004820152602160248201527f456e642074696d65206d7573742062652061667465722073746172742074696d6044820152606560f81b6064820152608490fd5b60405162461bcd60e51b815260206004820152601c60248201527f53746172742074696d65206d75737420626520696e20667574757265000000006044820152606490fd5b34610163576020366003190112610163575f6101c0604051610b2d816116fb565b8281528260208201528260408201528260608201528260808201528260a08201528260c08201528260e08201528261010082015282610120820152826101408201528261016082015282610180820152826101a0820152015260043580151580610d1b575b610b9b906118eb565b5f5260036020526101e060405f206101c0604051610bb8816116fb565b60ff600e60018060a01b038554169485845260018060a01b03600182015416602085015260018060a01b0360028201541660408501526003810154606085015260048101546080850152600581015460a0850152600681015460c0850152600781015460e085015260088101546101008501526009810154610120850152600a810154610140850152600b810154610160850152600c810154610180850152600d8101546101a085015201541615158282015260405192835260018060a01b03602082015116602084015260018060a01b036040820151166040840152606081015160608401526080810151608084015260a081015160a084015260c081015160c084015260e081015160e08401526101008101516101008401526101208101516101208401526101408101516101408401526101608101516101608401526101808101516101808401526101a08101516101a0840152015115156101c0820152f35b50600254811115610b92565b3461016357604036600319011261016357600435610d43611646565b81151580610e66575b610d55906118eb565b815f52600360205260405f2090600460205260405f209060018060a01b03165f5260205260405f2060028101549181549081610d97575b602084604051908152f35b600981015494600a8201549081421180610e59575b610deb575b505050610de392916001670de0b6b3a7640000610dd3602097610ddd956119d1565b04910154906119f1565b906119e4565b828080610d8c565b610e0791610dfc9196959396611dd8565b6008860154906119d1565b670de0b6b3a76400009081810291818304149015171561029f57670de0b6b3a7640000610dd3610ddd94610e4b602099610ddd6001966007610de39c0154906119fe565b985094505082949550610db1565b5060078301541515610dac565b50600254821115610d4c565b3461016357604036600319011261016357610e8b611646565b6004355f52600460205260405f209060018060a01b03165f5260205260c060405f2060ff8154916001810154906002810154600460038301549201549260405195865260208601526040850152606084015264ffffffffff8116608084015260281c16151560a0820152f35b34610163575f366003190112610163575f546040516001600160a01b039091168152602090f35b3461016357604036600319011261016357600435610f3a611646565b81151580611055575b610f4c906118eb565b815f52600360205260405f2090600460205260405f209060018060a01b03165f5260205260405f20600281015491815480610f8f575b60408461056e8588611be9565b600982959492015494600a81015480421180611048575b610fe3575b505061056e9291610ddd670de0b6b3a7640000610fcd604098610fd9956119d1565b046001850154906119f1565b9293819250610f82565b610dfc610ff4918796959396611dd8565b670de0b6b3a76400009081810291818304149015171561029f57670de0b6b3a7640000610fcd610fd99461103960409a610ddd610ddd96600761056e9c0154906119fe565b99509450505081939450610fab565b5060078201541515610fa6565b50600254821115610f43565b34610163576020366003190112610163576004355f52600360205260405f20600160a01b60019003908181541690826001820154169260028201541660038201546004830154600584015460068501546007860154600887015491600988015493600a89015495600b8a015497600c8b015499600d8c01549b600e015460ff169c6040519e8f91825260208201526040015260608d015260808c015260a08b015260c08a015260e08901526101008801526101208701526101408601526101608501526101808401526101a083015215156101c08201526101e090f35b3461016357604036600319011261016357602061119560043561115f611646565b8115158061119d575b611171906118eb565b5f8281526004855260408082206001600160a01b0390931682529185522090611be9565b604051908152f35b50600254821115611168565b34610163575f366003190112610163576111c1611672565b5f80546001600160a01b0319811682556001600160a01b03167f8be0079c531659141344cd1fd0a4f28419497f9722a3daafe3b4186f6b6457e08280a3005b34610163575f366003190112610163576020600254604051908152f35b34610163576020806003193601126101635760043561123a6119ae565b8015158061143c575b61124c906118eb565b805f5260038252600660405f2001544211156113ff57805f526004825260405f20335f52825260405f208054156113c757600481019060ff825460281c1661138e5761129783611d1f565b825f526003845260405f20936002820154946112df6112d8845497610ddd670de0b6b3a76400006112cc60098701548c6119d1565b046001880154906119f1565b9386611be9565b845465ff00000000001916650100000000001790945580546001600160a01b0391859161131190899033908616611e11565b84611378575b81611360575b50505060405194855284015260408301524260608301527f34b356a06378218b842d641adfef56661747ff542e604819d25228012735412360803393a360018055005b6113709260023392015416611e11565b85838161131d565b611389853385600185015416611e11565b611317565b60405162461bcd60e51b815260048101859052601160248201527020b63932b0b23c903bb4ba34323930bbb760791b6044820152606490fd5b60405162461bcd60e51b815260048101849052601060248201526f139bc81cdd185ad95908185b5bdd5b9d60821b6044820152606490fd5b60405162461bcd60e51b815260048101839052601560248201527414d95cdcda5bdb881b9bdd08195b991959081e595d605a1b6044820152606490fd5b50600254811115611243565b34610163576114563661165c565b9061145f611672565b80151580611531575b611471906118eb565b5f52600360205260405f2060058101544210156114da57670de0b6b3a7640000821161149d57600d0155005b60405162461bcd60e51b815260206004820152601560248201527408ec2dadac240daeae6e840c4ca40787a4062ca627605b1b6044820152606490fd5b60405162461bcd60e51b815260206004820152602960248201527f43616e6e6f74206d6f646966792067616d6d612061667465722073657373696f6044820152681b881cdd185c9d195960ba1b6064820152608490fd5b50600254811115611468565b34610163576040366003190112610163576004355f60a061155c611646565b93611566816116df565b82815282602082015282604082015282606082015282608082015201528015158061163a575b611595906118eb565b5f52600460205260405f209060018060a01b03165f5260205260c060405f20604051906115c1826116df565b80549182815260018201546020820190815260028301549260408301938452600460038201549160608501928352015493608084019260ff60a064ffffffffff968789168752019660281c16151586526040519687525160208701525160408601525160608501525116608083015251151560a0820152f35b5060025481111561158c565b602435906001600160a01b038216820361016357565b6040906003190112610163576004359060243590565b5f546001600160a01b0316330361168557565b60405163118cdaa760e01b8152336004820152602490fd5b6024356001600160a01b03811681036101635790565b6044356001600160a01b03811681036101635790565b6004356001600160a01b03811681036101635790565b60c0810190811067ffffffffffffffff8211176108db57604052565b6101e0810190811067ffffffffffffffff8211176108db57604052565b6040810190811067ffffffffffffffff8211176108db57604052565b6040516323b872dd60e01b60208201526001600160a01b03928316602482015292909116604483015260648083019390935291815260a081019181831067ffffffffffffffff8411176108db5761178d9260405261178f565b565b60018060a01b0316905f80826020829451910182865af13d1561187c5767ffffffffffffffff903d8281116118685760405192601f8201601f19908116603f01168401908111848210176118545760405282526117f591903d84602084013e5b84611888565b908151918215159283611825575b50505061180d5750565b60249060405190635274afe760e01b82526004820152fd5b81929350906020918101031261185057602001519081159182150361184d57505f8080611803565b80fd5b5080fd5b634e487b7160e01b85526041600452602485fd5b634e487b7160e01b84526041600452602484fd5b6117f5906060906117ef565b906118af575080511561189d57805190602001fd5b604051630a12f52160e11b8152600490fd5b815115806118e2575b6118c0575090565b604051639996b31560e01b81526001600160a01b039091166004820152602490fd5b50803b156118b8565b156118f257565b60405162461bcd60e51b815260206004820152601660248201527514d95cdcda5bdb88191bd95cc81b9bdd08195e1a5cdd60521b6044820152606490fd5b1561193757565b60405162461bcd60e51b815260206004820152601360248201527214d95cdcda5bdb881b9bdd081cdd185c9d1959606a1b6044820152606490fd5b1561197957565b60405162461bcd60e51b815260206004820152600d60248201526c14d95cdcda5bdb88195b991959609a1b6044820152606490fd5b6002600154146119bf576002600155565b604051633ee5aeb560e01b8152600490fd5b8181029291811591840414171561029f57565b9190820180921161029f57565b9190820391821161029f57565b8115611a08570490565b634e487b7160e01b5f52601260045260245ffd5b91905f928352600360205260408320906004602052604084209060018060a01b031684526020526040832090815490811591828015611b91575b8015611b85575b611b7d57600482015495670de0b6b3a76400009182611a80600d8601548a6119d1565b049483820291820484141715611b69576003611ab7611aa4600787015480946119fe565b9685611ab089836119d1565b049a6119f1565b9601549083820291808304851490151715611b5557600b84611ae7611ae1600c89015480966119fe565b896119d1565b049501549284840293808504861490151715611b415750611b129291611b0c916119d1565b906119fe565b928315611b30575050611b2890611b2d936119d1565b6119fe565b90565b915092611b3d92506119d1565b0490565b634e487b7160e01b81526011600452602490fd5b634e487b7160e01b83526011600452602483fd5b634e487b7160e01b82526011600452602482fd5b505050508190565b50600384015415611a5d565b50600782015415611a56565b600554811015611bd55760055f5260011b7f036b6384b5eca791c62761152d0c79bb0604c104a5fb6f4eb0703f3154bb3db001905f90565b634e487b7160e01b5f52603260045260245ffd5b91905f92835260036020526040832090805490811590818015611d13575b611d0d5760030154928315611d0d57600481015493670de0b6b3a76400009081611c35600d850154886119d1565b049382860295860483141715611cf957611c6a611c57600785015480976119fe565b9483611c6387836119d1565b04976119f1565b948282029182048303611ce557600b83611c92611c8c600c88015480966119fe565b886119d1565b0494015498838a0299808b04851490151715611b41575097611b0c611cbb92611b2d999a6119d1565b928315611cd1575050611b2890610ddd936119d1565b915092611cde92506119d1565b04906119e4565b634e487b7160e01b89526011600452602489fd5b634e487b7160e01b88526011600452602488fd5b50505050565b50600784015415611c07565b5f818152600360205260408120600a8101928354421115611d0d576007820154908115611dc357611d55611d6091865490611dd8565b6008840154906119d1565b670de0b6b3a764000090818102918183041490151715611daf5760069291611d87916119fe565b611d96600983019182546119e4565b9055015490508042115f14611da9579055565b50429055565b634e487b7160e01b84526011600452602484fd5b50506006015490508042115f14611da9579055565b5f526003602052600660405f2001548042115f14611e0957905b80821115611e0357611b2d916119f1565b50505f90565b504290611df2565b91908115611e6a5760405163a9059cbb60e01b60208201526001600160a01b039182166024820152604480820193909352918252608082019267ffffffffffffffff8411838510176108db5761178d936040521661178f565b50505056fea2646970667358221220fa4e6a84b52fa4f57014a2f320b9f58efe664270385fc3307561ff22030eed3f64736f6c63430008140033","linkReferences":{}},"methodIdentifiers":{"checkIn(uint256)":"e95a644f","createSession((address,address,address,uint256,uint256,uint256,uint256))":"ba604a27","currentSessionId()":"6597a130","deposit(uint256,uint256)":"e2bbb158","getBoostRewardBreakdown(uint256,address)":"c5af161e","getPendingRewards(uint256,address)":"85dc0aaf","getSessionInfo(uint256)":"9e10acf0","getUserInfo(uint256,address)":"1069f3b5","owner()":"8da5cb5b","pendingBoostReward(uint256,address)":"73cb07d8","pendingReward(uint256,address)":"98969e82","renounceOwnership()":"715018a6","sessions(uint256)":"83c4b7a3","setGamma(uint256,uint256)":"18eb2932","transferOwnership(address)":"f2fde38b","userInfo(uint256,address)":"93f1a40b","withdraw(uint256)":"2e1a7d4d"},"id":33}