{"abi":[{"type":"constructor","inputs":[{"name":"_initialOwner","type":"address","internalType":"address"}],"stateMutability":"nonpayable"},{"type":"receive","stateMutability":"payable"},{"type":"function","name":"checkIn","inputs":[{"name":"_sessionId","type":"uint256","internalType":"uint256"}],"outputs":[],"stateMutability":"nonpayable"},{"type":"function","name":"createSession","inputs":[{"name":"params","type":"tuple","internalType":"struct Staking.CreateSessionParams","components":[{"name":"stakingToken","type":"address","internalType":"address"},{"name":"rewardToken","type":"address","internalType":"address"},{"name":"checkInRewardToken","type":"address","internalType":"address"},{"name":"totalReward","type":"uint256","internalType":"uint256"},{"name":"checkInRewardPool","type":"uint256","internalType":"uint256"},{"name":"startTime","type":"uint256","internalType":"uint256"},{"name":"endTime","type":"uint256","internalType":"uint256"}]}],"outputs":[],"stateMutability":"payable"},{"type":"function","name":"currentSessionId","inputs":[],"outputs":[{"name":"","type":"uint256","internalType":"uint256"}],"stateMutability":"view"},{"type":"function","name":"deposit","inputs":[{"name":"_sessionId","type":"uint256","internalType":"uint256"},{"name":"_amount","type":"uint256","internalType":"uint256"}],"outputs":[],"stateMutability":"payable"},{"type":"function","name":"getSessionInfo","inputs":[{"name":"_sessionId","type":"uint256","internalType":"uint256"}],"outputs":[{"name":"","type":"tuple","internalType":"struct Staking.Session","components":[{"name":"stakingToken","type":"address","internalType":"address"},{"name":"rewardToken","type":"address","internalType":"address"},{"name":"checkInRewardToken","type":"address","internalType":"address"},{"name":"totalReward","type":"uint256","internalType":"uint256"},{"name":"checkInRewardPool","type":"uint256","internalType":"uint256"},{"name":"startTime","type":"uint256","internalType":"uint256"},{"name":"endTime","type":"uint256","internalType":"uint256"},{"name":"totalStaked","type":"uint256","internalType":"uint256"},{"name":"rewardPerSecond","type":"uint256","internalType":"uint256"},{"name":"accRewardPerShare","type":"uint256","internalType":"uint256"},{"name":"lastRewardTime","type":"uint256","internalType":"uint256"},{"name":"totalWeightedStake","type":"uint256","internalType":"uint256"},{"name":"active","type":"bool","internalType":"bool"}]}],"stateMutability":"view"},{"type":"function","name":"getUserInfo","inputs":[{"name":"_sessionId","type":"uint256","internalType":"uint256"},{"name":"_user","type":"address","internalType":"address"}],"outputs":[{"name":"","type":"tuple","internalType":"struct Staking.UserInfo","components":[{"name":"amount","type":"uint256","internalType":"uint256"},{"name":"rewardDebt","type":"uint256","internalType":"uint256"},{"name":"boost","type":"uint256","internalType":"uint256"},{"name":"lastCheckInTime","type":"uint40","internalType":"uint40"},{"name":"hasWithdrawn","type":"bool","internalType":"bool"}]}],"stateMutability":"view"},{"type":"function","name":"owner","inputs":[],"outputs":[{"name":"","type":"address","internalType":"address"}],"stateMutability":"view"},{"type":"function","name":"pause","inputs":[],"outputs":[],"stateMutability":"nonpayable"},{"type":"function","name":"paused","inputs":[],"outputs":[{"name":"","type":"bool","internalType":"bool"}],"stateMutability":"view"},{"type":"function","name":"pendingCheckInReward","inputs":[{"name":"_sessionId","type":"uint256","internalType":"uint256"},{"name":"_user","type":"address","internalType":"address"}],"outputs":[{"name":"","type":"uint256","internalType":"uint256"}],"stateMutability":"view"},{"type":"function","name":"pendingReward","inputs":[{"name":"_sessionId","type":"uint256","internalType":"uint256"},{"name":"_user","type":"address","internalType":"address"}],"outputs":[{"name":"","type":"uint256","internalType":"uint256"}],"stateMutability":"view"},{"type":"function","name":"renounceOwnership","inputs":[],"outputs":[],"stateMutability":"nonpayable"},{"type":"function","name":"sessions","inputs":[{"name":"","type":"uint256","internalType":"uint256"}],"outputs":[{"name":"stakingToken","type":"address","internalType":"address"},{"name":"rewardToken","type":"address","internalType":"address"},{"name":"checkInRewardToken","type":"address","internalType":"address"},{"name":"totalReward","type":"uint256","internalType":"uint256"},{"name":"checkInRewardPool","type":"uint256","internalType":"uint256"},{"name":"startTime","type":"uint256","internalType":"uint256"},{"name":"endTime","type":"uint256","internalType":"uint256"},{"name":"totalStaked","type":"uint256","internalType":"uint256"},{"name":"rewardPerSecond","type":"uint256","internalType":"uint256"},{"name":"accRewardPerShare","type":"uint256","internalType":"uint256"},{"name":"lastRewardTime","type":"uint256","internalType":"uint256"},{"name":"totalWeightedStake","type":"uint256","internalType":"uint256"},{"name":"active","type":"bool","internalType":"bool"}],"stateMutability":"view"},{"type":"function","name":"transferOwnership","inputs":[{"name":"newOwner","type":"address","internalType":"address"}],"outputs":[],"stateMutability":"nonpayable"},{"type":"function","name":"unpause","inputs":[],"outputs":[],"stateMutability":"nonpayable"},{"type":"function","name":"userInfo","inputs":[{"name":"","type":"uint256","internalType":"uint256"},{"name":"","type":"address","internalType":"address"}],"outputs":[{"name":"amount","type":"uint256","internalType":"uint256"},{"name":"rewardDebt","type":"uint256","internalType":"uint256"},{"name":"boost","type":"uint256","internalType":"uint256"},{"name":"lastCheckInTime","type":"uint40","internalType":"uint40"},{"name":"hasWithdrawn","type":"bool","internalType":"bool"}],"stateMutability":"view"},{"type":"function","name":"withdraw","inputs":[{"name":"_sessionId","type":"uint256","internalType":"uint256"}],"outputs":[],"stateMutability":"nonpayable"},{"type":"event","name":"CheckedIn","inputs":[{"name":"sessionId","type":"uint256","indexed":true,"internalType":"uint256"},{"name":"user","type":"address","indexed":true,"internalType":"address"},{"name":"timestamp","type":"uint256","indexed":false,"internalType":"uint256"}],"anonymous":false},{"type":"event","name":"Deposited","inputs":[{"name":"sessionId","type":"uint256","indexed":true,"internalType":"uint256"},{"name":"user","type":"address","indexed":true,"internalType":"address"},{"name":"amount","type":"uint256","indexed":false,"internalType":"uint256"},{"name":"timestamp","type":"uint256","indexed":false,"internalType":"uint256"},{"name":"totalStaked","type":"uint256","indexed":false,"internalType":"uint256"}],"anonymous":false},{"type":"event","name":"OwnershipTransferred","inputs":[{"name":"previousOwner","type":"address","indexed":true,"internalType":"address"},{"name":"newOwner","type":"address","indexed":true,"internalType":"address"}],"anonymous":false},{"type":"event","name":"Paused","inputs":[{"name":"account","type":"address","indexed":false,"internalType":"address"}],"anonymous":false},{"type":"event","name":"SessionCreated","inputs":[{"name":"sessionId","type":"uint256","indexed":true,"internalType":"uint256"},{"name":"stakingToken","type":"address","indexed":true,"internalType":"address"},{"name":"rewardToken","type":"address","indexed":true,"internalType":"address"},{"name":"checkInRewardToken","type":"address","indexed":false,"internalType":"address"},{"name":"totalReward","type":"uint256","indexed":false,"internalType":"uint256"},{"name":"checkInRewardPool","type":"uint256","indexed":false,"internalType":"uint256"},{"name":"startTime","type":"uint256","indexed":false,"internalType":"uint256"},{"name":"endTime","type":"uint256","indexed":false,"internalType":"uint256"}],"anonymous":false},{"type":"event","name":"Unpaused","inputs":[{"name":"account","type":"address","indexed":false,"internalType":"address"}],"anonymous":false},{"type":"event","name":"Withdrawn","inputs":[{"name":"sessionId","type":"uint256","indexed":true,"internalType":"uint256"},{"name":"user","type":"address","indexed":true,"internalType":"address"},{"name":"stakedAmount","type":"uint256","indexed":false,"internalType":"uint256"},{"name":"rewardAmount","type":"uint256","indexed":false,"internalType":"uint256"},{"name":"checkInReward","type":"uint256","indexed":false,"internalType":"uint256"},{"name":"timestamp","type":"uint256","indexed":false,"internalType":"uint256"}],"anonymous":false},{"type":"error","name":"AddressEmptyCode","inputs":[{"name":"target","type":"address","internalType":"address"}]},{"type":"error","name":"AddressInsufficientBalance","inputs":[{"name":"account","type":"address","internalType":"address"}]},{"type":"error","name":"EnforcedPause","inputs":[]},{"type":"error","name":"ExpectedPause","inputs":[]},{"type":"error","name":"FailedInnerCall","inputs":[]},{"type":"error","name":"OwnableInvalidOwner","inputs":[{"name":"owner","type":"address","internalType":"address"}]},{"type":"error","name":"OwnableUnauthorizedAccount","inputs":[{"name":"account","type":"address","internalType":"address"}]},{"type":"error","name":"ReentrancyGuardReentrantCall","inputs":[]},{"type":"error","name":"SafeERC20FailedOperation","inputs":[{"name":"token","type":"address","internalType":"address"}]}],"bytecode":{"object":"0x6080346100ce57601f611e0f38819003918201601f19168301916001600160401b038311848410176100d3578084926020946040528339810103126100ce57516001600160a01b0390818116908190036100ce5780156100b557600080546001600160a01b03198116831782556040519316907f8be0079c531659141344cd1fd0a4f28419497f9722a3daafe3b4186f6b6457e09080a36001805560ff19600254166002556000600355611d2590816100ea8239f35b604051631e4fbdf760e01b815260006004820152602490fd5b600080fd5b634e487b7160e01b600052604160045260246000fdfe608080604052600436101561001d575b50361561001b57600080fd5b005b60003560e01c9081631069f3b51461144b575080632e1a7d4d146111dd5780633f4ba83a146111735780635c975abb146111505780636597a13014611132578063715018a6146110d95780637763b0df1461109457806383c4b7a314610fd15780638456cb5914610f775780638da5cb5b14610f4e57806393f1a40b14610ecf57806398969e8214610e825780639e10acf014610ca0578063ba604a2714610597578063e2bbb1581461035c578063e95a644f1461017a5763f2fde38b146100e5573861000f565b34610175576020366003190112610175576004356001600160a01b038181169182900361017557610114611556565b811561015c57600054826bffffffffffffffffffffffff60a01b821617600055167f8be0079c531659141344cd1fd0a4f28419497f9722a3daafe3b4186f6b6457e0600080a3005b604051631e4fbdf760e01b815260006004820152602490fd5b600080fd5b346101755760208060031936011261017557600435610197611780565b61019f61169f565b80151580610350575b6101b1906116bd565b80600052600482526101dd600660406000206101d36005820154421015611702565b0154421115611744565b80600052600582526040600020336000528252604060002081600052600483526040600020908054801561030b57600382019264ffffffffff9261012c84865416018481116102b057841642106102c65760020190815461023e81856117a3565b93600182018092116102b05761025f82600b926102699461026e97556117a3565b92019384546117b6565b611692565b9055421664ffffffffff198254161790557f6b2e4e52ba8b5cff4a90d18b1efd0f88c74ed562b5dd3b13f01a1759699b2db2604051924284523393a360018055005b634e487b7160e01b600052601160045260246000fd5b60405162461bcd60e51b815260048101889052601d60248201527f436865636b2d696e20636f6f6c646f776e206e6f7420657870697265640000006044820152606490fd5b60405162461bcd60e51b815260048101869052601a60248201527f4d757374207374616b65206265666f726520636865636b2d696e0000000000006044820152606490fd5b506003548111156101a8565b604036600319011261017557602435600435610376611780565b61037e61169f565b8015158061058b575b610390906116bd565b806000526020600481526103b4600660406000206101d36005820154421015611702565b8215610547576103c382611b34565b6000828152600482526040808220600584528183203384528452912081546001600160a01b031680156104fa57346104ab576040516323b872dd60e01b85820152336024820152306044820152606480820188905281526007939291610434919061042f608483611619565b611a1f565b6001670de0b6b3a764000061045b61044d898554611692565b8085556009860154906117a3565b04910155019061046c848354611692565b809255604051938452429084015260408301527f893e8a14c42d0303c66e296f4c3e4ed772edf8097f8d41ab8d08099654172ec060603393a360018055005b60405162461bcd60e51b815260048101859052602160248201527f446f206e6f742073656e6420424e4220666f72204552433230207374616b696e6044820152606760f81b6064820152608490fd5b5084340361050b5790600791610434565b60405162461bcd60e51b8152600481018490526014602482015273125b98dbdc9c9958dd0810939088185b5bdd5b9d60621b6044820152606490fd5b6064906040519062461bcd60e51b82526004820152601d60248201527f416d6f756e74206d7573742062652067726561746572207468616e20300000006044820152fd5b50600354811115610387565b60e0366003190112610175576105ab611556565b6105b361169f565b4260a4351115610c5b5760c43560a435811115610c0c576064908135908115610bbc576084908135918215610b685760065460005b818110610ac15750505060035480610a5f575b50610604611582565b9061060d611598565b6001600160a01b039092169485159283610a14576040516323b872dd60e01b81523360048201523060248201526044810187905260208160648160008c5af1908115610981576000916109f6575b50156109ba575b6001600160a01b031692831561098d57506040516323b872dd60e01b8152336004820152306024820152604481018590526020816064816000885af190811561098157600091610953575b501561091157505b6106c0600354611968565b806003556106cc6115ae565b906106d5611582565b6106dd611598565b6106f26106ec60a435876117b6565b896117c3565b9160405194610700866115e0565b60018060a01b0316855260018060a01b0316602085015260018060a01b0316604084015286606084015285608084015260a43560a08401528360c0840152600060e0840152610100830152600061012083015260a435610140830152600061016083015260016101808301526000526004602052610180600c604060002060018060a01b038451166bffffffffffffffffffffffff60a01b90818354161782556001820160018060a01b0360208701511682825416179055600282019060018060a01b0360408701511690825416179055606084015160038201556080840151600482015560a0840151600582015560c0840151600682015560e0840151600782015561010084015160088201556101208401516009820155610140840151600a820155610160840151600b82015501910151151560ff801983541691161790556040519161084e836115fd565b60a43583526020830191808352600654680100000000000000008110156108fb5780600161087f9201600655611977565b6108e557600160a0947ff0bf75f9e537ccf1d0c0fa20533c3c4afad7f030f84c6bdd91c30c7da3dbc089965183555191015560035494600180851b036108c36115ae565b16966040519384526020840152604083015260a43560608301526080820152a4005b634e487b7160e01b600052600060045260246000fd5b634e487b7160e01b600052604160045260246000fd5b60405162461bcd60e51b815260206004820152601760248201527f436865636b496e207472616e73666572206661696c65640000000000000000006044820152fd5b610974915060203d811161097a575b61096c8183611619565b81019061163b565b876106ad565b503d610962565b6040513d6000823e3d90fd5b1590506109ae576109a96109a18486611692565b341015611653565b6106b5565b6109a983341015611653565b5060405162461bcd60e51b815260206004820152601660248201527514995dd85c99081d1c985b9cd9995c8819985a5b195960521b6044820152fd5b610a0e915060203d811161097a5761096c8183611619565b8861065b565b85341015610662575060405162461bcd60e51b815260206004820152601b60248201527f496e73756666696369656e7420424e4220666f722072657761726400000000006044820152fd5b6000526004602052600660406000200154421115610a7d57846105fb565b60405162461bcd60e51b815260206004820152601a60248201527f50726576696f75732073657373696f6e206e6f7420656e64656400000000000060448201528490fd5b610aca81611977565b5060405190610ad8826115fd565b600181549182845201548060208094015260a435109081610b5e575b50610b085750610b0390611968565b6105e8565b83906a34b7339039b2b9b9b4b7b760a91b896040519262461bcd60e51b84526004840152602b60248401527f53657373696f6e2074696d65206f7665726c61707320776974682065786973746044840152820152fd5b9050851189610af4565b60405162461bcd60e51b815260206004820152602a60248201527f436865636b496e2072657761726420706f6f6c206d75737420626520677265616044820152690746572207468616e20360b41b81870152fd5b60405162461bcd60e51b815260206004820152602360248201527f546f74616c20726577617264206d75737420626520677265617465722074686160448201526206e20360ec1b81850152608490fd5b60405162461bcd60e51b815260206004820152602160248201527f456e642074696d65206d7573742062652061667465722073746172742074696d6044820152606560f81b6064820152608490fd5b60405162461bcd60e51b815260206004820152601c60248201527f53746172742074696d65206d75737420626520696e20667574757265000000006044820152606490fd5b34610175576020366003190112610175576000610180604051610cc2816115e0565b8281528260208201528260408201528260608201528260808201528260a08201528260c08201528260e082015282610100820152826101208201528261014082015282610160820152015260043580151580610e76575b610d22906116bd565b60005260046020526101a06040600020610180604051610d41816115e0565b60ff600c60018060a01b038554169485845260018060a01b03600182015416602085015260018060a01b0360028201541660408501526003810154606085015260048101546080850152600581015460a0850152600681015460c0850152600781015460e085015260088101546101008501526009810154610120850152600a810154610140850152600b81015461016085015201541615158282015260405192835260018060a01b03602082015116602084015260018060a01b036040820151166040840152606081015160608401526080810151608084015260a081015160a084015260c081015160c084015260e081015160e084015261010081015161010084015261012081015161012084015261014081015161014084015261016081015161016084015201511515610180820152f35b50600354811115610d19565b34610175576040366003190112610175576020610ebb600435610ea3611540565b9080151580610ec3575b610eb6906116bd565b6117e3565b604051908152f35b50600354811115610ead565b3461017557604036600319011261017557610ee8611540565b600435600052600560205260406000209060018060a01b031660005260205260a0604060002060ff81549160018101549060036002820154910154916040519485526020850152604084015264ffffffffff8116606084015260281c1615156080820152f35b34610175576000366003190112610175576000546040516001600160a01b039091168152602090f35b3461017557600036600319011261017557610f90611556565b610f9861169f565b600160ff1960025416176002557f62e78cea01bee320cd4e420270b5ea74000d11b0c9f74754ebdbfc544b05a2586020604051338152a1005b346101755760203660031901126101755760043560005260046020526101a0604060002060018060a01b03808254169181600182015416916002820154166003820154600483015460058401546006850154600786015491600887015493600988015495600a8901549760ff600c600b8c01549b0154169a6040519c8d5260208d015260408c015260608b015260808a015260a089015260c088015260e08701526101008601526101208501526101408401526101608301521515610180820152f35b34610175576040366003190112610175576020610ebb6004356110b5611540565b90801515806110cd575b6110c8906116bd565b6118f0565b506003548111156110bf565b34610175576000366003190112610175576110f2611556565b600080546001600160a01b0319811682556001600160a01b03167f8be0079c531659141344cd1fd0a4f28419497f9722a3daafe3b4186f6b6457e08280a3005b34610175576000366003190112610175576020600354604051908152f35b3461017557600036600319011261017557602060ff600254166040519015158152f35b346101755760003660031901126101755761118c611556565b60025460ff8116156111cb5760ff19166002557f5db9ee0a495bf2e6ff9c91a7834c1ba4fdd244a5e8aa4e537bd38aeae4b073aa6020604051338152a1005b604051638dfc202b60e01b8152600490fd5b3461017557602080600319360112610175576004356111fa611780565b61120261169f565b8015158061143f575b611214906116bd565b8060005260048252600660406000200154421115611402578060005260058252604060002033600052825260406000208054156113ca57600381019060ff825460281c166113915761126583611b34565b826000526004845260406000209381549461129c670de0b6b3a76400006112906009840154896117a3565b046001850154906117b6565b926112a781876119c7565b946501000000000065ff000000000019825416179055600782016112cc8882546117b6565b905560028101548061136f575b50508360018060a01b03916112f2883385845416611c33565b84611359575b81611341575b50505060405194855284015260408301524260608301527f34b356a06378218b842d641adfef56661747ff542e604819d25228012735412360803393a360018055005b6113519260023392015416611c33565b8583816112fe565b61136a853385600185015416611c33565b6112f8565b61137991546117a3565b611388600b83019182546117b6565b905586806112d9565b60405162461bcd60e51b815260048101859052601160248201527020b63932b0b23c903bb4ba34323930bbb760791b6044820152606490fd5b60405162461bcd60e51b815260048101849052601060248201526f139bc81cdd185ad95908185b5bdd5b9d60821b6044820152606490fd5b60405162461bcd60e51b815260048101839052601560248201527414d95cdcda5bdb881b9bdd08195b991959081e595d605a1b6044820152606490fd5b5060035481111561120b565b34610175576040366003190112610175576004356000608061146b611540565b93611475816115c4565b828152826020820152826040820152826060820152015280151580611534575b61149e906116bd565b600052600560205260406000209060018060a01b031660005260205260a06040600020604051906114ce826115c4565b805491828152600182015460208201908152600360028401549360408401948552015492606083019160ff608064ffffffffff958688168652019560281c1615158552604051958652516020860152516040850152511660608301525115156080820152f35b50600354811115611495565b602435906001600160a01b038216820361017557565b6000546001600160a01b0316330361156a57565b60405163118cdaa760e01b8152336004820152602490fd5b6024356001600160a01b03811681036101755790565b6044356001600160a01b03811681036101755790565b6004356001600160a01b03811681036101755790565b60a0810190811067ffffffffffffffff8211176108fb57604052565b6101a0810190811067ffffffffffffffff8211176108fb57604052565b6040810190811067ffffffffffffffff8211176108fb57604052565b90601f8019910116810190811067ffffffffffffffff8211176108fb57604052565b90816020910312610175575180151581036101755790565b1561165a57565b60405162461bcd60e51b815260206004820152601060248201526f24b739bab33334b1b4b2b73a1021272160811b6044820152606490fd5b919082018092116102b057565b60ff600254166116ab57565b60405163d93c066560e01b8152600490fd5b156116c457565b60405162461bcd60e51b815260206004820152601660248201527514d95cdcda5bdb88191bd95cc81b9bdd08195e1a5cdd60521b6044820152606490fd5b1561170957565b60405162461bcd60e51b815260206004820152601360248201527214d95cdcda5bdb881b9bdd081cdd185c9d1959606a1b6044820152606490fd5b1561174b57565b60405162461bcd60e51b815260206004820152600d60248201526c14d95cdcda5bdb88195b991959609a1b6044820152606490fd5b600260015414611791576002600155565b604051633ee5aeb560e01b8152600490fd5b818102929181159184041417156102b057565b919082039182116102b057565b81156117cd570490565b634e487b7160e01b600052601260045260246000fd5b600090808252600460205260408220926005602052604083209060018060a01b03168352602052604082209182549384156118e857600981015492600a82015490814211806118db575b61185b575b50505050670de0b6b3a764000061184e600192611858956117a3565b04910154906117b6565b90565b6118769161186b91979697611bf6565b6008830154906117a3565b91670de0b6b3a7640000928381029381850414901517156118c7575061185894936118be6001946118b8670de0b6b3a764000095600761184e960154906117c3565b90611692565b93819650611832565b634e487b7160e01b81526011600452602490fd5b506007830154151561182d565b509250505090565b906000918252600460205260408220906005602052604083209060018060a01b03168352602052604082206002810154928315801561195c575b611955575061194c61194261185894600b93546117a3565b60048401546117a3565b910154906117c3565b9250505090565b50600b8301541561192a565b60001981146102b05760010190565b6006548110156119b157600660005260011b7ff652222313e28459528d920b65115c16c04f3efc82aaedc97be59f3f377c0d3f0190600090565b634e487b7160e01b600052603260045260246000fd5b906002810154918215611a17576000526004602052604060002090600b820154918215611a0e576004611a0161185895611a0994546117a3565b9101546117a3565b6117c3565b50505050600090565b505050600090565b600080611a489260018060a01b03169360208151910182865af1611a41611a91565b9083611ad1565b8051908115159182611a76575b5050611a5e5750565b60249060405190635274afe760e01b82526004820152fd5b611a89925060208091830101910161163b565b153880611a55565b3d15611acc573d9067ffffffffffffffff82116108fb5760405191611ac0601f8201601f191660200184611619565b82523d6000602084013e565b606090565b90611af85750805115611ae657805190602001fd5b604051630a12f52160e11b8152600490fd5b81511580611b2b575b611b09575090565b604051639996b31560e01b81526001600160a01b039091166004820152602490fd5b50803b15611b01565b6000818152600460205260408120600a8101928354421115611bf0576007820154908115611bda57611b6b611b7691865490611bf6565b6008840154906117a3565b670de0b6b3a764000090818102918183041490151715611bc65760069291611b9d916117c3565b611bac60098301918254611692565b905501549050804211600014611bc0579055565b50429055565b634e487b7160e01b84526011600452602484fd5b5050600601549050804211600014611bc0579055565b50505050565b6000526004602052600660406000200154804211600014611c2b57905b80821115611c2457611858916117b6565b5050600090565b504290611c13565b908215611cea576001600160a01b0391821680611ca157506000809381938293165af1611c5e611a91565b5015611c6657565b60405162461bcd60e51b8152602060048201526013602482015272109390881d1c985b9cd9995c8819985a5b1959606a1b6044820152606490fd5b9290916040519263a9059cbb60e01b6020850152166024830152604482015260448152608081019181831067ffffffffffffffff8411176108fb57611ce892604052611a1f565b565b50505056fea2646970667358221220f2360313303ff81663dc16f73898f603f66af2816a70edb17935f5268ad179e464736f6c63430008140033","linkReferences":{}},"methodIdentifiers":{"checkIn(uint256)":"e95a644f","createSession((address,address,address,uint256,uint256,uint256,uint256))":"ba604a27","currentSessionId()":"6597a130","deposit(uint256,uint256)":"e2bbb158","getSessionInfo(uint256)":"9e10acf0","getUserInfo(uint256,address)":"1069f3b5","owner()":"8da5cb5b","pause()":"8456cb59","paused()":"5c975abb","pendingCheckInReward(uint256,address)":"7763b0df","pendingReward(uint256,address)":"98969e82","renounceOwnership()":"715018a6","sessions(uint256)":"83c4b7a3","transferOwnership(address)":"f2fde38b","unpause()":"3f4ba83a","userInfo(uint256,address)":"93f1a40b","withdraw(uint256)":"2e1a7d4d"},"id":30}