{"abi":[{"type":"constructor","inputs":[{"name":"_initialOwner","type":"address","internalType":"address"}],"stateMutability":"nonpayable"},{"type":"function","name":"createSession","inputs":[{"name":"params","type":"tuple","internalType":"struct StakingMinimal.CreateSessionParams","components":[{"name":"stakingToken","type":"address","internalType":"address"},{"name":"rewardToken","type":"address","internalType":"address"},{"name":"checkInRewardToken","type":"address","internalType":"address"},{"name":"totalReward","type":"uint256","internalType":"uint256"},{"name":"checkInRewardPool","type":"uint256","internalType":"uint256"},{"name":"startTime","type":"uint256","internalType":"uint256"},{"name":"endTime","type":"uint256","internalType":"uint256"}]}],"outputs":[],"stateMutability":"nonpayable"},{"type":"function","name":"currentSessionId","inputs":[],"outputs":[{"name":"","type":"uint256","internalType":"uint256"}],"stateMutability":"view"},{"type":"function","name":"owner","inputs":[],"outputs":[{"name":"","type":"address","internalType":"address"}],"stateMutability":"view"},{"type":"function","name":"pause","inputs":[],"outputs":[],"stateMutability":"nonpayable"},{"type":"function","name":"paused","inputs":[],"outputs":[{"name":"","type":"bool","internalType":"bool"}],"stateMutability":"view"},{"type":"function","name":"renounceOwnership","inputs":[],"outputs":[],"stateMutability":"nonpayable"},{"type":"function","name":"sessions","inputs":[{"name":"","type":"uint256","internalType":"uint256"}],"outputs":[{"name":"stakingToken","type":"address","internalType":"address"},{"name":"rewardToken","type":"address","internalType":"address"},{"name":"checkInRewardToken","type":"address","internalType":"address"},{"name":"totalReward","type":"uint256","internalType":"uint256"},{"name":"checkInRewardPool","type":"uint256","internalType":"uint256"},{"name":"startTime","type":"uint256","internalType":"uint256"},{"name":"endTime","type":"uint256","internalType":"uint256"},{"name":"totalStaked","type":"uint256","internalType":"uint256"},{"name":"rewardPerSecond","type":"uint256","internalType":"uint256"},{"name":"accRewardPerShare","type":"uint256","internalType":"uint256"},{"name":"lastRewardTime","type":"uint256","internalType":"uint256"},{"name":"totalWeightedStake","type":"uint256","internalType":"uint256"},{"name":"active","type":"bool","internalType":"bool"}],"stateMutability":"view"},{"type":"function","name":"transferOwnership","inputs":[{"name":"newOwner","type":"address","internalType":"address"}],"outputs":[],"stateMutability":"nonpayable"},{"type":"function","name":"unpause","inputs":[],"outputs":[],"stateMutability":"nonpayable"},{"type":"event","name":"OwnershipTransferred","inputs":[{"name":"previousOwner","type":"address","indexed":true,"internalType":"address"},{"name":"newOwner","type":"address","indexed":true,"internalType":"address"}],"anonymous":false},{"type":"event","name":"Paused","inputs":[{"name":"account","type":"address","indexed":false,"internalType":"address"}],"anonymous":false},{"type":"event","name":"SessionCreated","inputs":[{"name":"sessionId","type":"uint256","indexed":true,"internalType":"uint256"}],"anonymous":false},{"type":"event","name":"Unpaused","inputs":[{"name":"account","type":"address","indexed":false,"internalType":"address"}],"anonymous":false},{"type":"error","name":"AddressEmptyCode","inputs":[{"name":"target","type":"address","internalType":"address"}]},{"type":"error","name":"AddressInsufficientBalance","inputs":[{"name":"account","type":"address","internalType":"address"}]},{"type":"error","name":"EnforcedPause","inputs":[]},{"type":"error","name":"ExpectedPause","inputs":[]},{"type":"error","name":"FailedInnerCall","inputs":[]},{"type":"error","name":"OwnableInvalidOwner","inputs":[{"name":"owner","type":"address","internalType":"address"}]},{"type":"error","name":"OwnableUnauthorizedAccount","inputs":[{"name":"account","type":"address","internalType":"address"}]},{"type":"error","name":"ReentrancyGuardReentrantCall","inputs":[]},{"type":"error","name":"SafeERC20FailedOperation","inputs":[{"name":"token","type":"address","internalType":"address"}]}],"bytecode":{"object":"0x608060405234801561000f575f80fd5b50604051610bd2380380610bd283398101604081905261002e916100cd565b806001600160a01b03811661005c57604051631e4fbdf760e01b81525f600482015260240160405180910390fd5b6100658161007e565b5050600180556002805460ff191690555f6003556100fa565b5f80546001600160a01b038381166001600160a01b0319831681178455604051919092169283917f8be0079c531659141344cd1fd0a4f28419497f9722a3daafe3b4186f6b6457e09190a35050565b5f602082840312156100dd575f80fd5b81516001600160a01b03811681146100f3575f80fd5b9392505050565b610acb806101075f395ff3fe608060405234801561000f575f80fd5b5060043610610090575f3560e01c806383c4b7a31161006357806383c4b7a3146100d85780638456cb59146101d05780638da5cb5b146101d8578063ba604a27146101f2578063f2fde38b14610205575f80fd5b80633f4ba83a146100945780635c975abb1461009e5780636597a130146100b9578063715018a6146100d0575b5f80fd5b61009c610218565b005b60025460ff1660405190151581526020015b60405180910390f35b6100c260035481565b6040519081526020016100b0565b61009c61022a565b61015d6100e6366004610999565b600460208190525f918252604090912080546001820154600283015460038401549484015460058501546006860154600787015460088801546009890154600a8a0154600b8b0154600c909b01546001600160a01b039a8b169c998b169b9a90981699969795969495939492939192909160ff168d565b604080516001600160a01b039e8f1681529c8e1660208e01529a909c16998b019990995260608a0197909752608089019590955260a088019390935260c087019190915260e08601526101008501526101208401526101408301526101608201529015156101808201526101a0016100b0565b61009c61023b565b5f546040516001600160a01b0390911681526020016100b0565b61009c6102003660046109b0565b61024b565b61009c6102133660046109c6565b61060f565b61022061064c565b610228610678565b565b61023261064c565b6102285f6106ca565b61024361064c565b610228610719565b61025361064c565b61025b610756565b428160a00135116102b35760405162461bcd60e51b815260206004820152601c60248201527f53746172742074696d65206d75737420626520696e206675747572650000000060448201526064015b60405180910390fd5b8060a001358160c00135116103145760405162461bcd60e51b815260206004820152602160248201527f456e642074696d65206d7573742062652061667465722073746172742074696d6044820152606560f81b60648201526084016102aa565b5f8160600135116103735760405162461bcd60e51b815260206004820152602360248201527f546f74616c20726577617264206d75737420626520677265617465722074686160448201526206e20360ec1b60648201526084016102aa565b5f8160800135116103d95760405162461bcd60e51b815260206004820152602a60248201527f436865636b496e2072657761726420706f6f6c206d75737420626520677265616044820152690746572207468616e20360b41b60648201526084016102aa565b610404333060608401356103f360408601602087016109c6565b6001600160a01b031692919061077a565b61041e333060808401356103f360608601604087016109c6565b60038054905f61042d83610a00565b9091555050604080516101a081019091528061044c60208401846109c6565b6001600160a01b0316815260200182602001602081019061046d91906109c6565b6001600160a01b0316815260200161048b60608401604085016109c6565b6001600160a01b0316815260200182606001358152602001826080013581526020018260a0013581526020018260c0013581526020015f81526020018260a001358360c001356104db9190610a18565b6104e9906060850135610a2b565b81525f602080830182905260a08581013560408086019190915260608086018590526001608096870181905260038054875260048087528488208a5181546001600160a01b03199081166001600160a01b03928316178355988c015194820180548a16958216959095179094558a8601516002820180549099169416939093179096559188015181830155958701519386019390935590850151600585015560c0850151600685015560e0850151600785015561010085015160088501556101208501516009850155610140850151600a850155610160850151600b85015561018090940151600c909301805460ff191693151593909317909255905491517fba5b9081592c446fc890c90b94eb1cb2e823c52d85adafb0a116860c7549705a9190a250565b61061761064c565b6001600160a01b03811661064057604051631e4fbdf760e01b81525f60048201526024016102aa565b610649816106ca565b50565b5f546001600160a01b031633146102285760405163118cdaa760e01b81523360048201526024016102aa565b6106806107da565b6002805460ff191690557f5db9ee0a495bf2e6ff9c91a7834c1ba4fdd244a5e8aa4e537bd38aeae4b073aa335b6040516001600160a01b03909116815260200160405180910390a1565b5f80546001600160a01b038381166001600160a01b0319831681178455604051919092169283917f8be0079c531659141344cd1fd0a4f28419497f9722a3daafe3b4186f6b6457e09190a35050565b610721610756565b6002805460ff191660011790557f62e78cea01bee320cd4e420270b5ea74000d11b0c9f74754ebdbfc544b05a2586106ad3390565b60025460ff16156102285760405163d93c066560e01b815260040160405180910390fd5b604080516001600160a01b0385811660248301528416604482015260648082018490528251808303909101815260849091019091526020810180516001600160e01b03166323b872dd60e01b1790526107d49085906107fd565b50505050565b60025460ff1661022857604051638dfc202b60e01b815260040160405180910390fd5b5f6108116001600160a01b03841683610863565b905080515f141580156108355750808060200190518101906108339190610a4a565b155b1561085e57604051635274afe760e01b81526001600160a01b03841660048201526024016102aa565b505050565b606061087083835f610879565b90505b92915050565b60608147101561089e5760405163cd78605960e01b81523060048201526024016102aa565b5f80856001600160a01b031684866040516108b99190610a69565b5f6040518083038185875af1925050503d805f81146108f3576040519150601f19603f3d011682016040523d82523d5f602084013e6108f8565b606091505b5091509150610908868383610914565b925050505b9392505050565b6060826109295761092482610970565b61090d565b815115801561094057506001600160a01b0384163b155b1561096957604051639996b31560e01b81526001600160a01b03851660048201526024016102aa565b508061090d565b8051156109805780518082602001fd5b604051630a12f52160e11b815260040160405180910390fd5b5f602082840312156109a9575f80fd5b5035919050565b5f60e082840312156109c0575f80fd5b50919050565b5f602082840312156109d6575f80fd5b81356001600160a01b038116811461090d575f80fd5b634e487b7160e01b5f52601160045260245ffd5b5f60018201610a1157610a116109ec565b5060010190565b81810381811115610873576108736109ec565b5f82610a4557634e487b7160e01b5f52601260045260245ffd5b500490565b5f60208284031215610a5a575f80fd5b8151801515811461090d575f80fd5b5f82515f5b81811015610a885760208186018101518583015201610a6e565b505f92019182525091905056fea2646970667358221220de4d548da1810e5d424d7aaa56321ea9c94d3e77225786c0e003d9e4c44d05ba64736f6c63430008140033","linkReferences":{}},"methodIdentifiers":{"createSession((address,address,address,uint256,uint256,uint256,uint256))":"ba604a27","currentSessionId()":"6597a130","owner()":"8da5cb5b","pause()":"8456cb59","paused()":"5c975abb","renounceOwnership()":"715018a6","sessions(uint256)":"83c4b7a3","transferOwnership(address)":"f2fde38b","unpause()":"3f4ba83a"},"id":26}